:100000000C94CA070C94E7070C94E7070C94251886
:100010000C94E7070C94E7070C94E7070C94E707A8
:100020000C94E7070C94DC0B0C94E7070C94D108B4
:100030000C94E7070C94E9070C94FB070C94E70772
:100040000C94E7070C94E7070C94E7070C94E70778
:100050000C94E7070C944A180C94E7070C94E707F4
:100060000C9439260C94E707736E6F6F7A65000065
:100070000A0D7265616420007568206F682C20523B
:10008000544320776173206F66662C206C6574730F
:100090002072657365742069742100414C41524D92
:1000A00020474F494E472121212100414C41524DCB
:1000B0002054524950504544212121002A2A2A2AFD
:1000C000002A2A2A2A20000052656164696E67208E
:1000D00069326320646174613A2000005265616492
:1000E000696E672069326320646174613A2000613F
:1000F0006C61726D206F6E00616C61726D206F6655
:1001000066006100627574746F6E732100636C6FBA
:10011000636B21005241545420436C6F636B006445
:100120006F6E652073657474696E672074696D65A0
:10013000005365742074696D6520736563005365B1
:10014000742074696D65206D696E00536574207448
:10015000696D6520686F75720053657420616C610C
:10016000726D206D696E0053657420616C61726DF3
:1001700020686F75720053657474696E67207265CC
:1001800067696F6E0053657474696E67206261639E
:100190006B6C6967687400646F6E65207365747456
:1001A000696E6720646174650053657420796561C8
:1001B00072005365742064617465206D6F6E74689D
:1001C000005365742064617465206461790053652F
:1001D000742064617465206D6F6E7468005365747B
:1001E0002064617465206D6F6E746800646973705B
:1001F0006C6179206D656E7500623100623200625B
:10020000330093059306647261770079656172210A
:1002100000646174652100646F6E6520696E6974A5
:1002200000000A0D73637265656E20686569676812
:10023000743A200073637265656E20776964746830
:100240003A20000B3E41414141424242423C0006BD
:10025000FFFFFFFFFFFF000000000000005F000045
:100260000007000700147F147F14242A7F2A12231A
:100270001308646236495522500005030000001C33
:100280002241000041221C00082A1C2A0808083EBE
:1002900008080050300000080808080800606000E6
:1002A0000020100804023E5149453E00427F4000B4
:1002B00042615149462141454B311814127F1027A4
:1002C000454545393C4A49493001710905033649DC
:1002D000494936064949291E00363600000056367F
:1002E00000000008142241141414141441221408AC
:1002F000000201510906324979413E7E1111117EF9
:100300007F494949363E414141227F4141221C7F7C
:10031000494949417F090901013E414151327F0864
:1003200008087F00417F41002040413F017F0814C1
:1003300022417F404040407F0204027F7F0408103A
:100340007F3E4141413E7F090909063E4151215E00
:100350007F09192946464949493101017F01013F79
:100360004040403F1F2040201F7F2018207F631403
:100370000814630304780403615149454300007F76
:100380004141020408102041417F000004020102A3
:10039000044040404040000102040020545454787E
:1003A0007F484444383844444420384444487F38E3
:1003B00054545418087E090102081454543C7F0810
:1003C00004047800447D40002040443D00007F103C
:1003D000284400417F40007C041804787C08040411
:1003E0007838444444387C14141408081414187CD5
:1003F0007C080404084854545420043F4440203CE2
:100400004040207C1C2040201C3C4030403C442884
:100410001028440C5050503C4464544C440008365E
:10042000410000007F0000004136080008082A1C37
:1004300008081C2A08084932433A204255535F45B0
:1004400052524F520D0A004932433A204E4F5F49F3
:100450004E464F0D0A004932433A2053542D3E4434
:100460004154415F4E41434B206F72204C415354E5
:100470005F444154410D0A004932433A2053542D00
:100480003E444154415F41434B0D0A004932433AD7
:100490002053542D3E534C415F41434B0D0A0049BC
:1004A00032433A2053522D3E53525F53544F500D16
:1004B0000A004932433A2053522D3E444154415F91
:1004C0004E41434B0D0A004932433A2053522D3ED0
:1004D000444154415F41434B0D0A004932433A20A5
:1004E00053522D3E534C415F41434B0D0A0049325C
:1004F000433A204D522D3E534C415F41434B0D0A30
:10050000004932433A204D522D3E444154415F410F
:10051000434B0D0A004932433A204D542D3E41527F
:10052000425F4C4F53540D0A004932433A204D5418
:10053000522D3E534C415F4E41434B206F72204D34
:10054000542D3E444154415F4E41434B0D0A0049F6
:1005500032433A204D522D3E444154415F4E414377
:100560004B0D0A004932433A204D542D3E534C4125
:100570005F41434B206F7220444154415F41434BE4
:100580000D0A004932433A204D2D3E5354415254F6
:100590000D0A000C0FFFFF0A11FFFF0912FFFF08F1
:1005A0000B1013070B1014060A1115060A11150576
:1005B0000A1116050A1116040A1117040912170365
:1005C0000912180309121803091218020912180255
:1005D0000912190209121902091219020912190144
:1005E00009121A0109121A0109121A0109121A0133
:1005F00009121A0109121A0109121A0109121A0123
:1006000009121A0109121A0009121B0009121B0013
:1006100009121B0009121B0009121B0009121B0002
:1006200009121B0109121A0109121A0109121A01F1
:1006300009121A0109121A0109121A0109121A01E2
:1006400009121A0109121A020912190209121902D1
:1006500009121902091219020912180309121803C2
:100660000912180309121804091217040A111705B0
:100670000A1116050A1116060A1115060A111507A0
:100680000B1014080B10130912FFFF0A11FFFF0CC7
:100690000FFFFF1111FFFF0F11FFFF0E11FFFF0CE6
:1006A00011FFFF0B11FFFF0911FFFF0811FFFF06EC
:1006B00011FFFF0511FFFF0311FFFF0205081102E3
:1006C0000309110911FFFF0911FFFF0911FFFF0ABB
:1006D00011FFFF0A11FFFF0A11FFFF0A11FFFF0AB6
:1006E00011FFFF0A11FFFF0A11FFFF0A11FFFF0AA6
:1006F00011FFFF0A11FFFF0A11FFFF0A11FFFF0A96
:1007000011FFFF0A11FFFF0A11FFFF0A11FFFF0A85
:1007100011FFFF0A11FFFF0A11FFFF0A11FFFF0A75
:1007200011FFFF0A11FFFF0A11FFFF0A11FFFF0A65
:1007300011FFFF0A11FFFF0A11FFFF0A11FFFF0A55
:1007400011FFFF0A11FFFF0A11FFFF0A11FFFF0A45
:1007500011FFFF0A11FFFF0A11FFFF0A11FFFF0A35
:1007600011FFFF0A11FFFF0A11FFFF0A11FFFF0926
:1007700012FFFF0912FFFF0912FFFF0912FFFF0816
:1007800012FFFF0713FFFF0416FFFF0218FFFF020F
:1007900018FFFF0C10FFFF0A12FFFF0913FFFF08ED
:1007A00014FFFF0715FFFF0616FFFF0616FFFF05E4
:1007B00017FFFF0517FFFF0417FFFF0418FFFF03D4
:1007C000060D1803050E1803040F1802040F180273
:1007D0000310180203101801021118010211181158
:1007E00018FFFF1118FFFF1118FFFF1118FFFF116D
:1007F00018FFFF1118FFFF1117FFFF1117FFFF115F
:1008000017FFFF1116FFFF1016FFFF1015FFFF1057
:1008100015FFFF0F14FFFF0F14FFFF0F13FFFF0E55
:1008200013FFFF0E12FFFF0E11FFFF0D11FFFF0D53
:1008300010FFFF0C0FFFFF0C0FFFFF0B0EFFFF0B56
:100840000DFFFF0A0D1B1B0A0C1B1B090B1A1B09B2
:100850000B1A1B080A191B0709191A0708181A0688
:1008600008141A061AFFFF051AFFFF051AFFFF04F6
:1008700019FFFF0319FFFF0319FFFF0219FFFF0212
:1008800019FFFF0119FFFF0019FFFF0018FFFF000C
:1008900018FFFF0C11FFFF0A14FFFF0915FFFF08E7
:1008A00016FFFF0716FFFF0617FFFF0517FFFF04E0
:1008B000080B1804060D1803050E1803040F180280
:1008C0000410180203101802031018020210181066
:1008D00018FFFF1018FFFF1018FFFF1017FFFF1081
:1008E00017FFFF1016FFFF1016FFFF0F15FFFF0F7A
:1008F00014FFFF0E14FFFF0D15FFFF0C16FFFF0B7B
:1009000017FFFF0918FFFF0918FFFF0919FFFF0B69
:1009100019FFFF0C19FFFF0E1AFFFF0F1AFFFF1040
:100920001AFFFF111AFFFF121AFFFF121AFFFF131F
:100930001AFFFF131AFFFF141AFFFF141AFFFF1408
:100940001AFFFF141AFFFF141AFFFF151AFFFF15F5
:100950001AFFFF1519FFFF1519FFFF1519FFFF02F9
:1009600006151801071418010814180009141700B7
:10097000091416000A1316010B1215010C111401AB
:1009800013FFFF0212FFFF0311FFFF040FFFFF061B
:100990000CFFFF1317FFFF1217FFFF1217FFFF11C6
:1009A00017FFFF1117FFFF1017FFFF1017FFFF0FB3
:1009B00017FFFF0F17FFFF0E17FFFF0E17FFFF0DAB
:1009C00017FFFF0D17FFFF0C17FFFF0C17FFFF0BA3
:1009D0000D0F170B0D0F170A0C0F170A0C0F170925
:1009E0000B0F17090B0F17080A0F17080A0F170725
:1009F000090F1707090F1706080F1706080F170525
:100A0000070F1705070F1704060F1704060F170324
:100A1000050F1703050F1702040F1702040F170124
:100A2000030F1701030F1700020F1700020F170023
:100A3000020F17001BFFFF001BFFFF001BFFFF0043
:100A40001BFFFF001BFFFF001BFFFF001BFFFF0042
:100A50001BFFFF001BFFFF001BFFFF001BFFFF0F23
:100A600017FFFF0F17FFFF0F17FFFF0F17FFFF0FF6
:100A700017FFFF0F17FFFF0F17FFFF0F17FFFF0FE6
:100A800017FFFF0F17FFFF0F17FFFF0F17FFFF0FD6
:100A900017FFFF081BFFFF081AFFFF081AFFFF08D8
:100AA0001AFFFF071AFFFF0719FFFF0719FFFF07CC
:100AB00019FFFF0719FFFF0618FFFF0618FFFF06C3
:100AC00018FFFF0607FFFF0607FFFF0607FFFF05EA
:100AD00007FFFF0506FFFF0506FFFF0506FFFF05F1
:100AE00006FFFF040CFFFF040FFFFF0411FFFF04CC
:100AF00012FFFF0414FFFF0414FFFF0315FFFF03A1
:100B000016FFFF0316FFFF0317FFFF0317FFFF0288
:100B100018FFFF0218FFFF0A18FFFF0C19FFFF0E56
:100B200019FFFF1019FFFF1119FFFF1219FFFF1323
:100B300019FFFF1319FFFF1419FFFF1419FFFF1509
:100B400019FFFF1519FFFF1519FFFF1619FFFF16F3
:100B500019FFFF1619FFFF1618FFFF0305161802ED
:100B600006151801081517010915170009141700B3
:100B70000A1416000B1315000D12150114FFFF01C6
:100B800013FFFF0212FFFF0311FFFF040FFFFF0619
:100B90000CFFFF181AFFFF151AFFFF131AFFFF11B2
:100BA00017FFFF1016FFFF0E14FFFF0D13FFFF0CC2
:100BB00012FFFF0B11FFFF0A10FFFF0910FFFF08D4
:100BC0000FFFFF080EFFFF070EFFFF060DFFFF06DA
:100BD0000DFFFF050DFFFF050CFFFF040CFFFF04D9
:100BE0000CFFFF040BFFFF030BFFFF030BFFFF03D3
:100BF0000BFFFF020A0D110214FFFF0215FFFF0297
:100C000016FFFF010B0E17010A1018010A10180138
:100C100009111901091119010911190109121A0102
:100C200009121A0109121A0109121A0109121A01EC
:100C300009121B0109121B0109121B0109121B01D8
:100C400009121B0109121B0109121B0109121A01C9
:100C500009121A0209121A0209121A0209121A02B8
:100C6000091219030A1219030A1219030A121804A5
:100C70000A1218040A1218050A1217050B12170691
:100C80000B1116070C11150814FFFF0A13FFFF0CB8
:100C900010FFFF031BFFFF031BFFFF021AFFFF02F2
:100CA0001AFFFF021AFFFF021AFFFF0219FFFF02DD
:100CB00019FFFF0219FFFF0219FFFF0118FFFF01D3
:100CC00018FFFF0118FFFF01041418010314180195
:100CD0000213170002131700011317000113170066
:100CE000011216000112161216FFFF1216FFFF1155
:100CF00016FFFF1115FFFF1115FFFF1115FFFF1163
:100D000015FFFF1014FFFF1014FFFF1014FFFF105A
:100D100014FFFF0F14FFFF0F13FFFF0F13FFFF0F51
:100D200013FFFF0E13FFFF0E12FFFF0E12FFFF0E49
:100D300012FFFF0D12FFFF0D12FFFF0D11FFFF0D40
:100D400011FFFF0C11FFFF0C11FFFF0C10FFFF0C38
:100D500010FFFF0C10FFFF0B10FFFF0B10FFFF0B2E
:100D60000FFFFF0B0FFFFF0A0FFFFF0A0FFFFF0A26
:100D70000EFFFF0A0EFFFF090EFFFF090EFFFF091E
:100D80000EFFFF090DFFFF080DFFFF080DFFFF0815
:100D90000DFFFF0B11FFFF0814FFFF0715FFFF06F4
:100DA0000B1016050A11170409121804091218036A
:100DB000081318030813190208131902081319025B
:100DC000081319020813190108131901091319014D
:100DD000091319010A1319010A1319010B13190236
:100DE0000B1318020C1218020D1217020E12160322
:100DF0000F11150314FFFF0312FFFF0412FFFF057D
:100E000013FFFF0514FFFF0615FFFF0716FFFF087E
:100E100016FFFF0917FFFF0917FFFF0718FFFF065F
:100E20000A0C1805090D1904090E1903080E1903F7
:100E3000080F1A0208101A0208111A0107111A01E4
:100E400007121A0107121A0107121A0107131A01D1
:100E500007131A0107131A0107131A0107131A01BE
:100E600007131A01071319010713190108131902AF
:100E7000081318020812180308121703091117049F
:100E80000A1116050B10150614FFFF0812FFFF0AC2
:100E90000FFFFF0B10FFFF0812FFFF0713FFFF06F6
:100EA0000B0F14050A1015050A1116040911160472
:100EB0000911170309111703091118020912180261
:100EC000091219020912190109121901091219014D
:100ED00009121A0109121A0109121A0109121A013A
:100EE00009121A0109121A0109121A0109121A012A
:100EF00009121A0109121A0109121A0109121A011A
:100F000009121A010A121A020A121A020A121A0203
:100F10000A121A030A121A030B121A040C111A04E9
:100F20001AFFFF051AFFFF0619FFFF070F11190A25
:100F30000C11191019FFFF1018FFFF1018FFFF10F8
:100F400018FFFF0F17FFFF0F17FFFF0F16FFFF0E12
:100F500016FFFF0E15FFFF0E15FFFF0D14FFFF0D0F
:100F600013FFFF0C13FFFF0B12FFFF0B11FFFF0A14
:100F700010FFFF090FFFFF080EFFFF070DFFFF0522
:100F80000BFFFF040AFFFF0108FFFF0105FFFF0140
:100F900002FFFF0011241FBECFEFD8E0DEBFCDBFA0
:100FA00015E0A0E0B1E0E6E4FDE502C005900D9299
:100FB000A432B107D9F715E0A4E2B5E001C01D9253
:100FC000AA3AB107E1F70E94500D0C94A12E0C949F
:100FD00000001F920F920FB60F9211248F939F93D0
:100FE00088B198E0892788B99F918F910F900FBEA3
:100FF0000F901F9018951F920F920FB60F92112409
:101000008F939F9380912C0590912D05892B49F00A
:1010100080912C0590912D05019790932D0580933B
:101020002C0580919E0590919F05892B49F0809118
:101030009E0590919F05019790939F0580939E0533
:1010400080919C05882389F180912A0590912B0538
:10105000892B59F58091930590919405892BE1F4A2
:101060008CE291E0909394058093930580918100A8
:10107000882379F41092800089E08093810083E0D6
:1010800080936F0088EE93E09093890080938800AE
:1010900003C010928100439880919305909194052C
:1010A000019790939405809393059F918F910F9052
:1010B0000FBE0F901F901895F999FECF12BC11BC6E
:1010C000F89A80B5833C09F46BC0F999FECF1FBA3A
:1010D00081E090E092BD81BD88E080BD0FB6F894BC
:1010E000FA9AF99A0FBEF999FECF1FBA82E090E002
:1010F00092BD81BD10BC0FB6F894FA9AF99A0FBE52
:10110000F999FECF1FBA83E090E092BD81BD80E1E6
:1011100080BD0FB6F894FA9AF99A0FBEF999FECFEE
:101120001FBA84E090E092BD81BD81E080BD0FB622
:10113000F894FA9AF99A0FBEF999FECF1FBA85E092
:1011400090E092BD81BD10BC0FB6F894FA9AF99A5E
:101150000FBEF999FECF1FBA86E090E092BD81BD27
:1011600010BC0FB6F894FA9AF99A0FBEF999FECF0F
:101170001FBA87E090E092BD81BD8AE080BD0FB6C6
:10118000F894FA9AF99A0FBEF999FECF1FBA12BCD9
:1011900011BC83EC80BD0FB6F894FA9AF99A0FBE91
:1011A00008951F920F920FB60F9211248F939F9361
:1011B00088B198E0892788B99F918F910F900FBED1
:1011C0000F901F901895AF92BF92CF92DF92EF923F
:1011D000FF920F931F93E62E1092800029E0209338
:1011E000810023E020936F009C0140E050E060E02C
:1011F00079E08DE390E00E944F2E30938900209398
:101200008800FF2400E010E0C801B7010E946D2BA8
:101210005B016C0120E030E04AEF54E40E948F292A
:101220007B018C0120E030E040E85FE30E94E92A86
:1012300088231CF461E070E024C0C801B70120E0FD
:101240003FEF4FE757E40E94892A1816B4F4C6010D
:10125000B50120E030E040E251E40E948F290E9475
:10126000B92788EC90E005C0FC013197F1F7615097
:10127000704061157105C1F707C0C801B7010E9430
:10128000B927CB010197F1F71092810043981F9184
:101290000F91FF90EF90DF90CF90BF90AF900895A7
:1012A000FC0183709070892B39F4CF0164E670E003
:1012B0000E94062E892B49F420E030E0CF0160E93E
:1012C00071E00E94062E892B11F421E030E0822F7C
:1012D00008950895482F6AE00E94FA2D282F30E0E3
:1012E00084E0220F331F8A95E1F7842F0E94FA2DA4
:1012F000892F822B089588E592E090932B058093A7
:101300002A0510928100439888E690E061E00E94EF
:10131000FA1E10929D05089582E091E061E00E941E
:10132000FA1E1E9B1BC080919905882369F11092BB
:1013300099051092A20510922B0510922A05809112
:101340009C05882309F188EF90E061E00E94FA1E75
:1013500010929C0510928100439808958091990500
:10136000882391F481E08093990510922B051092C7
:101370002A0583E08093290584E0809328058FEE79
:1013800090E061E00E94FA1E08950F931F93182FBA
:10139000062F6AE00E94FA2D805D602F0E947F2058
:1013A000812F6AE00E94FA2D892F805D602F0E94B4
:1013B0007F201F910F910895AF92BF92CF92DF923D
:1013C000EF92FF920F931F93DF93CF93CDB7DEB7CA
:1013D00028970FB6F894DEBF0FBECDBF162FF42EA0
:1013E000D22E5E010894A11CB11C98E0F501119267
:1013F0009A95E9F719820E946A098A83812F0E94CF
:101400006A098B838F2D0E946A098C838D2D0E941F
:101410006A098D83802F0E946A098E838E2D0E9417
:101420006A098F838C2D0E946A09888780ED68E0A5
:10143000A5010E94A0258823D9F008EC10E080EADD
:101440009FE064E60E94E30888EE93E0F80131979C
:10145000F1F70197D9F780EA9FE064E60E94E3087C
:1014600080E197E2F8013197F1F70197D9F7E7CFDB
:1014700028960FB6F894DEBF0FBECDBFCF91DF9197
:101480001F910F91FF90EF90DF90CF90BF90AF90A2
:1014900008950F931F93DF93CF93CDB7DEB72997AE
:1014A0000FB6F894DEBF0FBECDBF198280ED61E0AC
:1014B000AE014F5F5F4F0E94A025182F882349F18E
:1014C0008CED90E060E00E94FA1E812F90E00E9477
:1014D0006E1F8BED90E061E00E94FA1E08EC10E0B8
:1014E00080EA9FE064E60E94E30888EE93E0F8015A
:1014F0003197F1F70197D9F780EA9FE064E60E94FF
:10150000E30880E197E2F8013197F1F70197D9F705
:10151000E7CF80ED67E0AE014E5F5F4F0E94E725A9
:10152000182F882349F188EC90E060E00E94FA1EB1
:10153000812F90E00E946E1F87EC90E061E00E9496
:10154000FA1E08EC10E080EA9FE064E60E94E308DF
:1015500088EE93E0F8013197F1F70197D9F780EA27
:101560009FE064E60E94E30880E197E2F80131978A
:10157000F1F70197D9F7E7CF7A81872F82958F709E
:1015800090E0877090709C01A3E0220F331FAA9512
:10159000E1F7880F991F280F391F872F8F70820F4F
:1015A0008093A1054B81842F82958F7090E0877086
:1015B00090709C01E3E0220F331FEA95E1F7880F5A
:1015C000991F280F391F4F70420F409397058C8148
:1015D000482F42954F70682F6F7086FF22C082950A
:1015E0008695877090E0817090709C01220F331F68
:1015F000280F391F220F331F220F331F842F90E033
:1016000081709070AC0103E0440F551F0A95E1F71B
:10161000880F991F480F591F240F260F20938E05FE
:1016200011C0842F90E0837090709C01B3E0220F72
:10163000331FBA95E1F7880F991F280F391F620FE2
:1016400060938E054E81842F82958F7090E0837019
:1016500090709C01F3E0220F331FFA95E1F7880F99
:10166000991F280F391F4F70420F409396054F81E5
:10167000842F82958F7090E0817090709C0163E060
:10168000220F331F6A95E1F7880F991F280F391F22
:101690004F70420F4093A0052885822F82958F704E
:1016A0003AE0839FC00111242F70280F20939105E9
:1016B000872F807829960FB6F894DEBF0FBECDBF76
:1016C000CF91DF911F910F910895CF92EF920F93D9
:1016D0000E94FA240E94490A882381F088E790E05A
:1016E00061E00E94FA1E80E060E04CE020E001E052
:1016F000EE24E394B9E0CB2E0E94DC090E94490A53
:1017000080E790E060E00E94FA1E80918E0590E0F4
:101710000E946E1F8AE30E94E51E8091970590E06B
:101720000E946E1F8AE30E94E51E8091A10590E051
:101730000E946E1F89E00E94E51E8091960590E050
:101740000E946E1F8FE20E94E51E8091A00590E02E
:101750000E946E1F8FE20E94E51E8091910590E02D
:101760000E946E1F8FE690E061E00E94FA1EF999D8
:10177000FECF82E090E092BD81BDF89A80B56CE327
:101780000E94FA2D90939205F999FECF81E090E0A6
:1017900092BD81BDF89A80B568E10E94FA2D9093C0
:1017A0009B0587E08093B10081E08093700078947E
:1017B0000F91EF90CF9008951F920F920FB60F9256
:1017C0001124FF920F931F932F933F934F935F9397
:1017D0006F937F938F939F93AF93BF93EF93FF93F9
:1017E000A89580912E05803579F410922E051091E0
:1017F000A10500919705F0908E050E94490A8091FD
:101800008E058F1529F40AC08F5F80932E050CC1B9
:1018100081E080932605F092980507C08091970596
:10182000801731F081E08093250500938F0509C072
:101830008091A105811729F081E0809327051093FD
:10184000A3058091A105811709F45EC080919C05D4
:10185000882359F080912A0590912B05009729F053
:10186000019790932B0580932A0580912805882362
:1018700061F1809128058150809328058091280589
:10188000882319F580912905809337051092290541
:1018900080912605882329F08091980580938E05F4
:1018A00004C080912505882321F080918F058093C5
:1018B000970580912605882321F4809125058823AA
:1018C00021F0F0928E050093970581EC90E060E0A6
:1018D0000E94FA1E80918E0590E00E946E1F8AE39E
:1018E0000E94E51E8091970590E00E946E1F8AE39A
:1018F0000E94E51E8091A10590E00E946E1F8CEB76
:1019000090E061E00E94FA1E80919D05843061F0B4
:1019100080919D05853041F080919D05883021F0B2
:1019200080919D05863089F580913105882369F580
:1019300084E462E00E94B32480918E0560E00E94FE
:10194000F70E8AE360E00E947F208091970560E0B7
:101950000E94C5098AE360E00E947F208091A10572
:1019600060E00E94C50980919005882371F480E2AF
:1019700060E00E947F2080918E058C3010F080E521
:1019800001C081E460E00E947F2080919905882356
:10199000C1F08091A1058823A1F4909197058091D1
:1019A0009205981771F490918E0580919B05981778
:1019B00041F48BEA90E061E00E94FA1E81E080939E
:1019C000A20580912505882391F48091260588231E
:1019D00071F48091A205882351F08BE990E061E0D9
:1019E0000E94FA1E81E080939C051092A2058091CE
:1019F0002F05863039F410922F0580913505882304
:101A000029F409C08F5F80932F050EC080913505A2
:101A100081508093350580913005882329F080918D
:101A20003005815080933005FF91EF91BF91AF91C8
:101A30009F918F917F916F915F914F913F912F91E6
:101A40001F910F91FF900F900FBE0F901F90189550
:101A5000EF92FF920F931F93F82E162FE42E21E0A2
:101A600001E00E94C820FE0C0F2D02501150802F63
:101A7000612F0E949C221E5F802F612F0E949C225A
:101A800001501350802F612F0E949C221C5F802FD9
:101A9000612F0E949C221F910F91FF90EF9008955B
:101AA0009F92AF92BF92CF92DF92EF92FF920F93ED
:101AB0001F93CF93DF9384B714BE88E10FB6F894D9
:101AC00080936000109260000FBE8AE190E00E9457
:101AD000BF1E84E191E061E00E94FA1E3B9A8DE016
:101AE00091E061E00E94FA1E0E94650B0E945C0872
:101AF000F999FECF85E090E092BD81BDF89A80B55E
:101B000080939A05F999FECF86E090E092BD81BD61
:101B1000F89A80B58093900584E091E061E00E949E
:101B2000FA1E0E94FA170E948C0982E084BD83E0AD
:101B300085BD8DE787BD80916E00826080936E00C9
:101B4000539A80E28093B0008091B00083608093CC
:101B5000B0008091B10088608093B10080E18093F3
:101B6000B300F999FECF83E090E092BD81BDF89A71
:101B700080B58093B400259A80EA9FE064E60E94D5
:101B8000E3082FE088E190E00FB6F894A8958093E1
:101B900060000FBE209360000E94E1240E94BD24DB
:101BA0000E94A71E80E00E940C1E00E010E0CBE423
:101BB000D0E052E0952E44E0F42EDD24D39433E0BF
:101BC000A32E25E0E22E98E0B92E86E0C82ED09311
:101BD0009F05C0939E0580913305882341F0809135
:101BE0009C05882321F0109233050E947B09113057
:101BF00039F4809128058823D1F4E092290508C0A2
:101C0000123051F480912805882389F4D092290557
:101C1000F092280513E00BC0133049F48091280599
:101C2000882329F490922905F092280510E08091EC
:101C30003305867031F11092330580919A0588231F
:101C400021F080919A05813019F4D092290512C0B3
:101C500080919A05823021F080919A05833021F499
:101C6000F092290512E00BC080919A05843021F48E
:101C7000E092290513E003C0F092290511E0F092EB
:101C800028058091330580FF39C0109233051092EA
:101C900029051092280580919D05843089F08530B2
:101CA00028F4882341F0833009F511C08530A1F074
:101CB0008830E1F416C0F0929D050E943D131DC0CE
:101CC000A0929D050E948A111092000116C0E09218
:101CD0009D050E94281611C0B0929D050E945F14B8
:101CE0000CC0C0929D050E94461507C010929D052C
:101CF0000E94BD2480E00E940C1E10E00E94441946
:101D000080919D05882339F5002369F480919C0515
:101D1000882369F08091A10580FF09C081E00E94BD
:101D2000041C01E018C080919C05882351F080912B
:101D30009C05882359F0002349F08091A10580FD7E
:101D400005C080E00E94041C00E005C02D9A802F91
:101D50000E94041C2D9880919E0590919F05892BCF
:101D6000D1F735CF0F931F93CF93DF93182F062F03
:101D700080919005882371F584E761E00E94B32487
:101D80001C3010F080E501C081E460E00E947F20FB
:101D90008DE460E00E947F2080E561E00E94B32432
:101DA000812F90E047966CE070E00E941A2EEC01C3
:101DB0008930910524F09C012F5F822F10C080E2B2
:101DC00060E00E947F209E012F5C822F602F0E9486
:101DD0007F2008C080E561E00E94B324812F602F3E
:101DE0000E94C509DF91CF911F910F9108950F9324
:101DF0001F93CF93DF93082F162F80919005882390
:101E0000D1F4802F90E047966CE070E00E941A2E8B
:101E1000EC018930910524F09C012F5F822F14C0C2
:101E200080E260E00E947F209E012F5C822F612F64
:101E30000E947F200CC080E260E00E947F2080E250
:101E400060E00E947F20802F612F0E94C509DF91F2
:101E5000CF911F910F9108951F93182F88E064E090
:101E60000E94B32481E091E060E00E94B72080915D
:101E70009A05882339F480919005882319F48AE023
:101E800091E078C080919A05882339F4809190057B
:101E9000813019F487E191E06DC080919A0581301D
:101EA00039F480919005882319F484E291E062C0AE
:101EB00080919A05813039F480919005813019F430
:101EC00081E391E057C080919A05823039F4809186
:101ED0009005882319F48EE391E04CC080919A0517
:101EE000823039F480919005813019F48BE491E0CF
:101EF00041C080919A05833039F480919005882300
:101F000019F488E591E036C080919A05833039F460
:101F100080919005813019F485E691E02BC0809185
:101F20009A05843039F480919005882319F482E76A
:101F300091E020C080919A05843039F48091900519
:101F4000813019F48FE791E015C080919A058530B2
:101F500039F480919005882319F48CE891E00AC047
:101F600080919A05853049F480919005813029F45B
:101F700089E991E0612F0E94B7201F910895282FD1
:101F8000663081F1673078F4633019F1643030F4F1
:101F90006130C9F0623009F03FC018C06430E1F030
:101FA0006530D1F51CC0693031F16A3028F46730F2
:101FB000E1F0683089F51CC06B3019F16B30F0F03E
:101FC0006C3051F524C086EA91E01DC08AEA91E0A8
:101FD0001AC08EEA91E017C082EB91E014C086EB44
:101FE00091E011C08AEB91E00EC08EEB91E00BC046
:101FF00082EC91E008C086EC91E005C08AEC91E0AB
:1020000002C08EEC91E0622F0E94B720089582ED0D
:1020100091E0622F0E94B72008951F93182F862FFA
:10202000642F422F0E9445198330B9F0843028F480
:10203000813069F0823070F407C08530A1F08530BE
:1020400078F08630C1F412C086ED91E011C08BEDBE
:1020500091E00EC080EE91E00BC085EE91E008C0EB
:102060008AEE91E005C08FEE91E002C084EF91E02E
:10207000612F0E94B7201F910895EF92FF920F9356
:102080001F93182F062FE42EF22E88E063E00E94A3
:10209000B32489EF91E060E00E94B72080919A0517
:1020A000882331F48FEF91E060E00E94B72018C0E0
:1020B00080919A05813031F48FEF91E060E00E94C9
:1020C000B7202FC080919A058230E9F480E260E069
:1020D0000E947F2080E0612F402F2E2D0E940D1046
:1020E00060E08BE0F81609F461E0812F0E94C509D9
:1020F0008FE260E00E947F2060E09CE0F91609F426
:1021000061E0802F20C080919A05833001F580E244
:1021100060E00E947F2080E0612F402F2E2D0E94E2
:102120000D1060E08CE0F81609F461E0802F0E9449
:10213000C5098FE260E00E947F2060E09BE0F91615
:1021400009F461E0812F0E94C5098FE23EC08091B1
:102150009A058430F9F485E092E060E00E94B720AF
:1021600080E09BE0F91609F481E0612F0E94BF0F27
:1021700080E260E00E947F2060E08CE0F81609F4C5
:1021800061E0802F0E94C5098CE260E00E947F2000
:1021900080E21BC080E0612F402F2E2D0E940D1089
:1021A00080E09BE0F91609F481E0612F0E94BF0FE7
:1021B00080E260E00E947F2060E08CE0F81609F485
:1021C00061E0802F0E94C5098CE260E00E947F20C0
:1021D00010E09DE0F91609F411E084E1612F0E94FE
:1021E000C5098E2D612F0E94C5091F910F91FF9087
:1021F000EF9008958CEE91E061E00E94FA1E8091CC
:1022000031058F5F809331050E94BD2480E060E03E
:102210000E94B32489E092E060E00E94B72088E049
:1022200061E00E94B3248CE192E060E00E94B7205C
:1022300080919B0560E00E94B20E8AE360E00E94FC
:102240007F208091920560E00E94C50988E062E0ED
:102250000E94B32489E292E060E00E94B72080915E
:102260008E0560E00E94F70E8AE360E00E947F2006
:102270008091970560E00E94C5098AE360E00E94B2
:102280007F208091A10560E00E94C50980919005A2
:10229000882371F480E260E00E947F2080918E05A7
:1022A0008C3010F080E501C081E460E00E947F2066
:1022B0008091A005609196054091910525E00E94CE
:1022C0003D1080E00E942C0F88E065E00E94B3245E
:1022D00084E392E060E00E94B7208091B40060E067
:1022E0000E94C50980E066E00E94B32484E492E085
:1022F00060E00E94B72080E067E00E94B3248AE596
:1023000092E060E00E94B720809131058150809377
:1023100031050895BF92CF92DF92EF92FF920F9313
:102320001F93CF93DF9310918E05D0909705F09077
:10233000A1050E94FA10809131058F5F80933105CD
:1023400080E063E147E00E94280D809131058150D3
:10235000809331058AE08093300503E08AE0B82E4F
:10236000C8ECD0E08091330580FD7DC180913305BC
:10237000882321F480913405882319F0B092300528
:1023800007C080913005882319F410929D056BC118
:102390008091330581FFEEC01092330580913105A5
:1023A0008F5F809331050330A9F58BE491E060E005
:1023B0000E94FA1E84E462E00E94B324812F61E04F
:1023C0000E94F70E84E762E00E94B324809190059A
:1023D000882361F480E260E00E947F201C3010F0CE
:1023E00080E501C081E461E00E947F2080E066E03A
:1023F0000E94B3248BE692E060E00E94B72080E068
:1024000067E00E94B32481E892E060E00E94B72078
:1024100005E6ABC00536E9F58EE391E060E00E9489
:10242000FA1E84E462E00E94B324812F60E00E94DF
:10243000F70E8AE360E00E947F208D2D61E00E940C
:10244000C50980E066E00E94B32487E992E060E07D
:102450000E94B72080E067E00E94B3248DEA92E0FA
:1024600060E00E94B72084E762E00E94B32480917C
:102470009005882361F480E260E00E947F201C3098
:1024800010F080E501C081E460E00E947F2006E654
:102490006CC0063679F581E391E060E00E94FA1E97
:1024A00080919005882311F486E501C082E662E000
:1024B0000E94B3248D2D60E00E94C5098AE360E08C
:1024C0000E947F208F2D61E00E94C50980E066E0B8
:1024D0000E94B32483EC92E060E00E94B72080E089
:1024E00067E00E94B32489ED92E060E00E94B7208B
:1024F00007E63BC08FE191E060E00E94FA1E809108
:102500009005882311F488E601C084E762E00E9408
:10251000B3248F2D60E00E94C50980E066E00E9430
:10252000B32484E492E060E00E94B72080E067E09A
:102530000E94B3248AE592E060E00E94B7201093E5
:102540008E05D0929705F092A1058091A10560912A
:10255000970540918E0500919605E090A005C090EA
:10256000910520E00E94DC0903E080913105815053
:10257000809331058091330582FD04C0809134053C
:1025800082FFF0CE10923305809131058F5F8093EA
:102590003105053649F5812F90E0019668E170E03C
:1025A0000E941A2E182F80938E0584E462E00E9408
:1025B000B324812F61E00E94F70E84E762E00E945D
:1025C000B324809190058823E9F580E260E00E94C1
:1025D0007F2080918E058C3010F080E501C081E471
:1025E00061E00E947F202EC00636A1F48D2D90E080
:1025F00001966CE370E00E941A2ED82E809190050F
:10260000882311F486E501C082E662E00E94B324CB
:102610008D2D15C00736B1F48F2D90E001966CE337
:1026200070E00E941A2EF82E80919005882311F4F4
:1026300088E601C084E762E00E94B3248F2D61E048
:102640000E94C509809131058150809331058091A8
:10265000340582FF87CE80ED97E0FE013197F1F7D8
:102660000197D9F77FCEDF91CF911F910F91FF9006
:10267000EF90DF90CF90BF900895CF92DF92EF92CE
:10268000FF920F931F93CF93DF930E94FA108091D4
:1026900031058F5F8093310580E06BE047E00E9459
:1026A000280D809131058150809331058AE0809317
:1026B000300514E00AE028ECC22ED12C92E0E92E7D
:1026C000F12CC1E0D0E08091330580FDEFC0809116
:1026D0003305882321F480913405882319F0009371
:1026E000300507C080913005882319F410929D05AC
:1026F000DDC08091330581FF7EC01092330580914B
:1027000031058F5F809331051430F1F487E691E055
:1027100060E00E94FA1E80919B0561E00E94B20E6B
:1027200080E066E00E94B3248BE692E060E00E94C5
:10273000B72080E067E00E94B32481E892E060E087
:102740000E94B72015E652C0153659F589E591E08B
:1027500060E00E94FA1E80E561E00E94B32480914F
:102760009B0560E00E94B20E82E661E00E94B32405
:102770008091920561E00E94C50980E066E00E94B8
:10278000B32487E992E060E00E94B72080E067E030
:102790000E94B3248DEA92E060E00E94B72016E622
:1027A00025C080E561E00E94B32480919B0560E034
:1027B0000E94B20E82E661E00E94B32480919205ED
:1027C00060E00E94C50980E066E00E94B32484E4D2
:1027D00092E060E00E94B72080E067E00E94B324AE
:1027E0008AE592E060E00E94B72014E08091310514
:1027F0008150809331058091330582FD04C0809122
:10280000340582FF60CF10923305809131058F5FD0
:10281000809331051536B9F480919B0590E00196BF
:1028200068E170E00E941A2E80939B0580919B05C1
:1028300061E00E94B20E80919B05F999FECF1FBA0C
:10284000D2BDC1BD1CC0163601F58091920590E045
:1028500001966CE370E00E941A2E8093920582E646
:1028600061E00E94B3248091920561E00E94C50955
:1028700080919205F999FECF1FBAF2BCE1BC80BDF0
:102880000FB6F894FA9AF99A0FBE809131058150EB
:10289000809331058091340582FF15CF80ED97E05C
:1028A000F6013197F1F70197D9F70DCFDF91CF916D
:1028B0001F910F91FF90EF90DF90CF900895EF92CE
:1028C000FF920F931F93CF93DF930E94FA10809192
:1028D00031058F5F8093310580E063E247E00E941D
:1028E000280D809131058150809331058AE08093D5
:1028F000300518E00AE035E0E32EF12CC6E0D0E028
:102900008091330580FDBBC080913305882321F47D
:1029100080913405882319F00093300507C0809119
:102920003005882319F410929D05A9C080913305C4
:1029300081FF40C010923305809131058F5F8093F5
:1029400031051830E1F486E791E060E00E94FA1E5C
:1029500081E00E942C0F80E066E00E94B3248FEE9D
:1029600092E060E00E94B72080E067E00E94B3241C
:1029700085E093E060E00E94B72018E616C080E092
:102980000E942C0F80E066E00E94B32484E492E071
:1029900060E00E94B72080E067E00E94B3248BE1F2
:1029A00093E060E00E94B72018E0809131058150EB
:1029B000809331058091330582FD04C080913405F8
:1029C00082FF9ECF10923305183609F099CF80917F
:1029D0009005882359F080919A058F5F80939A051E
:1029E00080919A05863010F010929A05809190059A
:1029F00090E0882309F491E090939005809131054F
:102A00008F5F809331050E94FA1080E066E00E949B
:102A1000B3248FEE92E060E00E94B72080E067E090
:102A20000E94B32485E093E060E00E94B72080E03C
:102A300063E247E00E94280D81E00E942C0F809104
:102A4000310581508093310580919A05F999FECF27
:102A50001FBAF2BCE1BC80BD0FB6F894FA9AF99A9D
:102A60000FBE80919005F999FECF1FBAD2BDC1BDAE
:102A700080BD0FB6F894FA9AF99A0FBE41CFDF9154
:102A8000CF911F910F91FF90EF9008950F931F9397
:102A9000CF93DF930E94FA10809131058F5F80936E
:102AA000310580E066E00E94B32481E393E060E0BA
:102AB0000E94B72080E06BE247E00E94280D8091E1
:102AC00031058150809331058AE08093300516E00E
:102AD0000AE0C3E0D0E08091330580FDB4C080916E
:102AE0003305882321F480913405882319F000935D
:102AF000300507C080913005882319F410929D0598
:102B0000A2C08091330581FF4CC0109233058091A3
:102B100031058F5F80933105163011F585E891E01E
:102B200060E00E94FA1E82E665E00E94B324809174
:102B3000B40061E00E94C50980E066E00E94B32411
:102B400087E493E060E00E94B72080E067E00E94A5
:102B5000B3248CE593E060E00E94B72019E61CC026
:102B600082E665E00E94B3248091B40060E00E9498
:102B7000C50980E066E00E94B32481E793E060E04D
:102B80000E94B72080E067E00E94B32484E893E0CD
:102B900060E00E94B72016E080913105815080935B
:102BA00031058091330582FD04C08091340582FF98
:102BB00092CF10923305193609F08DCF8091B40071
:102BC0008F5F8093B4008091B400813110F0109237
:102BD000B400809131058F5F809331050E94FA1017
:102BE00080E066E00E94B3248FEE92E060E00E94F5
:102BF000B72080E067E00E94B32485E093E060E0C6
:102C00000E94B72080E06BE247E00E94280D82E638
:102C100065E00E94B3248091B40061E00E94C50980
:102C2000809131058150809331058091B400F999EC
:102C3000FECF1FBAD2BDC1BD80BD0FB6F894FA9ABF
:102C4000F99A0FBE48CFDF91CF911F910F91089550
:102C5000BF92CF92DF92EF92FF920F931F93CF9389
:102C6000DF93F09096051091A005D09091050E94F9
:102C7000FA10809131058F5F8093310580E06BE120
:102C800047E00E94280D80913105815080933105E5
:102C90008AE08093300505E07AE0B72EC8ECD0E0FA
:102CA0008091330580FD9CC180913305882321F4F8
:102CB00080913405882319F0B092300507C08091C7
:102CC0003005882319F410929D058AC1809133053F
:102CD00081FFF4C010923305809131058F5F80939E
:102CE00031050530F9F480919A05882361F08091CF
:102CF0009A05823041F080919A05843021F08091CC
:102D00009A05853019F48DED91E04BC080919A05BC
:102D1000813029F080919A05833009F097C08EECBC
:102D200091E015C00B3081F580919A05882369F0F8
:102D300080919A05823049F080919A05843029F07B
:102D400080919A05853009F05AC081EC91E060E0ED
:102D50000E94FA1E812F6F2D4D2D2CE00E943D10F8
:102D600080E066E00E94B32484EC93E060E00E947F
:102D7000B72080E067E00E94B3248AED93E060E032
:102D80000E94B7200CE095C00C3009F05FC0809124
:102D90009A05813021F080919A058330F9F482EB15
:102DA00091E060E00E94FA1E812F6F2D4D2D2BE0E7
:102DB0000E943D1080E066E00E94B32488E993E021
:102DC00060E00E94B72080E067E00E94B3248EEAB2
:102DD00093E060E00E94B7200BE06BC080919A0501
:102DE0008823A9F080919A05823089F080919A0514
:102DF000843069F080919A05853041F508C0809152
:102E00009A05813021F080919A058330F9F489EA9E
:102E100091E060E00E94FA1E812F6F2D4D2D2DE074
:102E20000E943D1080E066E00E94B32480EF93E0B2
:102E300060E00E94B72080E067E00E94B32486E053
:102E400094E060E00E94B7200DE033C087E991E094
:102E500060E00E94FA1E812F6F2D4D2D25E00E940B
:102E60003D1080E066E00E94B32484E492E060E0DC
:102E70000E94B72080E067E00E94B3248AE592E0D8
:102E800060E00E94B720D09291051093A005F092C7
:102E900096058091A1056091970540918E0500915E
:102EA0009605E090A005C090910520E00E94DC0905
:102EB00005E0809131058150809331058091330583
:102EC00082FD04C08091340582FFEACE1092330562
:102ED000809131058F5F809331050B3089F51F5F3D
:102EE0001D3010F011E027C01230C1F48D2D90E09C
:102EF0000E945009882331F08DE18F1518F46DE19F
:102F0000F62E19C08D2D90E00E945009882399F467
:102F10008CE18F1580F45CE1F52E0DC0143031F09A
:102F2000163021F0193011F01B3029F48EE18F1585
:102F300010F44EE1F42E812F6F2D4D2D2BE03DC06E
:102F40000C3069F5F3948FE18F1510F4FF24F3949E
:102F5000123099F48D2D90E00E945009882319F0C9
:102F60008DE18F15A8F08D2D90E00E9450098823E7
:102F700089F48CE18F1560F00DC0143031F01630FB
:102F800021F0193011F01B3029F48FE1F81611F4FB
:102F9000FF24F394812F6F2D4D2D2CE00EC00D30AA
:102FA00071F48D2D90E0019664E670E00E941A2E77
:102FB000D82E812F6F2D4D2D2DE00E943D10809138
:102FC00031058150809331058091340582FF68CEB0
:102FD00080ED97E0FE013197F1F70197D9F760CEC8
:102FE000DF91CF911F910F91FF90EF90DF90CF90E5
:102FF000BF90089526982E9A81E080936800EBE6B2
:10300000F0E080818064808382E080937C00109275
:103010007B00EAE7F0E08EE8808380818064808333
:10302000089580917A00877F80937A0080917A005A
:10303000806480937A0080917A0084FFFCCF209195
:10304000780030917900C90108951F920F920FB650
:103050000F9211242F933F934F935F936F937F931E
:103060008F939F93AF93BF93EF93FF9378940E94B6
:103070008C09FF91EF91BF91AF919F918F917F91BB
:103080006F915F914F913F912F910F900FBE0F90D5
:103090001F9018951F920F920FB60F9211242F9325
:1030A0003F934F935F936F937F938F939F93AF93D0
:1030B000BF93EF93FF93789480917800909179007B
:1030C00022E0803E920728F01092340510923205DB
:1030D000C4C022E08336920708F458C080913205BC
:1030E00082FDBBC080E29EE40197F1F780917A00F7
:1030F000877F80937A0080917A00806480937A0041
:1031000080917A0084FFFCCF8091780090917900C3
:10311000825692408E37910508F09FC082E08093DE
:10312000350527C080917A00877F80937A0080914F
:103130007A00806480937A0080917A0084FFFCCFCB
:103140008091780090917900825692408E37910557
:1031500080F0809132058B7F809332058FEF91E074
:1031600061E00E94FA1E80913305846080933305EC
:1031700074C0809135058823A9F68091320584605A
:103180008093320580913405846065C08F509140F2
:1031900098F18091320581FD26C080E29EE401977E
:1031A000F1F780917A00877F80937A0080917A008E
:1031B000806480937A0080917A0084FFFCCF8091B4
:1031C0007800909179008E5091408555914008F09B
:1031D00044C08CEF91E061E00E94FA1E80913305BB
:1031E000826080933305809132058260809332053E
:1031F0008091340582602FC08091320580FD23C00C
:1032000080E29EE40197F1F780917A00877F8093B6
:103210007A0080917A00806480937A0080917A00AD
:1032200084FFFCCF80917800909179008F5091407D
:10323000A0F489EF91E061E00E94FA1E80913305CD
:1032400081608093330580913205816080933205DF
:103250008091340581608093340580917A00886480
:1032600080937A00FF91EF91BF91AF919F918F91E1
:103270007F916F915F914F913F912F910F900FBE72
:103280000F901F90189508950895CF93DF93C82F3E
:10329000D0E0E42FF0E0E053F84F833010F42C96A8
:1032A0003197262F30E02F5F3F4F2E0F3F1FCE016B
:1032B000880F991F280F391FCF01969587959695EE
:1032C0008795280F391FCF0160E971E00E94062E13
:1032D000260F371FCF0164E670E00E94062E261BE2
:1032E000370BAE014F5F5F4FCA01880F991F840FE4
:1032F000951F880F991F6AE070E00E94062EC90191
:10330000860F971F67E070E00E94062EDF91CF9135
:103310000895DF92EF92FF920F931F93CF93DF9365
:10332000D82EF62EE22EF694F694F694EA0100E0FA
:1033300015C0FE011491802F6CE10E94FA2D292FF7
:103340002D0D802F0E94FA2D682F6F0D822F0E9465
:10335000B324812F0E945A240F5F21960E1548F343
:10336000DF91CF911F910F91FF90EF90DF90089523
:10337000CF92DF92EF92FF920F931F93CF93DF9341
:10338000C82EF62ED22EE02EF694F694F694EA018C
:1033900010E019C00881812F6CE10E94FA2D992359
:1033A00041F4812F0E94FA2D682F6F0D8C2D0E9401
:1033B000B324EE2019F0802F809501C0802F0E9449
:1033C0005A241F5F21961D1528F3DF91CF911F917D
:1033D0000F91FF90EF90DF90CF9008959F92AF9262
:1033E000BF92CF92DF92EF92FF920F931F93DF93E2
:1033F000CF93CDB7DEB7C05ED0400FB6F894DEBF36
:103400000FBECDBFC82EB62ED22EA02EDE01119635
:1034100080EEFD0111928A95E9F730E00CE1902EE3
:1034200011E0E12EF12C8D013DC0FA0184914F5F36
:103430005F4FFA01249141505040932F96959695F5
:103440009695999DB0011124932F9770AE2D01C0D0
:10345000AA0F9A95EAF7982F09C0FB01E90FF11D11
:10346000E00FF11F80818A2B80839F5F9217A8F362
:103470004E5F5F4FFA0184914F5F5F4FFA012491D5
:1034800043505040982F09C0FB01E90FF11DE00F98
:10349000F11F80818A2B80839F5F9217A8F33F5F83
:1034A0004C5F5F4F3D1508F4C0CF8C2D6B2DAE01E6
:1034B0004F5F5F4F20EE0A2D0E94B819C052DF4FB8
:1034C0000FB6F894DEBF0FBECDBFCF91DF911F9135
:1034D0000F91FF90EF90DF90CF90BF90AF909F90B3
:1034E00008950F93942F022F592F40E04D565A4FB5
:1034F00020E40E94EE190F9108952F923F924F926F
:103500005F926F927F928F929F92AF92BF92CF9273
:10351000DF92EF92FF920F931F93DF93CF93CDB77C
:10352000DEB7C35FD0400FB6F894DEBF0FBECDBF8D
:10353000C051DF4F8883C05FD040CF50DF4F6883DA
:10354000C15FD040CE50DF4F4883C25FD040CD50E6
:10355000DF4F0883C35FD040FE01399680EEDF0164
:103560001D928A95E9F7CE50DF4F9881C25FD04017
:1035700080913805482F50E0C251DF4F598348836E
:10358000CE5ED040122F00E00D561A4F722E6624E8
:10359000A5E9B5E06A0E7B1E792F60E06D567A4F83
:1035A000992E88248A0E9B1E44245524342DCE50F7
:1035B000DF4FB881C25FD040BF3F29F41C821B821D
:1035C0001A82198212C0FB01849189836F5F7F4F39
:1035D000FB0184918A83F40184918B836E5F7F4F1A
:1035E000FB018491635070408C83F981C751DF4F98
:1035F000F883C95ED04090E0FF3F09F091E08B81F5
:103600008F3F09F09F5FF80134903D820F5F1F4F9D
:10361000F80124902E82F30124912F830E5F1F4F17
:10362000F801849103501040888780E0FFEF3F123B
:1036300081E02F3F09F08F5F282F891708F4292F89
:103640004A81C651DF4F4883CA5ED04036953695D1
:1036500036959CE1399FC0011124C451DF4F9983F5
:103660008883CC5ED040C20187709070A1E0B0E04A
:1036700002C0AA0FBB1F8A95E2F7C551DF4FA8838E
:10368000CB5ED04035E0C32ED12CCC0EDD1E5E01CA
:103690000894A11CB11CE22EFF24EE0CFF1CEC0CC4
:1036A000FD1C6DC0D5012C912F3F59F4C651DF4F41
:1036B000B881CA5ED040C751DF4F2881C95ED04073
:1036C00002C0F501B181F60180818F3F19F4A22D6E
:1036D000832D02C0F601A18190E030E0821B930BA4
:1036E000C251DF4FE881F981CE5ED0408E9FA001AC
:1036F0008F9F500D9E9F500D1124405F5F4F95E0AE
:10370000569547959A95E1F7420F531F50708A2FAF
:1037100090E02B2F30E0821B930B8E9FD0018F9F68
:10372000B00D9E9FB00D1124509685E0B695A795DB
:103730008A95E1F7A20FB31FB070C451DF4FE88143
:10374000F981CC5ED040E40FF51F29E030E02C0F6A
:103750003D1FE20FF31F0AC08081C551DF4F388142
:10376000CB5ED040832B81934F5F5F4F4A175B073F
:1037700098F342E050E0C40ED51EA40EB51ECE1440
:10378000DF0409F08FCF0894411C511C0C5F1F4FC0
:1037900084E090E0680E791E6C5F7F4F880E991E62
:1037A00090E44916510409F001CFC051DF4F8881E0
:1037B000C05FD040CF50DF4F6881C15FD040AE01C5
:1037C000475F5F4F20EECD50DF4F0881C35FD04091
:1037D0000E94B819CD50DF4F0FB6F894DEBF0FBE70
:1037E000CDBFCF91DF911F910F91FF90EF90DF90B0
:1037F000CF90BF90AF909F908F907F906F905F9091
:103800004F903F902F9008950F931F93CF93DF9386
:10381000182F80912905882329F08091290583306C
:1038200009F004C19091290580914305891709F495
:1038300065C080914205882309F060C080913D05F4
:103840008093390580913E0580933A0580913F052C
:1038500080933B058091400580933C05809129052C
:10386000882329F420918E053091970504C020917A
:103870009B053091920580919005882349F4822F11
:1038800090E047966CE070E00E941A2E282F2F5F80
:10389000832F6AE00E94FA2D90934005832F0E94A7
:1038A000FA2D80933F05822F0E94FA2D80933D05CB
:1038B000822F0E94FA2D90933E05C0E0D0E01123A4
:1038C00011F4C1E0D0E080E490E064E170E043E016
:1038D00050E09E010E94B82180E490E06BE370E02C
:1038E00043E050E09E010E94B82180912905809319
:1038F0004305809142058F5F8093420580912505A5
:10390000882329F480912605882309F44AC08091F0
:103910004205882309F045C081E0809342058091EB
:10392000400580933C05809197056AE00E94FA2D3E
:103930009093400580913F0580933B0580919705CA
:103940000E94FA2D80933F0580912605882319F166
:1039500020918E0580919005882351F480918E05E9
:1039600090E047966CE070E00E941A2E282F2F5F9F
:1039700080913D058093390580913E0580933A05FD
:10398000822F6AE00E94FA2D80933D05822F0E94CB
:10399000FA2D90933E05109226058091260580937E
:1039A000250580914105811709F4E3C08091420506
:1039B000882309F0DEC060E040E820E4012F0E9487
:1039C000C820C0E0D0E0112311F4C1E0D0E080E4D1
:1039D00090E064E170E043E050E09E010E94B82175
:1039E00080E490E06BE370E043E050E09E010E94D1
:1039F000B82184E660E040914005212F0E94711AB1
:103A000085E460E040913F05212F0E94711A8FE10B
:103A100060E040913E05212F0E94711A80E060E035
:103A200040913D05212F0E94711AA3C000912905E4
:103A3000013009F05EC090912905809143058917F6
:103A400009F497C081E192E061E00E94FA1E809142
:103A50004205882309F08DC0009342058091290515
:103A60008093430580913D058093390580913E0503
:103A700080933A0580913F0580933B0580914005F6
:103A800080933C0580919A05882329F42091A00514
:103A90003091960504C0209196053091A005822FA3
:103AA0006AE00E94FA2D80933D05822F0E94FA2D34
:103AB00090933E05832F0E94FA2D80933F05832F1C
:103AC0000E94FA2D9093400580E490E064E170E05C
:103AD00043E050E0212F30E00E94B82180E490E0E4
:103AE0006BE370E043E050E0212F30E00E94B8210A
:103AF00040C0009129050230E1F59091290580919F
:103B000043058917B1F18BE092E061E00E94FA1E53
:103B100080914205882369F581E08093420586E023
:103B200092E061E00E94FA1E80912905809343058E
:103B300080913D058093390580913E0580933A053B
:103B400080913F0580933B058091400580933C0523
:103B500000933D0510923E05809191056AE00E9418
:103B6000FA2D80933F05809191050E94FA2D909344
:103B7000400540913C0520914005421729F084E61C
:103B800060E0012F0E947D1A40913B0520913F0586
:103B9000421729F085E460E0012F0E947D1A4091D0
:103BA0003A0520913E05421729F08FE160E0012F90
:103BB0000E947D1A4091390520913D05421729F058
:103BC00080E060E0012F0E947D1A909142059923C8
:103BD000E1F0809138058F5F809338058132A8F03D
:103BE000109238058091400580933C0580913F05F7
:103BF00080933B0580913E0580933A0580913D0579
:103C00008093390591509093420510934105DF91BF
:103C1000CF911F910F9108950F931F93CF93DF932F
:103C2000182F80E060E040E820E4012F0E94C820C7
:103C30001092380520918E0530919705809190055E
:103C4000882349F4822F90E047966CE070E00E9450
:103C50001A2E282F2F5F8FEF80933C0580933B0512
:103C600080933A0580933905832F6AE00E94FA2DEC
:103C700090934005832F0E94FA2D80933F05822F59
:103C80000E94FA2D90933E05822F0E94FA2D809378
:103C90003D0521C084E660E040913C05209140054F
:103CA000012F0E947D1A85E460E040913B05209140
:103CB0003F050E947D1A8FE160E040913A05209116
:103CC0003E050E947D1A80E060E040913905209118
:103CD0003D050E947D1A809138058F5F80933805DD
:103CE00081508132B8F287E192E060E00E94FA1ED2
:103CF00080913D058093390580913E0580933A057A
:103D000080913F0580933B058091400580933C0561
:103D1000C0E0D0E0112311F4C1E0D0E080E490E0F5
:103D200064E170E043E050E09E010E94B82180E42D
:103D300090E06BE370E043E050E09E010E94B82108
:103D400010923805DF91CF911F910F91089584E370
:103D500092E060E00E94FA1E80E890E00E946E1FF0
:103D600082E292E060E00E94FA1E80E490E00E940D
:103D70006E1F81E292E061E00E94FA1E0895909326
:103D8000C5008093C40088E18093C1008EE08093D9
:103D9000C200519A5098089506C090E000009F5FBD
:103DA0009E31E1F781508823C1F7089548EC50E037
:103DB00009C020E137E2FA013197F1F72150304094
:103DC000D1F781508823A9F70895982F8091C000DA
:103DD00085FFFCCF9093C60080E090E0089580912D
:103DE000C00087FFFCCF8091C60008958091C0007D
:103DF00080780895AC0120E007C08091C00085FF65
:103E0000FCCF3093C6002F5FFA01E20FF11D349111
:103E1000332399F7662371F08091C00085FFFCCFB2
:103E20008AE08093C6008091C00085FFFCCF8DE0C2
:103E30008093C6000895FC0107C08091C00085FFF3
:103E4000FCCF31969093C60090819923B1F70895E5
:103E5000282F982F92959F709A3030F48091C0004F
:103E600085FFFCCF905D05C08091C00085FFFCCF31
:103E7000995A9093C600822F90E08F7090700A97A5
:103E80003CF48091C00085FFFCCF2F70205D06C000
:103E90008091C00085FFFCCF2F70295A2093C60067
:103EA00008951F93182F892F0E94281F812F0E9489
:103EB000281F1F910895EF92FF920F931F937B018C
:103EC0008C01C801AA27BB270E94511FC7010E946D
:103ED000511F1F910F91FF90EF9008950F931F9323
:103EE000CF93DF938C01E0E1F7E240E0C0E0D0E067
:103EF000C801BF010E94062E262F662329F4442301
:103F000019F4E130F10549F48091C00085FFFCCF40
:103F1000205D2093C600205341E0CF016AE070E0AD
:103F20000E94062E2196C530D10571F0822F90E0B7
:103F30009C012E9FC0012F9F900D3E9F900D11243C
:103F4000081B190BFB01D4CFDF91CF911F910F916B
:103F500008951F93CF93DF93482F87FF08C0809168
:103F6000C00085FFFCCF8DE28093C6004195E4E65A
:103F7000F0E010E0C0E0D0E0842F992787FD909515
:103F8000BF010E94062E262F16162CF0112319F4BD
:103F9000E130F10549F48091C00085FFFCCF205D40
:103FA0002093C600205311E0CF016AE070E00E9428
:103FB000062E2196C330D10531F02E9F802D11247D
:103FC000481BFB01D9CFDF91CF911F9108954F92EC
:103FD0005F926F927F928F929F92AF92BF92CF9299
:103FE000DF92EF92FF920F931F93CF93DF934B01DA
:103FF0005C01E12C9AECF92E9AE9092F9BE3192F29
:104000004424C0E0D0E0C501B401A80197010E949A
:104010002D2ED22E222341F4442031F481E0E816E3
:10402000F1040105110561F48091C00085FFFCCF0A
:1040300080E3D80ED092C60080EDD80E442443947D
:10404000C801B7012AE030E040E050E00E942D2E88
:10405000C22E732E642E552E2196CA30D105A9F09A
:104060006D2D70E080E090E0A80197010E94DB2DAB
:10407000861A970AA80AB90A2C2D372D462D552DD8
:10408000C901DA017C018D01BECFDF91CF911F9173
:104090000F91FF90EF90DF90CF90BF90AF909F90E7
:1040A0008F907F906F905F904F90089508950F9339
:1040B0001F93CF93DF93482F30E020E006C08D5B45
:1040C0009D4FFC018491280F3F5F822F90E03417B1
:1040D000B0F3FC01ED5BFD4F0491EC01CC5BDD4FD7
:1040E00010E006C0FE0184910E945A241F5F2196B1
:1040F0001017C0F3DF91CF911F910F910895DF92B8
:10410000EF92FF920F931F93CF93DF93D62E95E0FC
:10411000899FC0011124EC01CA54DE4F8E012BEBA4
:10412000E22E21E0F22EE80EF91EDD2021F0FE0144
:104130008491809502C0F80184910E945A242196AE
:104140000F5F1F4FCE15DF0581F7DD2011F08FEFD8
:1041500001C080E00E945A2480E00E94A624DF91E2
:10416000CF911F910F91FF90EF90DF9008951F93D3
:10417000CF93DF93EC01162F04C0612F0E947F20A4
:10418000219688818823C9F7DF91CF911F910895E7
:104190002F923F924F925F926F927F928F929F9257
:1041A000AF92BF92CF92DF92EF92FF920F931F9345
:1041B000CF93DF93282E162F342EF22E402EC62FAB
:1041C000D0E0C770D070209709F45BC0562E56948B
:1041D00056945694EE2467E0C62EC1228C2C992466
:1041E00087FC90945E01A20EB11C51E0652E712CEB
:1041F00035C0DE2CD20C8D2D652D0E94B3240E947B
:104200000D240E940D24082F40E050E015C081E0ED
:10421000481641F4C30102C0880F991F2A95E2F79E
:10422000082B08C0C30102C0880F991F2A95E2F726
:10423000809508234F5F5F4F9A01280D391D2A157D
:104240003B0524F48C2D840F883009F78D2D652DC6
:104250000E94B324802F0E945A24E394E31448F26E
:104260002F2D30E088E090E08C1B9D0B8217930788
:1042700014F0FF2404C0812F87708850F80E187F37
:10428000185FE12EE694E694E694C12FD0E0CF0DBE
:10429000D11D43E0D595C7954A95E1F712C0822D0F
:1042A0006E2D0E94B32410E009C081E0481611F47D
:1042B0008FEF01C080E00E945A241F5F1315A8F3FE
:1042C000E3948E2D90E08C179D074CF32F2D2770D3
:1042D000C9F100E0C22FD0E031E0A32EB12C30C0F4
:1042E000F02EF20C8F2D6E2D0E94B3240E940D240F
:1042F0000E940D24182F20E030E017C081E04816FE
:1043000049F4C501022E02C0880F991F0A94E2F7F2
:10431000182B09C0C501022E02C0880F991F0A94EC
:10432000E2F7809518232F5F3F4F2C173D0734F39A
:104330008F2D6E2D0E94B324812F0E945A240F5F6F
:10434000031570F280E00E94A624DF91CF911F91A7
:104350000F91FF90EF90DF90CF90BF90AF909F9024
:104360008F907F906F905F904F903F902F90089527
:104370002F923F924F925F926F927F928F929F9275
:10438000AF92BF92CF92DF92EF92FF920F931F9363
:10439000DF93CF9300D00F92CDB7DEB7382E462EE5
:1043A000522E262E281AA42EBB24C501880F991F31
:1043B00022273327281B390B2D5F3F4F3B832A834E
:1043C0008824992466247724362F32193983182DAE
:1043D000D42CDA187501EE0CFF1C882D830D6D2D81
:1043E00041E02E2D052D0E94C820832D88196D2DAA
:1043F00041E02E2D0E94C820F42CF818110F89815D
:104400008A0D6F2D41E0212F0E94C8208D2D821929
:104410006F2D41E0212F0E94C8208A819B8197FF48
:1044200006C00696860D971D9B838A8311C0EA817C
:10443000FB813A96C4018A199B09880F991F880F3E
:10444000991FE80FF91FFB83EA830894A108B108BC
:104450000894811C911C24E030E0620E731EA814A5
:10446000B9040CF0B4CF0F900F900F90CF91DF9163
:104470001F910F91FF90EF90DF90CF90BF90AF9082
:104480009F908F907F906F905F904F903F902F9074
:104490000895DF92EF92FF920F931F93F82E162F3D
:1044A000D42EE22E41E001E00E94C8208F2D8150E1
:1044B0008D0D612F41E02E2D0E94C8208F2D612F80
:1044C0004D2D21E00E94C82011501E0D8F2D612F0F
:1044D0004D2D21E00E94C8201F910F91FF90EF9079
:1044E000DF900895EF92FF920F931F93F82E162FEF
:1044F000062F069506950695602F0E94B3240E940C
:104500000D240E940D24E82E8F2D602F0E94B324CD
:10451000177081E090E002C0880F991F1A95E2F7AA
:1045200080958E210E945A2480E00E94A6241F912B
:104530000F91FF90EF900895EF92FF920F931F93CA
:10454000F82E162F062F069506950695602F0E94C9
:10455000B3240E940D240E940D24E82E8F2D602F7D
:104560000E94B324177081E090E002C0880F991F69
:104570001A95E2F78E290E945A2480E00E94A62410
:104580001F910F91FF90EF9008953F924F925F928D
:104590006F927F928F929F92AF92BF92CF92DF9253
:1045A000EF92FF920F931F93CF93DF93D82EC62ED7
:1045B000322E462E481AE42EFF24C701880F991F79
:1045C000CC27DD27C81BD90B23965D2C662E762EB3
:1045D000AA24BB248824992481E0381641F50E2DA5
:1045E0000C0D8D2D602F0E949C229C2D9E19192F41
:1045F0008D2D692F0E949C22852D602F0E949C2268
:10460000852D612F0E949C220419802F662D0E9407
:104610009C22802F672D0E949C221419812F662DC9
:104620000E949C22812F672D0E949C2227C00E2D64
:104630000C0D8D2D602F0E9472228C2D8E19182F3B
:104640008D2D612F0E947222852D602F0E94722273
:10465000852D612F0E9472220419802F662D0E94E1
:104660007222802F672D0E9472221419812F662DCD
:104670000E947222812F672D0E947222D7FF04C0F0
:104680002696C80DD91D0DC02A96C5018E199F0901
:10469000880F991F880F991FC80FD91F0894E10828
:1046A000F1080894A11CB11C84E090E0880E991ECA
:1046B000D3945A9463947A94EA14FB040CF08CCF4C
:1046C000DF91CF911F910F91FF90EF90DF90CF90EE
:1046D000BF90AF909F908F907F906F905F904F9022
:1046E0003F9008952F982D982C9840985A98279A83
:1046F000259A249A389A529A8BB18F708BB985B1CA
:10470000807F85B98AB1806F8AB984B18F6084B99E
:10471000089540985A98882319F0813021F402C0F6
:10472000409A08955A9A0895F8940E9489238BB16B
:10473000806F8BB985B18F6085B92F988AB18F70E2
:104740008AB984B1807F84B92D9A2C9A0000000028
:104750000AC02C9800000000000000002C9A000005
:1047600000000000000089B193B187FDF2CF2C98C2
:104770002D988AB1806F8AB984B18F6084B978949A
:1047800008951F93162FF8940E9494232F982D9824
:104790002C9A8AB1806F8AB984B18F6084B98BB149
:1047A0008F708BB99BB1812F807F892B8BB985B19D
:1047B000807F85B985B11F70812B85B9000000000D
:1047C0000000000000000000000000002C98789419
:1047D0001F910895F8940E9494232F988AB18F70A6
:1047E0008AB984B1807F84B92D9A2C9A0000000088
:1047F00000000000000000000000000029B183B1AB
:104800002C982D989AB1906F9AB994B19F6094B9F1
:1048100078948F70207F822B0895F8948091A4055E
:1048200082958695869583700E9494232F9A8AB1EB
:104830008F708AB984B1807F84B92D9A2C9A000038
:10484000000000000000000000000000000099B11E
:1048500083B12C982D9878948F70907F892B089530
:1048600008958093A40580E060E40E94C123109223
:10487000A60581E060E40E94C1231092A805809102
:10488000A405682F6F736064829586958695837002
:104890000E94C12308951F93182F8093A505186BBC
:1048A00080E0612F0E94C12381E0612F0E94C1231B
:1048B0001F9108950F931F93182F0091A40502953F
:1048C000069506950370F894802F0E9494232F9AE2
:1048D0002D982C9A8AB1806F8AB984B18F6084B97F
:1048E0008BB18F708BB99BB1812F807F892B8BB956
:1048F00085B1807F85B985B11F70812B85B9000096
:1049000000000000000000000000000000002C98E3
:104910007894E02FF0E0EE0FFF1FEC55FA4F828104
:104920008F5F82838091A4058F5F8093A40587FFAA
:104930000AC08091A5058F5F8093A5050E944B2436
:1049400080E00E9431241F910F9108951F93182F2A
:10495000106C80E0612F0E94C12381E0612F0E94D2
:10496000C1231F9108951F93182F862F0E944B2457
:10497000812F0E9431241F9108950F931F9300E00F
:1049800080E0602F0E94B32410E080E00E945A244F
:104990001F5F1038D1F70F5F083091F71F910F910B
:1049A000089580E00E94A62480E060E00E94B32485
:1049B0001092A6051092A7051092A8051092A905BD
:1049C00008950E94722380E06FE30E94C12381E07A
:1049D0006FE30E94C1230E94BD240E94D124089548
:1049E000982F86E0689F802D1124692F0E94B324A0
:1049F00008950895459A449A10928B0510928A055D
:104A000010928D0510928C0580E28093B800ECEB3B
:104A1000F0E0808184608083109244058081816011
:104A200080838081806480837894089580E280937D
:104A3000B800089590E0611191E08E7F982B9093DB
:104A4000BA00089590938B0580938A0508959093FA
:104A50008D0580938C050895ECEBF0E080818F70DC
:104A6000806A80830895ECEBF0E080818F70806D28
:104A7000808308958091BC0087FFFCCF08958093C8
:104A8000BB00ECEBF0E080818F708068808308953C
:104A9000882329F08091BC008F70806C04C08091C5
:104AA000BC008F7080688093BC0008958091BB002B
:104AB00008958091B9000895982F80914405882326
:104AC000E1F782E0809344059E7F90934505A6E43C
:104AD000B5E0FA0102C081918D938E2F841B861759
:104AE000D0F310926605609367058091BC008F70CB
:104AF000806A8093BC000895982F80914405882394
:104B0000E1F783E08093440591609093450510920E
:104B10008805609389058091BC008F70806A8093BE
:104B2000BC00809144058823E1F7A8E6B5E0FA01CE
:104B300002C08D9181938E2F841B8617D0F3089528
:104B4000982FFA018091BC008E7F8093BC008091E9
:104B5000BC008F70806A8093BC008091BC0087FF8E
:104B6000FCCF9E7F9093BB008091BC008F708068CB
:104B70008093BC008091BC0087FFFCCF8091B9007E
:104B8000883189F091E012C080818093BB008091D0
:104B9000BC008F7080688093BC008091BC0087FF50
:104BA000FCCF31966150662379F790E08091BC008C
:104BB0008F70806D8093BC008091BC0084FFFCCF1F
:104BC0008091BC0081608093BC00892F0895982F4C
:104BD000FA018091BC008E7F8093BC008091BC0064
:104BE0008F70806A8093BC008091BC0087FFFCCFEF
:104BF00091609093BB008091BC008F70806880931F
:104C0000BC008091BC0087FFFCCF8091B90080344C
:104C100081F091E01EC08091BC008F70806C809309
:104C2000BC008091BC0087FFFCCF8091BB008193CA
:104C30006150623080F78091BC008F7080688093F3
:104C4000BC008091BC0087FFFCCF8091BB008083BB
:104C500090E08091BC008F70806D8093BC0080914B
:104C6000BC0081608093BC00892F08958091440529
:104C700008951F920F920FB60F9211242F933F9316
:104C80004F935F936F937F938F939F93AF93BF9354
:104C9000EF93FF938091B900887F883609F4CCC0E8
:104CA000893688F5803309F495C08133B0F48031BA
:104CB00009F45AC0813138F4882309F43CC18830A2
:104CC00009F046C151C0803209F484C0883209F429
:104CD00053C0883109F03CC14FC0883409F47AC010
:104CE000893438F4883309F478C0803409F030C14D
:104CF00092C0883509F45DC0803609F49DC08035C6
:104D000009F026C174C0803A09F4BCC0813AB0F4FD
:104D1000803809F49CC0813838F4803709F48CC09D
:104D2000883709F015C188C0803909F490C08839E6
:104D300009F4A2C0883809F00BC19EC0883B09F471
:104D4000CFC0893B38F4883A09F4B4C0803B09F0FD
:104D5000FFC0B0C0883C09F4DEC0883F09F4E5C05C
:104D6000803C09F0F5C0D7C083E895E060E00E9480
:104D7000FA1E8091450514C084E695E060E00E942B
:104D8000FA1E9091660580916705981708F0D8C0C3
:104D9000E92FF0E0EA5BFA4F80819F5F9093660510
:104DA0008093BB008091BC008F7080688093BC00B2
:104DB000CFC08FE495E060E00E94FA1E80918805E4
:104DC0009091BB00E82FF0E0E859FA4F90838F5F95
:104DD0008093880589E295E0B0C085E195E060E0C8
:104DE0000E94FA1E8091BC008F708068ADC081E087
:104DF00095E060E00E94FA1E8091BB0090918805CA
:104E0000E92FF0E0E859FA4F80839F5F909388057F
:104E100090E00E94511F8EEE94E060E00E94FA1E26
:104E20002091880530E08091890590E0019728174E
:104E300039070CF0B7CF6AC08BED94E060E00E94B8
:104E4000FA1E85E080934405109288055FC087ECC8
:104E500094E060E00E94FA1E809188059091BB006A
:104E6000E82FF0E0E859FA4F90838F5F8093880530
:104E7000803208F097CF4AC082EB94E060E00E9455
:104E8000FA1E90CF8FE994E060E00E94FA1E8091B4
:104E9000BC008F70806C8093BC00E0918A05F0911B
:104EA0008B05309709F452C08091880568E675E05B
:104EB00009954CC08CE894E060E00E94FA1E84E002
:104EC00080934405E0918C05F0918D05309731F089
:104ED00080E266E475E009958093670510926605A7
:104EE00088E794E060E00E94FA1E90916605E92F41
:104EF000F0E0EA5BFA4F80818093BB009F5F909364
:104F0000660580916705981708F04CCF8091BC002A
:104F10008F70806C4BCF86E594E060E00E94FA1EB3
:104F20008091BC008F70806C0FC087E494E060E0DB
:104F30000E94FA1E0DC086E394E060E00E94FA1E13
:104F40008091BC008F70806D8093BC0010924405EE
:104F5000FF91EF91BF91AF919F918F917F916F9151
:104F60005F914F913F912F910F900FBE0F901F9027
:104F70001895EF92FF920F931F937B018C0120E015
:104F800030E040E05FE40E94B92A88238CF0C80139
:104F9000B70120E030E040E05FE40E9431290E9448
:104FA000192B9B01AC01205030404040504806C0B6
:104FB000C801B7010E94192B9B01AC01B901CA01BC
:104FC0001F910F91FF90EF900895A0E0B0E0EBEEFD
:104FD000F7E20C946A2EDC012B01FA019C919230CD
:104FE00008F439C1EB018881823008F433C1943070
:104FF00069F4843009F02FC111969C911197898131
:10500000981709F428C1ACE1B4E025C1843009F453
:1050100021C18230A9F4923009F01DC19A01AD017D
:1050200088E0EA010990AE01E90109929E018150F0
:10503000C1F7E201898111969C918923818308C17E
:10504000923009F407C112962D903C901397EB0112
:105050008A819B811496AD90BD90CD90DC9017977E
:10506000EC80FD800E811F819101281B390BB90155
:1050700037FF04C066277727621B730B6032710508
:105080000CF061C0121613066CF537014801062EAC
:1050900004C096948794779467940A94D2F721E099
:1050A00030E040E050E004C0220F331F441F551F82
:1050B0006A95D2F721503040404050402E213F2188
:1050C00040235123211531054105510521F021E0EF
:1050D00030E040E050E079018A01E628F72808290D
:1050E00019293CC0232BD1F1260E371E350146016C
:1050F000062E04C096948794779467940A94D2F706
:1051000021E030E040E050E004C0220F331F441F94
:10511000551F6A95D2F721503040404050402A2117
:105120003B214C215D21211531054105510521F01F
:1051300021E030E040E050E059016A01A628B7289C
:10514000C828D9280BC0821593052CF01C01AA246D
:10515000BB24650103C0EE24FF24870111969C91B6
:10516000D20111968C91981709F445C0992339F012
:10517000A80197012A193B094C095D0906C0A6013F
:1051800095012E193F09400B510B57FD08C01182A4
:105190003382228224833583468357831DC081E076
:1051A00081833382228288279927DC01821B930B1B
:1051B000A40BB50B84839583A683B7830DC0220F00
:1051C000331F441F551F24833583468357838281B1
:1051D000938101979383828324813581468157810E
:1051E000DA01C9010197A109B1098F5F9F4FAF4F44
:1051F000BF4328F30BC0918333822282EA0CFB1C4D
:105200000C1D1D1DE482F5820683178383E08083D5
:10521000248135814681578157FF1AC0C901AA27C9
:1052200097FDA095BA2F81709070A070B0705695C0
:10523000479537952795822B932BA42BB52B8483E9
:105240009583A683B783828193810196938382831A
:10525000DF0101C0D201CD01CDB7DEB7E2E10C9490
:10526000862EA0E2B0E0E7E3F9E20C94762E6983A3
:105270007A838B839C832D833E834F835887E9E019
:10528000EE2EF12CEC0EFD1ECE010196B7010E9410
:105290000A2D8E010F5E1F4FCE010596B8010E94A8
:1052A0000A2D8A8991E089278A8BC701B801AE014E
:1052B000475E5F4F0E94E5270E94352CA096E6E0EE
:1052C0000C94922EA0E2B0E0E8E6F9E20C94762E7F
:1052D00069837A838B839C832D833E834F83588796
:1052E000F9E0EF2EF12CEC0EFD1ECE010196B70178
:1052F0000E940A2D8E010F5E1F4FCE010596B80148
:105300000E940A2DC701B801AE01475E5F4F0E949F
:10531000E5270E94352CA096E6E00C94922EA0E2A0
:10532000B0E0E5E9F9E20C946A2E69837A838B8315
:105330009C832D833E834F835887CE010196BE0107
:10534000675F7F4F0E940A2DCE010596BE016F5EFA
:105350007F4F0E940A2D9985923088F0898982308A
:10536000C8F0943019F4823051F404C0843029F428
:10537000923081F48CE194E0C6C0923049F420E090
:105380009A858A89981321E02A87CE010996BBC0A5
:10539000823049F420E09A858A89981321E02A8B8B
:1053A000CE014196B0C02D843E844F8458886D88CC
:1053B0007E888F88988CEE24FF248701AA24BB2442
:1053C000650140E050E060E070E0E0E0F0E0C10145
:1053D00081709070892BE9F0E60CF71C081D191DEF
:1053E0009A01AB012A0D3B1D4C1D5D1D80E090E034
:1053F000A0E0B0E0E614F7040805190520F481E008
:1054000090E0A0E0B0E0BA01A901480F591F6A1F5F
:105410007B1FAA0CBB1CCC1CDD1C97FE08C081E0C6
:1054200090E0A0E0B0E0A82AB92ACA2ADB2A319687
:10543000E032F10549F0660C771C881C991C5694E3
:10544000479437942794C3CFFA85EA892B893C89FE
:105450008B859C85280F391F2E5F3F4F17C0CA01CF
:1054600081709070892B61F016950795F794E794F9
:1054700080E090E0A0E0B0E8E82AF92A0A2B1B2B94
:1054800076956795579547952F5F3F4F77FDE7CF07
:105490000CC0440F551F661F771F17FD4160EE0CAF
:1054A000FF1C001F111F21503040403090E0590771
:1054B00090E0690790E4790760F32B8F3C8FDB0164
:1054C000CA018F779070A070B07080349105A105EB
:1054D000B10561F447FD0AC0E114F10401051105AD
:1054E00029F0405C5F4F6F4F7F4F40781A8EFE1758
:1054F00011F081E08A8F4D8F5E8F6F8F78A383E0EC
:10550000898FCE0149960E94352CA096E2E10C9439
:10551000862EA8E1B0E0EFE8FAE20C94762E6983DB
:105520007A838B839C832D833E834F83588789E0C6
:10553000E82EF12CEC0EFD1ECE010196B7010E9463
:105540000A2D8E010F5E1F4FCE010596B8010E94F5
:105550000A2D8985823040F08989823028F0C70180
:10556000B8010E94822D01C08FEF6896E6E00C948E
:10557000922EA8E1B0E0EFEBFAE20C94762E69836C
:105580007A838B839C832D833E834F83588789E066
:10559000E82EF12CEC0EFD1ECE010196B7010E9403
:1055A0000A2D8E010F5E1F4FCE010596B8010E9495
:1055B0000A2D8985823040F08989823028F0C70120
:1055C000B8010E94822D01C08FEF6896E6E00C942E
:1055D000922EA8E1B0E0EFEEFAE20C94762E698309
:1055E0007A838B839C832D833E834F83588789E006
:1055F000E82EF12CEC0EFD1ECE010196B7010E94A3
:105600000A2D8E010F5E1F4FCE010596B8010E9434
:105610000A2D8985823040F08989823028F0C701BF
:10562000B8010E94822D01C081E06896E6E00C94EA
:10563000922EACE0B0E0EFE1FBE20C947A2E6983AD
:105640007A838B839C83CE010196BE016B5F7F4F73
:105650000E940A2D8D81823061F1823050F18430B8
:1056600021F48E81882351F12EC02F81388537FD9A
:1056700020C06E812F3131051CF06623F9F023C064
:105680008EE190E0821B930B29853A854B855C85E2
:1056900004C056954795379527958A95D2F7662386
:1056A000B1F050954095309521953F4F4F4F5F4F4A
:1056B0000EC020E030E040E050E009C02FEF3FEFA7
:1056C0004FEF5FE704C020E030E040E050E8B90170
:1056D000CA012C96E2E00C94962EA8E0B0E0E3E735
:1056E000FBE20C94722E7B018C0161157105810522
:1056F000910519F482E0898360C083E089838EE19B
:10570000C82ED12CDC82CB82ED82FE820F831887DB
:10571000C801B7010E94E62BFC013197F7FF3BC09F
:10572000222733272E1B3F0B57016801022E04C08E
:10573000D694C794B794A7940A94D2F740E050E067
:1057400060E070E081E090E0A0E0B0E004C0880F8D
:10575000991FAA1FBB1F2A95D2F70197A109B1096A
:105760008E219F21A023B1230097A105B10521F02F
:1057700041E050E060E070E04A295B296C297D2916
:105780004D835E836F8378878EE190E08E1B9F0B45
:105790009C838B8312C0309781F00E2E04C0EE0CD8
:1057A000FF1C001F111F0A94D2F7ED82FE820F83A7
:1057B0001887CE1ADF0ADC82CB821A82CE010196CC
:1057C0000E94352C2896EAE00C948E2EEF92FF92E0
:1057D0000F931F937B018C0180E0E81680E0F806B0
:1057E00081E0080780E0180788F48FEFE816F104DD
:1057F0000105110531F028F088E090E0A0E0B0E06C
:1058000017C080E090E0A0E0B0E012C080E0E816B1
:1058100080E0F80680E0080781E0180728F088E1BA
:1058200090E0A0E0B0E004C080E190E0A0E0B0E053
:1058300020E230E040E050E0281B390B4A0B5B0BC4
:1058400004C016950795F794E7948A95D2F7F70167
:10585000EC5DFB4F8081281B310941095109C901C9
:105860001F910F91FF90EF900895DF92EF92FF92BA
:105870000F931F93FC01E480F58006811781D1808E
:105880008081823048F480E090E0A0E1B0E0E82A36
:10589000F92A0A2B1B2BA5C0843009F49FC0823043
:1058A00021F4EE24FF24870105C0E114F104010571
:1058B000110519F4E0E0F0E096C0628173819FEF7A
:1058C000623879070CF05BC022E83FEF261B370BEC
:1058D0002A3131052CF020E030E040E050E02AC0D1
:1058E000B801A701022E04C0769567955795479594
:1058F0000A94D2F781E090E0A0E0B0E004C0880F05
:10590000991FAA1FBB1F2A95D2F70197A109B109B8
:105910008E219F21A023B1230097A105B10521F07D
:1059200081E090E0A0E0B0E09A01AB01282B392B98
:105930004A2B5B2BDA01C9018F779070A070B07091
:1059400080349105A105B10539F427FF09C0205C19
:105950003F4F4F4F5F4F04C0215C3F4F4F4F5F4F52
:10596000E0E0F0E02030A0E03A07A0E04A07A0E441
:105970005A0710F0E1E0F0E079018A0127C06038B1
:10598000710564F5FB01E158FF4FD801C7018F771E
:105990009070A070B07080349105A105B10539F404
:1059A000E7FE0DC080E490E0A0E0B0E004C08FE32B
:1059B00090E0A0E0B0E0E80EF91E0A1F1B1F17FFE1
:1059C00005C016950795F794E794319687E01695EC
:1059D0000795F794E7948A95D1F705C0EE24FF2444
:1059E0008701EFEFF0E06E2F679566276795902FA0
:1059F0009F77D794DD24D7948E2F8695492F462BF9
:105A0000582F5D29B701CA011F910F91FF90EF90A8
:105A1000DF900895FC01DB01408151812281622FDA
:105A20006F7770E0221F2227221F9381892F880F12
:105A3000822B282F30E0991F9927991F11969C934C
:105A4000119721153105A9F541155105610571051C
:105A500011F482E037C082E89FEF13969C938E93F7
:105A600012979A01AB0167E0220F331F441F551FA5
:105A70006A95D1F783E08C930DC0220F331F441F2A
:105A8000551F12968D919C911397019713969C9395
:105A90008E931297203080E0380780E0480780E43A
:105AA000580758F314962D933D934D935C93179795
:105AB00008952F3F310579F44115510561057105B0
:105AC00019F484E08C93089564FF03C081E08C9303
:105AD00012C01C9210C02F57304013963C932E9347
