:100000000C940F020C942C020C942C020C94B4113E
:100010000C942C020C942C020C942C020C942C02A8
:100020000C942C020C9435050C942C020C94A10217
:100030000C942C020C942E020C9440020C942C0272
:100040000C942C020C942C020C942C020C942C0278
:100050000C942C020C940C110C942C020C942C0279
:100060000C94DF1B0C942C02FA3E1A7ADE8EF62ECC
:100070006078AE1CAA2A3ACEF30AB61E3838B86E9B
:1000800076DA6800FC60DAF266B6BEE0FEE684006E
:1000900073756E6D6F6E747565776564746875667B
:1000A0007269736174002020206A616E6665626DFA
:1000B00061726170726D61796A756E6A756C617575
:1000C000677365706F63746E6F76646563000B3E73
:1000D00041414141424242423C0006FFFFFFFFFFD7
:1000E000FF000000000000005F00000007000700A4
:1000F000147F147F14242A7F2A1223130864623683
:10010000495522500005030000001C224100004117
:10011000221C00082A1C2A0808083E080800503043
:1001200000000808080808006060000020100804AB
:10013000023E5149453E00427F40004261514946DE
:100140002141454B311814127F1027454545393C54
:100150004A4949300171090503364949493606497A
:1001600049291E00363600000056360000000814EB
:1001700022411414141414412214080002015109DC
:1001800006324979413E7E1111117E7F4949493637
:100190003E414141227F4141221C7F494949417FE3
:1001A000090901013E414151327F0808087F0041A1
:1001B0007F41002040413F017F081422417F4040A1
:1001C00040407F0204027F7F0408107F3E4141418E
:1001D0003E7F090909063E4151215E7F09192946E2
:1001E000464949493101017F01013F4040403F1FDD
:1001F0002040201F7F2018207F631408146303040D
:10020000780403615149454300007F4141020408DD
:10021000102041417F0000040201020440404040A0
:1002200040000102040020545454787F484444386C
:100230003844444420384444487F385454541808BF
:100240007E090102081454543C7F080404780044D9
:100250007D40002040443D00007F10284400417F45
:1002600040007C041804787C080404783844444432
:10027000387C14141408081414187C7C080404082E
:100280004854545420043F4440203C4040207C1CAF
:100290002040201C3C4030403C44281028440C5056
:1002A00050503C4464544C44000836410000007FE8
:1002B0000000004136080008082A1C08081C2A080B
:1002C000084932433A204255535F4552524F520D2E
:1002D0000A004932433A204E4F5F494E464F0D0ABD
:1002E000004932433A2053542D3E444154415F4E1D
:1002F00041434B206F72204C4153545F4441544161
:100300000D0A004932433A2053542D3E4441544192
:100310005F41434B0D0A004932433A2053542D3E6E
:10032000534C415F41434B0D0A004932433A20533D
:10033000522D3E53525F53544F500D0A00493243E1
:100340003A2053522D3E444154415F4E41434B0DA0
:100350000A004932433A2053522D3E444154415FF2
:1003600041434B0D0A004932433A2053522D3E532C
:100370004C415F41434B0D0A004932433A204D52F4
:100380002D3E534C415F41434B0D0A004932433AE5
:10039000204D522D3E444154415F41434B0D0A00D4
:1003A0004932433A204D542D3E4152425F4C4F5307
:1003B000540D0A004932433A204D54522D3E534CBD
:1003C000415F4E41434B206F72204D542D3E4441BE
:1003D00054415F4E41434B0D0A004932433A204D90
:1003E000522D3E444154415F4E41434B0D0A00495A
:1003F00032433A204D542D3E534C415F41434B20F4
:100400006F7220444154415F41434B0D0A00493211
:10041000433A204D2D3E53544152540D0A001124AD
:100420001FBECFEFD8E0DEBFCDBF15E0A0E0B1E04A
:10043000E2ECF8E402C005900D92A432B107D9F7BE
:1004400015E0A4E2B5E001C01D92AE39B107E1F7B5
:100450000E94AF060C945F240C9400001F920F9230
:100460000FB60F9211248F939F9388B198E089273C
:1004700088B99F918F910F900FBE0F901F90189584
:100480001F920F920FB60F9211248F939F9380911A
:100490002C0590912D05892B49F080912C05909188
:1004A0002D05019790932D0580932C058091920541
:1004B00090919305892B49F0809192059091930535
:1004C00001979093930580939205809190058823DE
:1004D00089F180912A0590912B05892B59F58091FE
:1004E000870590918805892BE1F48CE291E0909347
:1004F00088058093870580918100882379F4109284
:10050000800089E08093810083E080936F0088EE13
:1005100093E0909389008093880003C0109281003B
:10052000439880918705909188050197909388055D
:10053000809387059F918F910F900FBE0F901F9012
:1005400018951F920F920FB60F9211248F939F93BD
:1005500088B198E0892788B99F918F910F900FBE3D
:100560000F901F901895AF92BF92CF92DF92EF92AB
:10057000FF920F931F93E62E1092800029E02093A4
:10058000810023E020936F009C0140E050E060E098
:1005900079E08DE390E00E94F72330938900209367
:1005A0008800FF2400E010E0C801B7010E94152177
:1005B0005B016C0120E030E04AEF54E40E94371FF9
:1005C0007B018C0120E030E040E85FE30E94912055
:1005D00088231CF461E070E024C0C801B70120E06A
:1005E0003FEF4FE757E40E9431201816B4F4C601DC
:1005F000B50120E030E040E251E40E94371F0E9444
:10060000611D88EC90E005C0FC013197F1F7615065
:10061000704061157105C1F707C0C801B7010E949C
:10062000611DCB010197F1F71092810043981F9152
:100630000F91FF90EF90DF90CF90BF90AF90089513
:100640001E9B16C080918D05882311F110928D0597
:100650001092960510922B0510922A058091900514
:100660008823B1F01092900510928100439808956C
:1006700080918D05882361F481E080938D0510922F
:100680002B0510922A0583E0809329058093280585
:100690000895FC0183709070892B39F4CF0164E6D2
:1006A00070E00E94AE23892B49F420E030E0CF01B6
:1006B00060E971E00E94AE23892B11F421E030E063
:1006C000822F08950895482F6AE00E94A223282FC0
:1006D00030E084E0220F331F8A95E1F7842F0E94D7
:1006E000A223892F822B089588E592E090932B0511
:1006F00080932A05109281004398109291050895E5
:100700000F931F93182F062F6AE00E94A223805D8B
:10071000602F0E942416812F6AE00E94A223892F55
:10072000805D602F0E9424161F910F910895AF9253
:10073000BF92CF92DF92EF92FF920F931F93DF93BE
:10074000CF93CDB7DEB728970FB6F894DEBF0FBEB4
:10075000CDBF162FF42ED22E5E010894A11CB11C21
:1007600098E0F50111929A95E9F719820E946303C6
:100770008A83812F0E9463038B838F2D0E946303E2
:100780008C838D2D0E9463038D83802F0E946303D1
:100790008E838E2D0E9463038F838C2D0E946303B2
:1007A000888780ED68E0A5010E94451B8823D9F069
:1007B00008EC10E080EA9FE064E60E94B30288EE55
:1007C00093E0F8013197F1F70197D9F780EA9FE0BC
:1007D00064E60E94B30280E197E2F8013197F1F7F5
:1007E0000197D9F7E7CF28960FB6F894DEBF0FBE72
:1007F000CDBFCF91DF911F910F91FF90EF90DF90D0
:10080000CF90BF90AF9008950F931F93DF93CF9336
:10081000CDB7DEB729970FB6F894DEBF0FBECDBFB8
:10082000198280ED61E0AE014F5F5F4F0E94451B72
:100830008823D9F008EC10E080EA9FE064E60E948B
:10084000B30288EE93E0F8013197F1F70197D9F7F9
:1008500080EA9FE064E60E94B30280E197E2F8013B
:100860003197F1F70197D9F7E7CF80ED67E0AE0157
:100870004E5F5F4F0E948C1B8823D9F008EC10E07C
:1008800080EA9FE064E60E94B30288EE93E0F801FC
:100890003197F1F70197D9F780EA9FE064E60E946B
:1008A000B30280E197E2F8013197F1F70197D9F7A8
:1008B000E7CF7A81872F82958F7090E08770907054
:1008C0009C01A3E0220F331FAA95E1F7880F991F1F
:1008D000280F391F872F8F70820F809395054B81CA
:1008E000842F82958F7090E0877090709C01E3E078
:1008F000220F331FEA95E1F7880F991F280F391F40
:100900004F70420F40938B058C81482F42954F705A
:10091000682F6F7086FF22C082958695877090E061
:10092000817090709C01220F331F280F391F220FF6
:10093000331F220F331F842F90E081709070AC0121
:1009400003E0440F551F0A95E1F7880F991F480FE0
:10095000591F240F260F2093820511C0842F90E089
:10096000837090709C01B3E0220F331FBA95E1F7BA
:10097000880F991F280F391F620F609382054E81DF
:10098000842F82958F7090E0837090709C01F3E0CB
:10099000220F331FFA95E1F7880F991F280F391F8F
:1009A0004F70420F40938A054F81842F82958F703C
:1009B00090E0817090709C0163E0220F331F6A9574
:1009C000E1F7880F991F280F391F4F70420F40938E
:1009D00094052885822F82958F703AE0839FC0010D
:1009E00011242F70280F20938505872F8078299652
:1009F0000FB6F894DEBF0FBECDBFCF91DF911F9130
:100A00000F910895CF92EF920F930E949F1A0E9428
:100A10000404882359F080E060E04CE020E001E02D
:100A2000EE24E394B9E0CB2E0E9497030E940404C5
:100A300082E090E00E9449246CE30E94A2239093FC
:100A4000860581E090E00E94492468E10E94A2238B
:100A500090938F0587E08093B10081E080937000D0
:100A600078940F91EF90CF9008951F920F920FB648
:100A70000F921124FF920F931F932F933F934F9345
:100A80005F936F937F938F939F93AF93BF93EF93F6
:100A9000FF93A89580912E05803579F410922E054C
:100AA0001091950500918B05F09082050E94040439
:100AB000809182058F1529F40AC08F5F80932E05DF
:100AC000E3C081E080932605F0928C0507C08091F9
:100AD0008B05801731F081E0809325050093830515
:100AE00009C080919505811729F081E08093270541
:100AF0001093970580919505811709F43FC0809167
:100B00009005882359F080912A0590912B05009734
:100B100029F0019790932B0580932A058091280551
:100B2000882361F180912805815080932805809168
:100B30002805882319F5809129058093370510929F
:100B4000290580912605882329F080918C058093C2
:100B5000820504C080912505882321F080918305BA
:100B600080938B0580912605882321F480912505AB
:100B7000882321F0F092820500938B0580919105E6
:100B8000843061F080919105853041F0809191052C
:100B9000883021F080919105863089F5809131056A
:100BA000882369F584E462E00E94581A80918205E6
:100BB00060E00E945F088AE360E00E942416809152
:100BC0008B0560E00E9480038AE360E00E942416A7
:100BD0008091950560E00E948003809184058823C0
:100BE00071F480E260E00E942416809182058C30CE
:100BF00010F080E501C081E460E00E94241680913D
:100C00008D05882399F080919505882379F490913A
:100C10008B0580918605981749F490918205809103
:100C20008F05981719F481E080939605809125052A
:100C3000882369F480912605882349F480919605DC
:100C4000882329F081E08093900510929605809189
:100C50002F05863039F410922F05809135058823B1
:100C600029F409C08F5F80932F050EC08091350550
:100C700081508093350580913005882329F080913B
:100C80003005815080933005FF91EF91BF91AF9176
:100C90009F918F917F916F915F914F913F912F9194
:100CA0001F910F91FF900F900FBE0F901F901895FE
:100CB000EF92FF920F931F93F82E162FE42E21E050
:100CC00001E00E946D16FE0C0F2D02501150802F76
:100CD000612F0E9441181E5F802F612F0E944118D2
:100CE00001501350802F612F0E9441181C5F802FEC
:100CF000612F0E9441181F910F91FF90EF9008956E
:100D000080E090E00E944924833C41F181E090E042
:100D100068E00E94512482E090E060E00E9451244B
:100D200083E090E060E10E94512484E090E061E083
:100D30000E94512485E090E060E00E94512486E00A
:100D400090E060E00E94512487E090E06AE00E9419
:100D5000512480E090E063EC0E94512408957F923A
:100D60008F929F92AF92BF92CF92DF92EF92FF92BB
:100D70000F931F93CF93DF9384B714BE88E10FB610
:100D8000F89480936000109260000FBE8AE190E0BA
:100D90000E9463143B9A0E9402050E94800685E02F
:100DA00090E00E94492480938E0586E090E00E94A6
:100DB0004924809384050E94E1100E94200382E070
:100DC00084BD83E085BD8DE787BD80916E00826024
:100DD00080936E00539A80E28093B0008091B000BF
:100DE00083608093B0008091B10088608093B100EF
:100DF00080E18093B30083E090E00E9449248093D7
:100E0000B400259A80EA9FE064E60E94B3022FE0D6
:100E100088E190E00FB6F894A895809360000FBE2B
:100E2000209360000E94861A0E94621A0E94D911C3
:100E300080E00E94051300E010E0CBE4D0E068E51C
:100E4000A62E62E0B62E56E0952E43E0F42E32E058
:100E5000732ECC24C39425E0D22E94E0E92E88E0B2
:100E6000882ED0939305C0939205809133058823F3
:100E700079F080919005882359F010923305B09253
:100E80002B05A0922A05109281004398109291059B
:100E9000113051F480912805882331F5D09229052D
:100EA000F092280514E020C0123039F48091280512
:100EB0008823D1F4C092290514C0133051F48091D5
:100EC0002805882389F4709229051093280510E0DD
:100ED0000BC0143049F480912805882329F490929E
:100EE0002905F092280513E080913305867039F1C9
:100EF0001092330580918E05882321F080918E0514
:100F0000813021F4C092290513E017C080918E052D
:100F1000823021F080918E05833021F4E092290502
:100F200012E00BC080918E05843021F4D092290507
:100F300014E003C0E092290511E0F09228058091A9
:100F4000330580FF42C0109233051092290510929C
:100F5000280580919105843089F0853028F4882314
:100F600041F0833009F511C08530A1F08830E1F4FB
:100F700016C0E09291050E948D0C1DC0F092910563
:100F80000E94EE0A1092000116C0D09291050E94B4
:100F9000240F11C0809291050E948D0D0CC090927B
:100FA00091050E94540E07C0109291050E94621A8A
:100FB00080E00E94051380919105882329F40E9406
:100FC000621A80E00E94051310E00E94DA118091FD
:100FD0009105882341F5002369F4809190058823C9
:100FE00069F08091950580FF09C081E00E9405139A
:100FF00001E019C080919005882351F080919005FF
:10100000882359F0002349F08091950580FD05C0A3
:1010100080E00E94051300E006C02D9A802F90E02A
:101020000E9417132D988091920590919305892B1A
:10103000D1F717CF0F931F93CF93DF93182F062F5E
:1010400080918405882371F584E761E00E94581A35
:101050001C3010F080E501C081E460E00E9424169D
:101060008DE460E00E94241680E561E00E94581A39
:10107000812F90E047966CE070E00E94C223EC0163
:101080008930910524F09C012F5F822F10C080E2EF
:1010900060E00E9424169E012F5C822F602F0E9428
:1010A000241608C080E561E00E94581A812F602F45
:1010B0000E948003DF91CF911F910F9108950F93AC
:1010C0001F93CF93DF93082F162F809184058823D9
:1010D000D1F4802F90E047966CE070E00E94C2232C
:1010E000EC018930910524F09C012F5F822F14C000
:1010F00080E260E00E9424169E012F5C822F612F07
:101100000E9424160CC080E260E00E94241680E257
:1011100060E00E942416802F612F0E948003DF91DF
:10112000CF911F910F9108951F93182F88E064E0CD
:101130000E94581A81E091E060E00E945C16809164
:101140008E05882339F480918405882319F48AE078
:1011500091E078C080918E05882339F480918405D0
:10116000813019F487E191E06DC080918E05813066
:1011700039F480918405882319F484E291E062C0F7
:1011800080918E05813039F480918405813019F485
:1011900081E391E057C080918E05823039F48091CF
:1011A0008405882319F48EE391E04CC080918E056C
:1011B000823039F480918405813019F48BE491E018
:1011C00041C080918E05833039F480918405882355
:1011D00019F488E591E036C080918E05833039F4AA
:1011E00080918405813019F485E691E02BC08091CF
:1011F0008E05843039F480918405882319F482E7C0
:1012000091E020C080918E05843039F4809184056E
:10121000813019F48FE791E015C080918E058530FB
:1012200039F480918405882319F48CE891E00AC090
:1012300080918E05853049F480918405813029F4B0
:1012400089E991E0612F0E945C161F910895282F73
:10125000663081F1673078F4633019F1643030F42E
:101260006130C9F0623009F03FC018C06430E1F06D
:101270006530D1F51CC0693031F16A3028F467302F
:10128000E1F0683089F51CC06B3019F16B30F0F07B
:101290006C3051F524C086EA91E01DC08AEA91E0E5
:1012A0001AC08EEA91E017C082EB91E014C086EB81
:1012B00091E011C08AEB91E00EC08EEB91E00BC083
:1012C00082EC91E008C086EC91E005C08AEC91E0E8
:1012D00002C08EEC91E0622F0E945C16089582EDB0
:1012E00091E0622F0E945C1608951F93182F862F9D
:1012F000642F422F0E94DB118330B9F0843028F430
:10130000813069F0823070F407C08530A1F08530FB
:1013100078F08630C1F412C086ED91E011C08BEDFB
:1013200091E00EC080EE91E00BC085EE91E008C028
:101330008AEE91E005C08FEE91E002C084EF91E06B
:10134000612F0E945C161F910895EF92FF920F93F8
:101350001F93182F062FE42EF22E88E063E00E94E0
:10136000581A89EF91E060E00E945C1680918E052A
:10137000882331F48FEF91E060E00E945C1618C082
:1013800080918E05813031F48FEF91E060E00E9412
:101390005C162FC080918E058230E9F480E260E017
:1013A0000E94241680E0612F402F2E2D0E94750987
:1013B00060E08BE0F81609F461E0812F0E94800361
:1013C0008FE260E00E94241660E09CE0F91609F4C8
:1013D00061E0802F20C080918E05833001F580E28E
:1013E00060E00E94241680E0612F402F2E2D0E9485
:1013F000750960E08CE0F81609F461E0802F0E9426
:1014000080038FE260E00E94241660E09BE0F91602
:1014100009F461E0812F0E9480038FE23EC0809139
:101420008E058430F9F485E092E060E00E945C165D
:1014300080E09BE0F91609F481E0612F0E94270902
:1014400080E260E00E94241660E08CE0F81609F467
:1014500061E0802F0E9480038CE260E00E942416ED
:1014600080E21BC080E0612F402F2E2D0E94750965
:1014700080E09BE0F91609F481E0612F0E942709C2
:1014800080E260E00E94241660E08CE0F81609F427
:1014900061E0802F0E9480038CE260E00E942416AD
:1014A00010E09DE0F91609F411E084E1612F0E943B
:1014B00080038E2D612F0E9480031F910F91FF905A
:1014C000EF900895809131058F5F809331050E94E0
:1014D000621A80E060E00E94581A89E092E060E0C1
:1014E0000E945C1688E061E00E94581A8CE192E04C
:1014F00060E00E945C1680918F0560E00E941A08EF
:101500008AE360E00E9424168091860560E00E94D4
:10151000800388E062E00E94581A89E292E060E06D
:101520000E945C168091820560E00E945F088AE359
:1015300060E00E94241680918B0560E00E94800389
:101540008AE360E00E9424168091950560E00E9485
:10155000800380918405882371F480E260E00E941A
:101560002416809182058C3010F080E501C081E462
:1015700060E00E9424168091940560918A05409154
:10158000850525E00E94A50980E090E00E9494086E
:1015900088E065E00E94581A84E392E060E00E94CF
:1015A0005C168091B40060E00E94800380E066E0F9
:1015B0000E94581A84E492E060E00E945C1680E089
:1015C00067E00E94581A8AE592E060E00E945C168B
:1015D000809131058150809331050895BF92CF925B
:1015E000DF92EF92FF920F931F93CF93DF931091AF
:1015F0008205D0908B05F09095050E94620A80913B
:1016000031058F5F8093310580E063E147E00E9400
:101610005806809131058150809331058AE080938E
:10162000300503E08AE0B82EC8ECD0E080913305A5
:1016300080FD69C180913305882321F480913405B0
:10164000882319F0B092300507C0809130058823B7
:1016500019F41092910557C18091330581FFDAC0CA
:1016600010923305809131058F5F809331050330EF
:1016700081F584E462E00E94581A812F61E00E94A3
:101680005F0884E762E00E94581A809184058823ED
:1016900061F480E260E00E9424161C3010F080E5C6
:1016A00001C081E461E00E94241680E066E00E94AF
:1016B000581A8BE692E060E00E945C1680E067E0DA
:1016C0000E94581A81E892E060E00E945C1605E6EC
:1016D0009CC00536C1F584E462E00E94581A812F4F
:1016E00060E00E945F088AE360E00E9424168D2D6E
:1016F00061E00E94800380E066E00E94581A87E95A
:1017000092E060E00E945C1680E067E00E94581A58
:101710008DEA92E060E00E945C1684E762E00E943D
:10172000581A80918405882361F480E260E00E9469
:1017300024161C3010F080E501C081E460E00E94B6
:10174000241606E662C0063651F58091840588238A
:1017500011F486E501C082E662E00E94581A8D2DE0
:1017600060E00E9480038AE360E00E9424168F2DCF
:1017700061E00E94800380E066E00E94581A83ECDA
:1017800092E060E00E945C1680E067E00E94581AD8
:1017900089ED92E060E00E945C1607E636C0809119
:1017A0008405882311F488E601C084E762E00E9482
:1017B000581A8F2D60E00E94800380E066E00E944E
:1017C000581A84E492E060E00E945C1680E067E0D2
:1017D0000E94581A8AE592E060E00E945C1610931D
:1017E0008205D0928B05F0929505809195056091C8
:1017F0008B054091820500918A05E0909405C09088
:10180000850520E00E94970303E080913105815017
:10181000809331058091330582FD04C080913405A9
:1018200082FF04CF10923305809131058F5F809342
:101830003105053649F5812F90E0019668E170E0A9
:101840000E94C223182F8093820584E462E00E94E4
:10185000581A812F61E00E945F0884E762E00E94CD
:10186000581A809184058823E9F580E260E00E949F
:101870002416809182058C3010F080E501C081E44F
:1018800061E00E9424162EC00636A1F48D2D90E052
:1018900001966CE370E00E94C223D82E80918405EB
:1018A000882311F486E501C082E662E00E94581A9E
:1018B0008D2D15C00736B1F48F2D90E001966CE3A5
:1018C00070E00E94C223F82E80918405882311F4D1
:1018D00088E601C084E762E00E94581A8F2D61E01B
:1018E0000E94800380913105815080933105809161
:1018F000340582FF9BCE80ED97E0FE013197F1F732
:101900000197D9F793CEDF91CF911F910F91FF905F
:10191000EF90DF90CF90BF9008950F931F93CF93D8
:10192000DF930E94620A809131058F5F80933105B9
:1019300080E06BE047E00E945806809131058150BD
:10194000809331058AE08093300514E00AE0C8EC0A
:10195000D0E08091330580FDDBC080913305882382
:1019600021F480913405882319F00093300507C0D5
:1019700080913005882319F410929105C9C0809197
:10198000330581FF74C010923305809131058F5F5C
:10199000809331051430C9F480918F0561E00E9475
:1019A0001A0880E066E00E94581A8BE692E060E038
:1019B0000E945C1680E067E00E94581A81E892E07D
:1019C00060E00E945C1615E64DC0153631F580E5E5
:1019D00061E00E94581A80918F0560E00E941A0809
:1019E00082E661E00E94581A8091860561E00E94BB
:1019F000800380E066E00E94581A87E992E060E088
:101A00000E945C1680E067E00E94581A8DEA92E01E
:101A100060E00E945C1616E625C080E561E00E9449
:101A2000581A80918F0560E00E941A0882E661E0F2
:101A30000E94581A8091860560E00E94800380E031
:101A400066E00E94581A84E492E060E00E945C160E
:101A500080E067E00E94581A8AE592E060E00E9408
:101A60005C1614E08091310581508093310580919E
:101A7000330582FD04C08091340582FF6ACF109245
:101A80003305809131058F5F809331051536A1F4C0
:101A900080918F0590E0019668E170E00E94C2237A
:101AA00080938F0580918F0561E00E941A086091F4
:101AB0008F0581E090E019C01636C9F48091860543
:101AC00090E001966CE370E00E94C223809386054B
:101AD00082E661E00E94581A8091860561E00E94CA
:101AE00080036091860582E090E00E9451248091FD
:101AF00031058150809331058091340582FF29CFD3
:101B000080ED97E0FE013197F1F70197D9F721CFEA
:101B1000DF91CF911F910F9108950F931F930E9412
:101B2000620A809131058F5F8093310580E063E226
:101B300047E00E945806809131058150809331051D
:101B40008AE08093300518E00AE08091330580FD3B
:101B5000A8C080913305882321F48091340588231F
:101B600019F00093300507C080913005882319F4DF
:101B70001092910596C08091330581FF3BC0109271
:101B80003305809131058F5F809331051830B9F4AA
:101B900081E00E94940880E066E00E94581A8FEE6F
:101BA00092E060E00E945C1680E067E00E94581AB4
:101BB00085E093E060E00E945C1618E616C080E0C5
:101BC0000E94940880E066E00E94581A84E492E043
:101BD00060E00E945C1680E067E00E94581A8BE18A
:101BE00093E060E00E945C1618E08091310581501E
:101BF000809331058091330582FD04C080913405C6
:101C000082FFA3CF10923305183609F09ECF809142
:101C10008405882359F080918E058F5F80938E050F
:101C200080918E05863010F010928E05809184058B
:101C300090E0882309F491E0909384058091310528
:101C40008F5F809331050E94620A80E066E00E9407
:101C5000581A8FEE92E060E00E945C1680E067E028
:101C60000E94581A85E093E060E00E945C1680E0D4
:101C700063E247E00E94580681E00E949408809148
:101C8000310581508093310560918E0585E090E0AB
:101C90000E9451246091840586E090E00E945124C6
:101CA00054CF1F910F9108950F931F930E94620AC2
:101CB000809131058F5F8093310580E066E00E945E
:101CC000581A81E393E060E00E945C1680E06BE2CA
:101CD00047E00E945806809131058150809331057C
:101CE0008AE08093300516E00AE08091330580FD9C
:101CF000A8C080913305882321F48091340588237E
:101D000019F00093300507C080913005882319F43D
:101D10001092910596C08091330581FF47C01092C3
:101D20003305809131058F5F809331051630E9F4DA
:101D300082E665E00E94581A8091B40061E00E943A
:101D4000800380E066E00E94581A87E493E060E038
:101D50000E945C1680E067E00E94581A8CE593E0D0
:101D600060E00E945C1619E61CC082E665E00E94F5
:101D7000581A8091B40060E00E94800380E066E021
:101D80000E94581A81E793E060E00E945C1680E0B0
:101D900067E00E94581A84E893E060E00E945C16B5
:101DA00016E0809131058150809331058091330593
:101DB00082FD04C08091340582FF97CF10923305D5
:101DC000193609F092CF8091B4008F5F8093B400F0
:101DD0008091B400813110F01092B40080913105EF
:101DE0008F5F809331050E94620A80E066E00E9466
:101DF000581A8FEE92E060E00E945C1680E067E087
:101E00000E94581A85E093E060E00E945C1680E032
:101E10006BE247E00E94580682E665E00E94581A8D
:101E20008091B40061E00E9480038091310581506F
:101E3000809331056091B40083E090E00E945124CA
:101E400054CF1F910F910895BF92CF92DF92EF92DE
:101E5000FF920F931F93CF93DF93F0908A05109119
:101E60009405D09085050E94620A809131058F5FAC
:101E70008093310580E06BE147E00E945806809135
:101E800031058150809331058AE08093300505E06B
:101E90004AE0B42EC8ECD0E08091330580FD87C1C4
:101EA00080913305882321F480913405882319F02B
:101EB000B092300507C080913005882319F4109244
:101EC000910575C18091330581FFDFC01092330504
:101ED000809131058F5F809331050530F1F4809159
:101EE0008E05882309F451C080918E05823009F453
:101EF0004CC080918E05843009F447C080918E05D6
:101F0000853009F442C080918E058130C9F08091FE
:101F10008E05833009F086C013C00B3059F58091CF
:101F20008E05882369F080918E05823049F080917A
:101F30008E05843029F080918E05853009F050C0DF
:101F4000812F6F2D4D2D2CE00E94A50980E066E0C9
:101F50000E94581A84EC93E060E00E945C1680E0D6
:101F600067E00E94581A8AED93E060E00E945C16D8
:101F70000CE086C00C3009F055C080918E05813090
:101F800021F080918E058330D1F4812F6F2D4D2D5E
:101F90002BE00E94A50980E066E00E94581A88E9BB
:101FA00093E060E00E945C1680E067E00E94581AAF
:101FB0008EEA93E060E00E945C160BE061C08091C5
:101FC0008E058823A9F080918E05823089F080915A
:101FD0008E05843069F080918E05853019F508C032
:101FE00080918E05813021F080918E058330D1F46F
:101FF000812F6F2D4D2D2DE00E94A50980E066E018
:102000000E94581A80EF93E060E00E945C1680E026
:1020100067E00E94581A86E094E060E00E945C1637
:102020000DE02EC0812F6F2D4D2D25E00E94A509BA
:1020300080E066E00E94581A84E492E060E00E942A
:102040005C1680E067E00E94581A8AE592E060E042
:102050000E945C16D092850510939405F0928A0533
:102060008091950560918B054091820500918A05CC
:10207000E0909405C090850520E00E94970305E05C
:10208000809131058150809331058091330582FD27
:1020900004C08091340582FFFFCE109233058091F9
:1020A00031058F5F809331050B3089F51F5F1D303F
:1020B00010F011E027C01230C1F48D2D90E00E9485
:1020C0004903882331F08DE18F1518F43DE1F32E9B
:1020D00019C08D2D90E00E944903882399F48CE16A
:1020E0008F1580F42CE1F22E0DC0143031F0163033
:1020F00021F0193011F01B3029F48EE18F1510F406
:102100009EE1F92E812F6F2D4D2D2BE03DC00C301F
:1021100069F5F3948FE18F1510F4FF24F3941230D6
:1021200099F48D2D90E00E944903882319F08DE1E8
:102130008F15A8F08D2D90E00E944903882389F423
:102140008CE18F1560F00DC0143031F0163021F0A5
:10215000193011F01B3029F48FE1F81611F4FF2427
:10216000F394812F6F2D4D2D2CE00EC00D3071F4A6
:102170008D2D90E0019664E670E00E94C223D82E77
:10218000812F6F2D4D2D2DE00E94A50980913105E5
:102190008150809331058091340582FF7DCE80EDA2
:1021A00097E0FE013197F1F70197D9F775CEDF91EE
:1021B000CF911F910F91FF90EF90DF90CF90BF9044
:1021C000089526982E9A81E080936800EBE6F0E06F
:1021D00080818064808382E080937C0010927B0009
:1021E000EAE7F0E08EE88083808180648083089550
:1021F00080917A00877F80937A0080917A00806452
:1022000080937A0080917A0084FFFCCF209178003F
:1022100030917900C90108951F920F920FB60F9265
:1022200011242F933F934F935F936F937F938F93DB
:102230009F93AF93BF93EF93FF937894809178002F
:102240009091790022E0803E920728F010923405A8
:102250001092320573C022E08336920798F1809184
:10226000320582FD6BC080E29EE40197F1F70E9487
:10227000F810825692408E37910508F05FC082E0D8
:102280008093350512C00E94F810825692408E3716
:10229000910558F0809132058B7F809332058091B3
:1022A000330584608093330549C0809135058823C8
:1022B00051F7809132058460809332058091340516
:1022C00084603AC08F509140E8F08091320581FDE2
:1022D00010C080E29EE40197F1F70E94F8108E5042
:1022E00091408555914050F58091330582608093EF
:1022F00033058091320582608093320580913405E8
:1023000082601AC08091320580FD0EC080E29EE49A
:102310000197F1F70E94F8108F50914078F4809166
:10232000330581608093330580913205816080930D
:1023300032058091340581608093340580917A0064
:10234000886480937A00FF91EF91BF91AF919F9144
:102350008F917F916F915F914F913F912F910F904E
:102360000FBE0F901F9018951F920F920FB60F92ED
:1023700011242F933F934F935F936F937F938F938A
:102380009F93AF93BF93EF93FF9378940E942003A2
:10239000FF91EF91BF91AF919F918F917F916F913D
:1023A0005F914F913F912F910F900FBE0F901F9013
:1023B000189508950895CF93DF93C82FD0E0E42FA8
:1023C000F0E0E053F84F833010F42C963197262F2D
:1023D00030E02F5F3F4F2E0F3F1FCE01880F991F18
:1023E000280F391FCF019695879596958795280FC9
:1023F000391FCF0160E971E00E94AE23260F371F1D
:10240000CF0164E670E00E94AE23261B370BAE01BD
:102410004F5F5F4FCA01880F991F840F951F880F68
:10242000991F6AE070E00E94AE23C901860F971FD2
:1024300067E070E00E94AE23DF91CF910895DF92B4
:10244000EF92FF920F931F93D82EE62E10E04423B5
:1024500009F411E08D2D8E5F6E2D4EE026E0012FE8
:102460000E946D16FE2CF3948D2D8F5F6F2D41E031
:1024700024E00E946D1682E0E80E8D2D6E2D41E065
:1024800022E00E946D168D2D805F6F2D41E024E0CB
:102490000E946D168D2D8F5E6E2D41E022E00E9410
:1024A0006D161F910F91FF90EF90DF900895DF92CE
:1024B000EF92FF920F931F93D82E162FEE244423F2
:1024C00011F4EE24E394612F6E5F8D2D46E025E13B
:1024D0000E2D0E946D16FD2CF394612F6F5F8F2DD2
:1024E00044E021E00E946D1682E0D80E8D2D612F10
:1024F00042E021E00E946D16195E8F2D612F44E0AD
:1025000021E00E946D161F5F8D2D612F42E021E0BA
:102510000E946D161F910F91FF90EF90DF9008952C
:102520008436D1F0853638F4823681F0833680F4F3
:10253000813641F507C08636C1F08636A0F0873671
:1025400009F51AC0862F8C5F642F09C04B5F01C04C
:102550004E5D862F8C5E0BC0862F8C5F6AE3422F08
:102560000E941F1208954E5D01C04B5F862F642F9D
:10257000422F0E9457120895862F8C5F6DE1422FE3
:102580000E941F120895CF92DF92EF92FF920F9355
:102590001F93CF93DF93C82ED62E022FC7E0D0E033
:1025A00011E6E42EFF24C7010C2E02C095958795F5
:1025B0000A94E2F780FF05C0812F6C2D4D2D202F4E
:1025C00007C020E0002309F421E0812F6C2D4D2D60
:1025D0000E94901221971F5F183629F7DF91CF9143
:1025E0001F910F91FF90EF90DF90CF900895E42F0F
:1025F000F0E04A3020F4EC57FF4F449103C0E95F0C
:10260000FF4F44910E94C31208950F93082F80E05A
:1026100060E040E820E40E946D160F91089520E0EC
:10262000442309F421E044E00E945D1708950F93CC
:102630001F93CF93DF93809129058230F1F480E0DE
:1026400060E042E020E00E94F7128EE160E040E0AE
:1026500020E00E94F7128091850564E60E94A22383
:10266000892F6AE00E94A223482F88E460E020E0DE
:102670000E94F71280918505B3C0809129058130B1
:1026800069F580918E05882329F4109194050091B5
:102690008A0504C010918A0500919405812F6AE093
:1026A0000E94A223482F80E060E020E00E94F71201
:1026B000812F6AE00E94A2238EE160E0492F20E092
:1026C0000E94F712802F6AE00E94A223482F88E41C
:1026D00060E020E00E94F712802F82C080912905DF
:1026E000843071F58091940560918A05409185054B
:1026F0000E94DB11182F80E060E040E020E00E94A3
:10270000C31283E0189FE0011124FE01E057FF4F40
:10271000E4918EE160E04E2F20E00E94F712FE016E
:10272000EF56FF4FE49188E460E04E2F20E00E94D6
:10273000F712CE56DF4FFE01449186E660E056C0A8
:1027400080912905853079F580E060E040E020E067
:102750000E94C312E091940513E0E19FF00111245F
:10276000EA55FF4FE4918EE160E04E2F20E00E9499
:10277000F712E0919405E19FF0011124E955FF4F14
:10278000E49188E460E04E2F20E00E94F712E0918F
:102790009405E19FF0011124E855FF4FE49186E68E
:1027A00060E04E2F23C080912905863019F580E026
:1027B00060E040E020E00E94C3128EE160E040E073
:1027C00020E00E94C31280918A056AE00E94A22341
:1027D000482F88E460E020E00E94F71280918A058B
:1027E0006AE00E94A22386E660E0492F20E00E9472
:1027F000F71258C080912905882329F08091290576
:10280000833009F05BC080912905833029F4109151
:102810008F050091860504C01091820500918B05FB
:102820001A3048F0812F6AE00E94A223482F80E0EE
:1028300060E020E004C080E060E048E021E00E9429
:10284000F712812F6AE00E94A2238EE160E0492FF7
:1028500020E00E94F712802F6AE00E94A223482FF6
:1028600088E460E020E00E94F712802F6AE00E9476
:10287000A22386E660E0492F20E00E94F7128091B3
:102880002705882379F08091950580FF0BC080E4AF
:1028900065E144E021E00E945D1780E46AE244E0E3
:1028A00021E00AC080E465E144E020E00E945D1779
:1028B00080E46AE244E020E00E945D17DF91CF915E
:1028C0001F910F9108959093C5008093C40088E1F3
:1028D0008093C1008EE08093C200519A5098089571
:1028E00006C090E000009F5F9E31E1F78150882391
:1028F000C1F7089548EC50E009C020E137E2FA0141
:102900003197F1F721503040D1F781508823A9F752
:102910000895982F8091C00085FFFCCF9093C6004A
:1029200080E090E008958091C00087FFFCCF809107
:10293000C60008958091C00080780895AC0120E021
:1029400007C08091C00085FFFCCF3093C6002F5F89
:10295000FA01E20FF11D3491332399F7662371F0E8
:102960008091C00085FFFCCF8AE08093C6008091F3
:10297000C00085FFFCCF8DE08093C6000895FC0168
:1029800007C08091C00085FFFCCF31969093C600B0
:1029900090819923B1F70895282F982F92959F70D1
:1029A0009A3030F48091C00085FFFCCF905D05C067
:1029B0008091C00085FFFCCF995A9093C600822F6A
:1029C00090E08F7090700A973CF48091C00085FF72
:1029D000FCCF2F70205D06C08091C00085FFFCCF2A
:1029E0002F70295A2093C60008951F93182F892FFE
:1029F0000E94CC14812F0E94CC141F910895EF9255
:102A0000FF920F931F937B018C01C801AA27BB275C
:102A10000E94F514C7010E94F5141F910F91FF90B9
:102A2000EF9008950F931F93CF93DF938C01E0E114
:102A3000F7E240E0C0E0D0E0C801BF010E94AE2351
:102A4000262F662329F4442319F4E130F10549F4D3
:102A50008091C00085FFFCCF205D2093C6002053ED
:102A600041E0CF016AE070E00E94AE232196C530BC
:102A7000D10571F0822F90E09C012E9FC0012F9F05
:102A8000900D3E9F900D1124081B190BFB01D4CF14
:102A9000DF91CF911F910F9108951F93CF93DF93F3
:102AA000482F87FF08C08091C00085FFFCCF8DE2D2
:102AB0008093C6004195E4E6F0E010E0C0E0D0E08D
:102AC000842F992787FD9095BF010E94AE23262F62
:102AD00016162CF0112319F4E130F10549F4809118
:102AE000C00085FFFCCF205D2093C600205311E07D
:102AF000CF016AE070E00E94AE232196C330D10579
:102B000031F02E9F802D1124481BFB01D9CFDF917E
:102B1000CF911F9108954F925F926F927F928F9203
:102B20009F92AF92BF92CF92DF92EF92FF920F935C
:102B30001F93CF93DF934B015C01E12C9AECF92EAC
:102B40009AE9092F9BE3192F4424C0E0D0E0C50186
:102B5000B401A80197010E94D523D22E222341F46B
:102B6000442031F481E0E816F1040105110561F417
:102B70008091C00085FFFCCF80E3D80ED092C600C4
:102B800080EDD80E44244394C801B7012AE030E018
:102B900040E050E00E94D523C22E732E642E552EA5
:102BA0002196CA30D105A9F06D2D70E080E090E04B
:102BB000A80197010E948323861A970AA80AB90AD6
:102BC0002C2D372D462D552DC901DA017C018D01A3
:102BD000BECFDF91CF911F910F91FF90EF90DF90CB
:102BE000CF90BF90AF909F908F907F906F905F90AD
:102BF0004F90089508950F931F93CF93DF93482F1D
:102C000030E020E007C082539F4FFC0184918F5F2A
:102C1000280F3F5F822F90E03417A8F3FC01E253A6
:102C2000FF4F0491EC01C153DF4F10E006C0FE01DD
:102C300084910E94FF191F5F21961017C0F3DF9146
:102C4000CF911F910F910895DF92EF92FF920F9312
:102C50001F93CF93DF93D62E95E0899FC001112457
:102C6000EC01CF5BDF4F8E0126E4E22E20E0F22E56
:102C7000E80EF91EDD2021F0FE018491809502C04E
:102C8000F80184910E94FF1921960F5F1F4FCE1506
:102C9000DF0581F7DD2011F08FEF01C080E00E9499
:102CA000FF1980E00E944B1ADF91CF911F910F9185
:102CB000FF90EF90DF9008951F93CF93DF93EC0187
:102CC000162F04C0612F0E94241621968881882324
:102CD000C9F7DF91CF911F9108952F923F924F92A4
:102CE0005F926F927F928F929F92AF92BF92CF929C
:102CF000DF92EF92FF920F931F93CF93DF93282ED3
:102D0000162F342EF22E402EC62FD0E0C770D07072
:102D1000209709F45BC0562E569456945694EE2490
:102D200067E0C62EC1228C2C992487FC90945E010A
:102D3000A20EB11C51E0652E712C35C0DE2CD20CD8
:102D40008D2D652D0E94581A0E94B2190E94B21949
:102D5000082F40E050E015C081E0481641F4C3015F
:102D600002C0880F991F2A95E2F7082B08C0C301FB
:102D700002C0880F991F2A95E2F7809508234F5FBC
:102D80005F4F9A01280D391D2A153B0524F48C2D1F
:102D9000840F883009F78D2D652D0E94581A802FD9
:102DA0000E94FF19E394E31448F22F2D30E088E0ED
:102DB00090E08C1B9D0B8217930714F0FF2404C036
:102DC000812F87708850F80E187F185FE12EE694E7
:102DD000E694E694C12FD0E0CF0DD11D43E0D59508
:102DE000C7954A95E1F712C0822D6E2D0E94581AA0
:102DF00010E009C081E0481611F48FEF01C080E0B7
:102E00000E94FF191F5F1315A8F3E3948E2D90E025
:102E10008C179D074CF32F2D2770C9F100E0C22FAE
:102E2000D0E031E0A32EB12C30C0F02EF20C8F2D6B
:102E30006E2D0E94581A0E94B2190E94B219182FC2
:102E400020E030E017C081E0481649F4C501022EA9
:102E500002C0880F991F0A94E2F7182B09C0C50118
:102E6000022E02C0880F991F0A94E2F7809518235A
:102E70002F5F3F4F2C173D0734F38F2D6E2D0E948F
:102E8000581A812F0E94FF190F5F031570F280E01E
:102E90000E944B1ADF91CF911F910F91FF90EF90FD
:102EA000DF90CF90BF90AF909F908F907F906F906A
:102EB0005F904F903F902F9008952F923F924F92A6
:102EC0005F926F927F928F929F92AF92BF92CF92BA
:102ED000DF92EF92FF920F931F93DF93CF9300D077
:102EE0000F92CDB7DEB7382E462E522E262E281A38
:102EF000A42EBB24C501880F991F22273327281B26
:102F0000390B2D5F3F4F3B832A8388249924662405
:102F10007724362F32193983182DD42CDA187501FD
:102F2000EE0CFF1C882D830D6D2D41E02E2D052DFF
:102F30000E946D16832D88196D2D41E02E2D0E9463
:102F40006D16F42CF818110F89818A0D6F2D41E050
:102F5000212F0E946D168D2D82196F2D41E0212F9A
:102F60000E946D168A819B8197FF06C00696860D8A
:102F7000971D9B838A8311C0EA81FB813A96C40125
:102F80008A199B09880F991F880F991FE80FF91F4D
:102F9000FB83EA830894A108B1080894811C911C62
:102FA00024E030E0620E731EA814B9040CF0B4CF14
:102FB0000F900F900F90CF91DF911F910F91FF9085
:102FC000EF90DF90CF90BF90AF909F908F907F90C9
:102FD0006F905F904F903F902F900895DF92EF9207
:102FE000FF920F931F93F82E162FD42EE22E41E05E
:102FF00001E00E946D168F2D81508D0D612F41E0F3
:103000002E2D0E946D168F2D612F4D2D21E00E94D7
:103010006D1611501E0D8F2D612F4D2D21E00E9438
:103020006D161F910F91FF90EF90DF900895EF9232
:10303000FF920F931F93F82E162F062F06950695D5
:103040000695602F0E94581A0E94B2190E94B21968
:10305000E82E8F2D602F0E94581A177081E090E0A3
:1030600002C0880F991F1A95E2F780958E210E9461
:10307000FF1980E00E944B1A1F910F91FF90EF9073
:103080000895EF92FF920F931F93F82E162F062F9D
:10309000069506950695602F0E94581A0E94B2194F
:1030A0000E94B219E82E8F2D602F0E94581A1770B7
:1030B00081E090E002C0880F991F1A95E2F78E29EF
:1030C0000E94FF1980E00E944B1A1F910F91FF9000
:1030D000EF9008953F924F925F926F927F928F92FE
:1030E0009F92AF92BF92CF92DF92EF92FF920F9397
:1030F0001F93CF93DF93D82EC62E322E462E481A1A
:10310000E42EFF24C701880F991FCC27DD27C81B99
:10311000D90B23965D2C662E762EAA24BB248824F8
:10312000992481E0381641F50E2D0C0D8D2D602F60
:103130000E9441189C2D9E19192F8D2D692F0E94D8
:103140004118852D602F0E944118852D612F0E9406
:1031500041180419802F662D0E944118802F672D79
:103160000E9441181419812F662D0E944118812F49
:10317000672D0E94411827C00E2D0C0D8D2D602F3C
:103180000E9417188C2D8E19182F8D2D612F0E94DB
:103190001718852D602F0E941718852D612F0E940A
:1031A00017180419802F662D0E941718802F672D7D
:1031B0000E9417181419812F662D0E941718812F4D
:1031C000672D0E941718D7FF04C02696C80DD91D79
:1031D0000DC02A96C5018E199F09880F991F880F67
:1031E000991FC80FD91F0894E108F1080894A11C81
:1031F000B11C84E090E0880E991ED3945A94639495
:103200007A94EA14FB040CF08CCFDF91CF911F91DC
:103210000F91FF90EF90DF90CF90BF90AF909F9075
:103220008F907F906F905F904F903F9008952F9870
:103230002D982C9840985A98279A259A249A389A2B
:10324000529A8BB18F708BB985B1807F85B98AB165
:10325000806F8AB984B18F6084B9089540985A9874
:10326000882319F0813021F402C0409A08955A9AB7
:103270000895F8940E942E198BB1806F8BB985B197
:103280008F6085B92F988AB18F708AB984B1807F99
:1032900084B92D9A2C9A000000000AC02C980000D6
:1032A0000000000000002C9A000000000000000058
:1032B00089B193B187FDF2CF2C982D988AB1806F98
:1032C0008AB984B18F6084B9789408951F93162FBA
:1032D000F8940E9439192F982D982C9A8AB1806FF2
:1032E0008AB984B18F6084B98BB18F708BB99BB16F
:1032F000812F807F892B8BB985B1807F85B985B17E
:103300001F70812B85B90000000000000000000044
:103310000000000000002C9878941F910895F89404
:103320000E9439192F988AB18F708AB984B1807F31
:1033300084B92D9A2C9A00000000000000000000C3
:1033400000000000000029B183B12C982D989AB19B
:10335000906F9AB994B19F6094B978948F70207FE0
:10336000822B0895F894809198058295869586958C
:1033700083700E9439192F9A8AB18F708AB984B1EB
:10338000807F84B92D9A2C9A000000000000000074
:10339000000000000000000099B183B12C982D9826
:1033A00078948F70907F892B089508958093980565
:1033B00080E060E40E94661910929A0581E060E462
:1033C0000E94661910929C0580919805682F6F7372
:1033D000606482958695869583700E94661908952B
:1033E0001F93182F80939905186B80E0612F0E941E
:1033F000661981E0612F0E9466191F9108950F934D
:103400001F93182F00919805029506950695037055
:10341000F894802F0E9439192F9A2D982C9A8AB1EE
:10342000806F8AB984B18F6084B98BB18F708BB98A
:103430009BB1812F807F892B8BB985B1807F85B926
:1034400085B11F70812B85B90000000000000000CD
:1034500000000000000000002C987894E02FF0E0BD
:10346000EE0FFF1FE656FA4F80818F5F80838091B9
:1034700098058F5F8093980587FF0AC08091990512
:103480008F5F809399050E94F01980E00E94D61901
:103490001F910F9108951F93182F106C80E0612FDA
:1034A0000E94661981E0612F0E9466191F9108959C
:1034B0001F93182F862F0E94F019812F0E94D61972
:1034C0001F9108950F931F9300E080E0602F0E94EA
:1034D000581A10E080E00E94FF191F5F1038D1F7E2
:1034E0000F5F083091F71F910F91089580E00E94BF
:1034F0004B1A80E060E00E94581A10929A051092D0
:103500009B0510929C0510929D0508950E94171925
:1035100080E06FE30E94661981E06FE30E94661904
:103520000E94621A0E94761A0895982F86E0689F7A
:10353000802D1124692F0E94581A08950895459AE4
:10354000449A10927F0510927E0510928105109288
:10355000800580E28093B800ECEBF0E0808184602D
:1035600080831092380580818160808380818064AF
:1035700080837894089580E28093B800089590E065
:10358000611191E08E7F982B9093BA0008959093EB
:103590007F0580937E050895909381058093800533
:1035A0000895ECEBF0E080818F70806A808308954D
:1035B000ECEBF0E080818F70806D808308958091C6
:1035C000BC0087FFFCCF08958093BB00ECEBF0E0DC
:1035D00080818F70806880830895882329F080918E
:1035E000BC008F70806C04C08091BC008F708068BC
:1035F0008093BC0008958091BB0008958091B9002C
:103600000895982F809138058823E1F782E0809310
:1036100038059E7F90933905AAE3B5E0FA0102C010
:1036200081918D938E2F841B8617D0F310925A05AB
:1036300060935B058091BC008F70806A8093BC00B2
:103640000895982F809138058823E1F783E08093CF
:10365000380591609093390510927C0560937D0543
:103660008091BC008F70806A8093BC008091380587
:103670008823E1F7ACE5B5E0FA0102C08D918193B2
:103680008E2F841B8617D0F30895982FFA0180910E
:10369000BC008E7F8093BC008091BC008F70806ADC
:1036A0008093BC008091BC0087FFFCCF9E7F9093ED
:1036B000BB008091BC008F7080688093BC008091BB
:1036C000BC0087FFFCCF8091B900883189F091E080
:1036D00012C080818093BB008091BC008F70806895
:1036E0008093BC008091BC0087FFFCCF3196615075
:1036F000662379F790E08091BC008F70806D809395
:10370000BC008091BC0084FFFCCF8091BC00816034
:103710008093BC00892F08951F93CF93DF93982F38
:10372000162FEA018091BC008E7F8093BC008091AF
:10373000BC008F70806A8093BC008091BC0087FFC2
:10374000FCCF91609093BB008091BC008F7080682B
:103750008093BC008091BC0087FFFCCF8091B900B2
:10376000803469F091E018C08FEF0E94ED1A8091CB
:10377000BC0087FFFCCF8091BB00899311501230B1
:1037800098F780E00E94ED1A8091BC0087FFFCCF83
:103790008091BB00888390E08091BC008F70806D29
:1037A0008093BC008091BC0081608093BC00892F15
:1037B000DF91CF911F9108958091380508951F9250
:1037C0000F920FB60F9211242F933F934F935F9355
:1037D0006F937F938F939F93AF93BF93EF93FF93D9
:1037E0008091B900887F883609F4CBC0893688F586
:1037F000803309F495C08133B0F4803109F45AC0A4
:10380000813138F4882309F43EC1883009F048C179
:1038100051C0803209F484C0883209F453C0883121
:1038200009F03EC14FC0883409F47AC0893438F4B5
:10383000883309F478C0803409F032C192C08835E9
:1038400009F45DC0803609F49CC0803509F028C1B8
:1038500074C0803A09F4BEC0813AB0F4803809F4EB
:103860009BC0813838F4803709F48BC0883709F061
:1038700017C187C0803909F48FC0883909F4A1C005
:10388000883809F00DC19DC0883B09F4D1C0893B3F
:1038900038F4883A09F4B6C0803B09F001C1B2C0DF
:1038A000883C09F4E0C0883F09F4E7C0803C09F097
:1038B000F7C0D9C08EE094E060E00E949E14809131
:1038C000390514C08FEE93E060E00E949E14909141
:1038D0005A0580915B05981708F0DAC0E92FF0E0EF
:1038E000E65CFA4F80819F5F90935A058093BB00FE
:1038F0008091BC008F7080688093BC00D1C08AED3D
:1039000093E060E00E949E1480917C059091BB0042
:10391000E82FF0E0E45AFA4F90838F5F80937C05A4
:1039200084EB93E0B2C080EA93E060E00E949E14D2
:103930008091BC008F708068AFC08CE893E060E03D
:103940000E949E148091BB0090917C05E92FF0E0CD
:10395000E45AFA4F80839F5F90937C0590E00E9429
:10396000F51489E793E060E00E949E1420917C05A5
:1039700030E080917D0590E001972817390734F5F4
:103980001EC086E693E060E00E949E1485E080936E
:10399000380510927C0562C082E593E060E00E94E9
:1039A0009E1480917C059091BB00E82FF0E0E45AD2
:1039B000FA4F90838F5F80937C05803238F48FEFCD
:1039C00006C08DE393E060E00E949E1480E00E94B8
:1039D000ED1A66C08AE293E060E00E949E14809136
:1039E000BC008F70806C8093BC00E0917E05F091EC
:1039F0007F05309709F452C080917C056CE575E035
:103A000009954CC087E193E060E00E949E1484E039
:103A100080933805E0918005F0918105309731F071
:103A200080E26AE375E0099580935B0510925A0580
:103A300083E093E060E00E949E1490915A05E92F84
:103A4000F0E0E65CFA4F80818093BB009F5F90932B
:103A50005A0580915B05981708F04ACF8091BC0009
:103A60008F70806C49CF81EE92E060E00E949E14DE
:103A70008091BC008F70806C0FC082ED92E060E09E
:103A80000E949E140DC081EC92E060E00E949E14A2
:103A90008091BC008F70806D8093BC0010923805BF
:103AA000FF91EF91BF91AF919F918F917F916F9116
:103AB0005F914F913F912F910F900FBE0F901F90EC
:103AC0001895EF92FF920F931F937B018C0120E0DA
:103AD00030E040E05FE40E94612088238CF0C80160
:103AE000B70120E030E040E05FE40E94D91E0E9470
:103AF000C1209B01AC01205030404040504806C0DE
:103B0000C801B7010E94C1209B01AC01B901CA01E3
:103B10001F910F91FF90EF900895A0E0B0E0E3E9CE
:103B2000FDE10C941224DC012B01FA019C919230EE
:103B300008F439C1EB018881823008F433C1943034
:103B400069F4843009F02FC111969C9111978981F5
:103B5000981709F428C1ACE1B4E025C1843009F418
:103B600021C18230A9F4923009F01DC19A01AD0142
:103B700088E0EA010990AE01E90109929E018150B5
:103B8000C1F7E201898111969C918923818308C143
:103B9000923009F407C112962D903C901397EB01D7
:103BA0008A819B811496AD90BD90CD90DC90179743
:103BB000EC80FD800E811F819101281B390BB9011A
:103BC00037FF04C066277727621B730B60327105CD
:103BD0000CF061C0121613066CF537014801062E71
:103BE00004C096948794779467940A94D2F721E05E
:103BF00030E040E050E004C0220F331F441F551F47
:103C00006A95D2F721503040404050402E213F214C
:103C100040235123211531054105510521F021E0B3
:103C200030E040E050E079018A01E628F7280829D1
:103C300019293CC0232BD1F1260E371E3501460130
:103C4000062E04C096948794779467940A94D2F7CA
:103C500021E030E040E050E004C0220F331F441F59
:103C6000551F6A95D2F721503040404050402A21DC
:103C70003B214C215D21211531054105510521F0E4
:103C800021E030E040E050E059016A01A628B72861
:103C9000C828D9280BC0821593052CF01C01AA2432
:103CA000BB24650103C0EE24FF24870111969C917B
:103CB000D20111968C91981709F445C0992339F0D7
:103CC000A80197012A193B094C095D0906C0A60104
:103CD00095012E193F09400B510B57FD08C0118269
:103CE0003382228224833583468357831DC081E03B
:103CF00081833382228288279927DC01821B930BE0
:103D0000A40BB50B84839583A683B7830DC0220FC4
:103D1000331F441F551F2483358346835783828175
:103D200093810197938382832481358146815781D2
:103D3000DA01C9010197A109B1098F5F9F4FAF4F08
:103D4000BF4328F30BC0918333822282EA0CFB1C11
:103D50000C1D1D1DE482F5820683178383E080839A
:103D6000248135814681578157FF1AC0C901AA278E
:103D700097FDA095BA2F81709070A070B070569585
:103D8000479537952795822B932BA42BB52B8483AE
:103D90009583A683B78382819381019693838283DF
:103DA000DF0101C0D201CD01CDB7DEB7E2E10C9455
:103DB0002E24A0E2B0E0EFEDFEE10C941E24698316
:103DC0007A838B839C832D833E834F835887E9E0DE
:103DD000EE2EF12CEC0EFD1ECE010196B7010E94D5
:103DE000B2228E010F5E1F4FCE010596B8010E94D0
:103DF000B2228A8991E089278A8BC701B801AE0176
:103E0000475E5F4F0E948D1D0E94DD21A096E6E077
:103E10000C943A24A0E2B0E0E0E1FFE10C941E240F
:103E200069837A838B839C832D833E834F8358875A
:103E3000F9E0EF2EF12CEC0EFD1ECE010196B7013C
:103E40000E94B2228E010F5E1F4FCE010596B8016F
:103E50000E94B222C701B801AE01475E5F4F0E94C7
:103E60008D1D0E94DD21A096E6E00C943A24A0E28C
:103E7000B0E0EDE3FFE10C94122469837A838B8335
:103E80009C832D833E834F835887CE010196BE01CC
:103E9000675F7F4F0E94B222CE010596BE016F5E22
:103EA0007F4F0E94B2229985923088F089898230B2
:103EB000C8F0943019F4823051F404C0843029F4ED
:103EC000923081F48CE194E0C6C0923049F420E055
:103ED0009A858A89981321E02A87CE010996BBC06A
:103EE000823049F420E09A858A89981321E02A8B50
:103EF000CE014196B0C02D843E844F8458886D8891
:103F00007E888F88988CEE24FF248701AA24BB2406
:103F1000650140E050E060E070E0E0E0F0E0C10109
:103F200081709070892BE9F0E60CF71C081D191DB3
:103F30009A01AB012A0D3B1D4C1D5D1D80E090E0F8
:103F4000A0E0B0E0E614F7040805190520F481E0CC
:103F500090E0A0E0B0E0BA01A901480F591F6A1F24
:103F60007B1FAA0CBB1CCC1CDD1C97FE08C081E08B
:103F700090E0A0E0B0E0A82AB92ACA2ADB2A31964C
:103F8000E032F10549F0660C771C881C991C5694A8
:103F9000479437942794C3CFFA85EA892B893C89C3
:103FA0008B859C85280F391F2E5F3F4F17C0CA0194
:103FB00081709070892B61F016950795F794E794BE
:103FC00080E090E0A0E0B0E8E82AF92A0A2B1B2B59
:103FD00076956795579547952F5F3F4F77FDE7CFCC
:103FE0000CC0440F551F661F771F17FD4160EE0C74
:103FF000FF1C001F111F21503040403090E0590736
:1040000090E0690790E4790760F32B8F3C8FDB0128
:10401000CA018F779070A070B07080349105A105AF
:10402000B10561F447FD0AC0E114F1040105110571
:1040300029F0405C5F4F6F4F7F4F40781A8EFE171C
:1040400011F081E08A8F4D8F5E8F6F8F78A383E0B0
:10405000898FCE0149960E94DD21A096E2E10C9461
:104060002E24A8E1B0E0E7E3F0E20C941E2469837B
:104070007A838B839C832D833E834F83588789E08B
:10408000E82EF12CEC0EFD1ECE010196B7010E9428
:10409000B2228E010F5E1F4FCE010596B8010E941D
:1040A000B2228985823040F08989823028F0C701A8
:1040B000B8010E942A2301C08FEF6896E6E00C94B5
:1040C0003A24A8E1B0E0E7E6F0E20C941E2469830C
:1040D0007A838B839C832D833E834F83588789E02B
:1040E000E82EF12CEC0EFD1ECE010196B7010E94C8
:1040F000B2228E010F5E1F4FCE010596B8010E94BD
:10410000B2228985823040F08989823028F0C70147
:10411000B8010E942A2301C08FEF6896E6E00C9454
:104120003A24A8E1B0E0E7E9F0E20C941E246983A8
:104130007A838B839C832D833E834F83588789E0CA
:10414000E82EF12CEC0EFD1ECE010196B7010E9467
:10415000B2228E010F5E1F4FCE010596B8010E945C
:10416000B2228985823040F08989823028F0C701E7
:10417000B8010E942A2301C081E06896E6E00C9411
:104180003A24ACE0B0E0E7ECF0E20C94222469833E
:104190007A838B839C83CE010196BE016B5F7F4F38
:1041A0000E94B2228D81823061F1823050F18430E0
:1041B00021F48E81882351F12EC02F81388537FD5F
:1041C00020C06E812F3131051CF06623F9F023C029
:1041D0008EE190E0821B930B29853A854B855C85A7
:1041E00004C056954795379527958A95D2F766234B
:1041F000B1F050954095309521953F4F4F4F5F4F0F
:104200000EC020E030E040E050E009C02FEF3FEF6B
:104210004FEF5FE704C020E030E040E050E8B90134
:10422000CA012C96E2E00C943E24A8E0B0E0EBE159
:10423000F1E20C941A247B018C0161157105810552
:10424000910519F482E0898360C083E089838EE15F
:10425000C82ED12CDC82CB82ED82FE820F831887A0
:10426000C801B7010E948E21FC013197F7FF3BC0C6
:10427000222733272E1B3F0B57016801022E04C053
:10428000D694C794B794A7940A94D2F740E050E02C
:1042900060E070E081E090E0A0E0B0E004C0880F52
:1042A000991FAA1FBB1F2A95D2F70197A109B1092F
:1042B0008E219F21A023B1230097A105B10521F0F4
:1042C00041E050E060E070E04A295B296C297D29DB
:1042D0004D835E836F8378878EE190E08E1B9F0B0A
:1042E0009C838B8312C0309781F00E2E04C0EE0C9D
:1042F000FF1C001F111F0A94D2F7ED82FE820F836C
:104300001887CE1ADF0ADC82CB821A82CE01019690
:104310000E94DD212896EAE00C943624EF92FF9269
:104320000F931F937B018C0180E0E81680E0F80674
:1043300081E0080780E0180788F48FEFE816F104A1
:104340000105110531F028F088E090E0A0E0B0E030
:1043500017C080E090E0A0E0B0E012C080E0E81676
:1043600080E0F80680E0080781E0180728F088E17F
:1043700090E0A0E0B0E004C080E190E0A0E0B0E018
:1043800020E230E040E050E0281B390B4A0B5B0B89
:1043900004C016950795F794E7948A95D2F7F7012C
:1043A000EC5DFB4F8081281B310941095109C9018E
:1043B0001F910F91FF90EF900895DF92EF92FF927F
:1043C0000F931F93FC01E480F58006811781D18053
:1043D0008081823048F480E090E0A0E1B0E0E82AFB
:1043E000F92A0A2B1B2BA5C0843009F49FC0823008
:1043F00021F4EE24FF24870105C0E114F104010536
:10440000110519F4E0E0F0E096C0628173819FEF3E
:10441000623879070CF05BC022E83FEF261B370BB0
:104420002A3131052CF020E030E040E050E02AC095
:10443000B801A701022E04C0769567955795479558
:104440000A94D2F781E090E0A0E0B0E004C0880FC9
:10445000991FAA1FBB1F2A95D2F70197A109B1097D
:104460008E219F21A023B1230097A105B10521F042
:1044700081E090E0A0E0B0E09A01AB01282B392B5D
:104480004A2B5B2BDA01C9018F779070A070B07056
:1044900080349105A105B10539F427FF09C0205CDE
:1044A0003F4F4F4F5F4F04C0215C3F4F4F4F5F4F17
:1044B000E0E0F0E02030A0E03A07A0E04A07A0E406
:1044C0005A0710F0E1E0F0E079018A0127C0603876
:1044D000710564F5FB01E158FF4FD801C7018F77E3
:1044E0009070A070B07080349105A105B10539F4C9
:1044F000E7FE0DC080E490E0A0E0B0E004C08FE3F0
:1045000090E0A0E0B0E0E80EF91E0A1F1B1F17FFA5
:1045100005C016950795F794E794319687E01695B0
:104520000795F794E7948A95D1F705C0EE24FF2408
:104530008701EFEFF0E06E2F679566276795902F64
:104540009F77D794DD24D7948E2F8695492F462BBD
:10455000582F5D29B701CA011F910F91FF90EF906D
:10456000DF900895FC01DB01408151812281622F9F
:104570006F7770E0221F2227221F9381892F880FD7
:10458000822B282F30E0991F9927991F11969C9311
:10459000119721153105A9F54115510561057105E1
:1045A00011F482E037C082E89FEF13969C938E93BC
:1045B00012979A01AB0167E0220F331F441F551F6A
:1045C0006A95D1F783E08C930DC0220F331F441FEF
:1045D000551F12968D919C911397019713969C935A
:1045E0008E931297203080E0380780E0480780E4FF
:1045F000580758F314962D933D934D935C9317975A
:1046000008952F3F310579F4411551056105710574
:1046100019F484E08C93089564FF03C081E08C93C7
:1046200012C01C9210C02F57304013963C932E930B
:10463000129783E08C9387E0440F551F661F771F06
:104640008A95D1F7706414964D935D936D937C9326
:10465000179708951F93DC01FB019C91923008F499
:1046600047C08081823008F443C0943051F41196E1
:104670001C91843099F58181682F70E0611B71096C
:104680003FC0843021F0923031F48230B9F1818121
:10469000882389F12DC011961C9111978230F1F079
:1046A00081811817D9F412962D913C91139782812C
:1046B00093818217930794F028173907BCF014965A
:1046C0008D919D910D90BC91A02D248135814681C5
:1046D0005781281739074A075B0718F4112341F05F
:1046E0000AC082179307A407B50740F4112319F0F5
:1046F00061E070E005C06FEF7FEF02C060E070E046
:10470000CB011F910895629FD001739FF001829F9A
:10471000E00DF11D649FE00DF11D929FF00D839F50
:10472000F00D749FF00D659FF00D9927729FB00DED
:10473000E11DF91F639FB00DE11DF91FBD01CF0100
:1047400011240895991B79E004C0991F961708F069
:10475000961B881F7A95C9F780950895AA1BBB1BE5
:1047600051E107C0AA1FBB1FA617B70710F0A61B71
:10477000B70B881F991F5A95A9F780959095BC0192
:10478000CD01089597FB092E07260AD077FD04D0A6
:10479000E5DF06D000201AF4709561957F4F0895EB
:1047A000F6F7909581959F4F0895A1E21A2EAA1BC6
:1047B000BB1BFD010DC0AA1FBB1FEE1FFF1FA217D1
:1047C000B307E407F50720F0A21BB30BE40BF50BCE
:1047D000661F771F881F991F1A9469F76095709557
:1047E000809590959B01AC01BD01CF01089597FB89
:1047F000092E05260ED057FD04D0D7DF0AD0001CA5
:1048000038F450954095309521953F4F4F4F5F4F6D
:104810000895F6F790958095709561957F4F8F4F2D
:104820009F4F08952F923F924F925F926F927F9287
:104830008F929F92AF92BF92CF92DF92EF92FF92B0
:104840000F931F93CF93DF93CDB7DEB7CA1BDB0B5C
:104850000FB6F894DEBF0FBECDBF09942A88398801
:1048600048885F846E847D848C849B84AA84B98408
:10487000C884DF80EE80FD800C811B81AA81B98114
:10488000CE0FD11D0FB6F894DEBF0FBECDBFED0128
:104890000895F999FECF92BD81BDF89A992780B508
:1048A0000895262FF999FECF1FBA92BD81BD20BD74
:1048B0000FB6F894FA9AF99A0FBE01960895F894F3
:0248C000FFCF28
:1048C20001526567696F6E3A200020202020205532
:1048D200532031326872002020202020555320328C
:1048E2003468720020202020204555203132687221
:1048F20000202020202045552032346872002055A7
:1049020053203132687220444F57002055532032D1
:1049120034687220444F5700204555203132687266
:1049220020444F5700204555203234687220444FAE
:10493200570020202031326872204C4F4E47002011
:10494200202032346872204C4F4E470031326820AA
:104952004C4F4E4720444F5700323468204C4F4E44
:104962004720444F57004A616E00466562004D6120
:104972007200417072004D6179004A756E004A758D
:104982006C0041756700536570004F6374004E6F91
:1049920076004465630053756E20004D6F6E2000F3
:1049A20054756520005765642000546875200046E0
:1049B200726920005361742000446174653A0020DA
:1049C200202020200020202000436F6E666967753A
:1049D200726174696F6E204D656E75005365742047
:1049E200416C61726D3A2020005365742054696DE8
:1049F200653A2000536574204261636B6C69676895
:104A0200743A20005072657373204D454E552074E0
:104A12006F20616476616E63650050726573732006
:104A220053455420746F207365740050726573731C
:104A3200202B20746F206368616E67652068722E78
:104A42000050726573732053455420746F20736550
:104A52007420686F7572005072657373202B207416
:104A62006F206368616E6765206D696E00507265C4
:104A720073732053455420746F20736574206D69DD
:104A82006E73005072657373202B20746F206368FD
:104A9200616E67652073656300507265737320539E
:104AA200455420746F2073657420736563730050DE
:104AB20072657373202B20746F206368616E676563
:104AC20020202020005072657373205345542074B7
:104AD2006F20736176652020202000507265737309
:104AE2002053455420746F207365742020202020A9
:104AF200005072657373204D454E5520746F2065CA
:104B0200786974202020005072657373202B207402
:104B12006F206368616E67652020200050726573A4
:104B2200732053455420746F2073617665202020D2
:104B3200005072657373204D454E5520746F206589
:104B42007869740050726573732053455420746FF2
:104B520020736574202020005072657373202B200F
:104B6200746F206368616E6765206D6F6E005072AE
:104B72006573732053455420746F20736574206DE0
:104B82006F6E2E005072657373202B20746F20633A
:104B920068616E6765206461790050726573732085
:104BA20053455420746F20736574206461746500EA
:104BB2005072657373202B20746F206368616E6777
:104BC200652079722E00507265737320534554200C
:104BD200746F2073657420796561720000000000B3
:104BE20000000000000102020303030304040404A2
:104BF2000404040405050505050505050505050567
:104C02000505050506060606060606060606060646
:104C12000606060606060606060606060606060632
:104C22000606060607070707070707070707070716
:104C32000707070707070707070707070707070702
:104C420007070707070707070707070707070707F2
:104C520007070707070707070707070707070707E2
:104C620007070707080808080808080808080808C6
:104C720008080808080808080808080808080808B2
:104C820008080808080808080808080808080808A2
:104C92000808080808080808080808080808080892
:104CA2000808080808080808080808080808080882
:104CB2000808080808080808080808080808080872
:104CC2000808080808080808080808080808080862
:104CD2000808080808080808080808080808080852
:044CE20008080808AE
:00000001FF
