:100000000C94CA070C94E7070C94E7070C94DF16CE
:100010000C94E7070C94E7070C94E7070C94E707A8
:100020000C94E7070C945F0B0C94E7070C94FB0708
:100030000C94E7070C94E9070C940D080C94E7075F
:100040000C94E7070C94E7070C94E7070C94E70778
:100050000C94E7070C9404170C94E7070C94E7073B
:100060000C9480240C94E707736E6F6F7A65000020
:100070000A0D7265616420007568206F682C20523B
:10008000544320776173206F66662C206C6574730F
:100090002072657365742069742100414C41524D92
:1000A00020474F494E472121212100414C41524DCB
:1000B0002054524950504544212121002A2A2A2AFD
:1000C000002A2A2A2A20000052656164696E67208E
:1000D00069326320646174613A2000005265616492
:1000E000696E672069326320646174613A2000613F
:1000F0006C61726D206F6E00616C61726D206F6655
:1001000066006100627574746F6E732100636C6FBA
:10011000636B21005241545420436C6F636B006445
:100120006F6E652073657474696E672074696D65A0
:10013000005365742074696D6520736563005365B1
:10014000742074696D65206D696E00536574207448
:10015000696D6520686F75720053657420616C610C
:10016000726D206D696E0053657420616C61726DF3
:1001700020686F75720053657474696E67207265CC
:1001800067696F6E0053657474696E67206261639E
:100190006B6C6967687400646F6E65207365747456
:1001A000696E6720646174650053657420796561C8
:1001B00072005365742064617465206D6F6E74689D
:1001C000005365742064617465206461790053652F
:1001D000742064617465206D6F6E7468005365747B
:1001E0002064617465206D6F6E746800646973705B
:1001F0006C6179206D656E7500623100623200625B
:10020000330093059306647261770079656172210A
:1002100000646174652100646F6E6520696E6974A5
:1002200000000A0D73637265656E20686569676812
:10023000743A200073637265656E20776964746830
:100240003A20000B3E41414141424242423C0006BD
:10025000FFFFFFFFFFFF000000000000005F000045
:100260000007000700147F147F14242A7F2A12231A
:100270001308646236495522500005030000001C33
:100280002241000041221C00082A1C2A0808083EBE
:1002900008080050300000080808080800606000E6
:1002A0000020100804023E5149453E00427F4000B4
:1002B00042615149462141454B311814127F1027A4
:1002C000454545393C4A49493001710905033649DC
:1002D000494936064949291E00363600000056367F
:1002E00000000008142241141414141441221408AC
:1002F000000201510906324979413E7E1111117EF9
:100300007F494949363E414141227F4141221C7F7C
:10031000494949417F090901013E414151327F0864
:1003200008087F00417F41002040413F017F0814C1
:1003300022417F404040407F0204027F7F0408103A
:100340007F3E4141413E7F090909063E4151215E00
:100350007F09192946464949493101017F01013F79
:100360004040403F1F2040201F7F2018207F631403
:100370000814630304780403615149454300007F76
:100380004141020408102041417F000004020102A3
:10039000044040404040000102040020545454787E
:1003A0007F484444383844444420384444487F38E3
:1003B00054545418087E090102081454543C7F0810
:1003C00004047800447D40002040443D00007F103C
:1003D000284400417F40007C041804787C08040411
:1003E0007838444444387C14141408081414187CD5
:1003F0007C080404084854545420043F4440203CE2
:100400004040207C1C2040201C3C4030403C442884
:100410001028440C5050503C4464544C440008365E
:10042000410000007F0000004136080008082A1C37
:1004300008081C2A08084932433A204255535F45B0
:1004400052524F520D0A004932433A204E4F5F49F3
:100450004E464F0D0A004932433A2053542D3E4434
:100460004154415F4E41434B206F72204C415354E5
:100470005F444154410D0A004932433A2053542D00
:100480003E444154415F41434B0D0A004932433AD7
:100490002053542D3E534C415F41434B0D0A0049BC
:1004A00032433A2053522D3E53525F53544F500D16
:1004B0000A004932433A2053522D3E444154415F91
:1004C0004E41434B0D0A004932433A2053522D3ED0
:1004D000444154415F41434B0D0A004932433A20A5
:1004E00053522D3E534C415F41434B0D0A0049325C
:1004F000433A204D522D3E534C415F41434B0D0A30
:10050000004932433A204D522D3E444154415F410F
:10051000434B0D0A004932433A204D542D3E41527F
:10052000425F4C4F53540D0A004932433A204D5418
:10053000522D3E534C415F4E41434B206F72204D34
:10054000542D3E444154415F4E41434B0D0A0049F6
:1005500032433A204D522D3E444154415F4E414377
:100560004B0D0A004932433A204D542D3E534C4125
:100570005F41434B206F7220444154415F41434BE4
:100580000D0A004932433A204D2D3E5354415254F6
:100590000D0A000C0FFFFF0A11FFFF0912FFFF08F1
:1005A0000B1013070B1014060A1115060A11150576
:1005B0000A1116050A1116040A1117040912170365
:1005C0000912180309121803091218020912180255
:1005D0000912190209121902091219020912190144
:1005E00009121A0109121A0109121A0109121A0133
:1005F00009121A0109121A0109121A0109121A0123
:1006000009121A0109121A0009121B0009121B0013
:1006100009121B0009121B0009121B0009121B0002
:1006200009121B0109121A0109121A0109121A01F1
:1006300009121A0109121A0109121A0109121A01E2
:1006400009121A0109121A020912190209121902D1
:1006500009121902091219020912180309121803C2
:100660000912180309121804091217040A111705B0
:100670000A1116050A1116060A1115060A111507A0
:100680000B1014080B10130912FFFF0A11FFFF0CC7
:100690000FFFFF1111FFFF0F11FFFF0E11FFFF0CE6
:1006A00011FFFF0B11FFFF0911FFFF0811FFFF06EC
:1006B00011FFFF0511FFFF0311FFFF0205081102E3
:1006C0000309110911FFFF0911FFFF0911FFFF0ABB
:1006D00011FFFF0A11FFFF0A11FFFF0A11FFFF0AB6
:1006E00011FFFF0A11FFFF0A11FFFF0A11FFFF0AA6
:1006F00011FFFF0A11FFFF0A11FFFF0A11FFFF0A96
:1007000011FFFF0A11FFFF0A11FFFF0A11FFFF0A85
:1007100011FFFF0A11FFFF0A11FFFF0A11FFFF0A75
:1007200011FFFF0A11FFFF0A11FFFF0A11FFFF0A65
:1007300011FFFF0A11FFFF0A11FFFF0A11FFFF0A55
:1007400011FFFF0A11FFFF0A11FFFF0A11FFFF0A45
:1007500011FFFF0A11FFFF0A11FFFF0A11FFFF0A35
:1007600011FFFF0A11FFFF0A11FFFF0A11FFFF0926
:1007700012FFFF0912FFFF0912FFFF0912FFFF0816
:1007800012FFFF0713FFFF0416FFFF0218FFFF020F
:1007900018FFFF0C10FFFF0A12FFFF0913FFFF08ED
:1007A00014FFFF0715FFFF0616FFFF0616FFFF05E4
:1007B00017FFFF0517FFFF0417FFFF0418FFFF03D4
:1007C000060D1803050E1803040F1802040F180273
:1007D0000310180203101801021118010211181158
:1007E00018FFFF1118FFFF1118FFFF1118FFFF116D
:1007F00018FFFF1118FFFF1117FFFF1117FFFF115F
:1008000017FFFF1116FFFF1016FFFF1015FFFF1057
:1008100015FFFF0F14FFFF0F14FFFF0F13FFFF0E55
:1008200013FFFF0E12FFFF0E11FFFF0D11FFFF0D53
:1008300010FFFF0C0FFFFF0C0FFFFF0B0EFFFF0B56
:100840000DFFFF0A0D1B1B0A0C1B1B090B1A1B09B2
:100850000B1A1B080A191B0709191A0708181A0688
:1008600008141A061AFFFF051AFFFF051AFFFF04F6
:1008700019FFFF0319FFFF0319FFFF0219FFFF0212
:1008800019FFFF0119FFFF0019FFFF0018FFFF000C
:1008900018FFFF0C11FFFF0A14FFFF0915FFFF08E7
:1008A00016FFFF0716FFFF0617FFFF0517FFFF04E0
:1008B000080B1804060D1803050E1803040F180280
:1008C0000410180203101802031018020210181066
:1008D00018FFFF1018FFFF1018FFFF1017FFFF1081
:1008E00017FFFF1016FFFF1016FFFF0F15FFFF0F7A
:1008F00014FFFF0E14FFFF0D15FFFF0C16FFFF0B7B
:1009000017FFFF0918FFFF0918FFFF0919FFFF0B69
:1009100019FFFF0C19FFFF0E1AFFFF0F1AFFFF1040
:100920001AFFFF111AFFFF121AFFFF121AFFFF131F
:100930001AFFFF131AFFFF141AFFFF141AFFFF1408
:100940001AFFFF141AFFFF141AFFFF151AFFFF15F5
:100950001AFFFF1519FFFF1519FFFF1519FFFF02F9
:1009600006151801071418010814180009141700B7
:10097000091416000A1316010B1215010C111401AB
:1009800013FFFF0212FFFF0311FFFF040FFFFF061B
:100990000CFFFF1317FFFF1217FFFF1217FFFF11C6
:1009A00017FFFF1117FFFF1017FFFF1017FFFF0FB3
:1009B00017FFFF0F17FFFF0E17FFFF0E17FFFF0DAB
:1009C00017FFFF0D17FFFF0C17FFFF0C17FFFF0BA3
:1009D0000D0F170B0D0F170A0C0F170A0C0F170925
:1009E0000B0F17090B0F17080A0F17080A0F170725
:1009F000090F1707090F1706080F1706080F170525
:100A0000070F1705070F1704060F1704060F170324
:100A1000050F1703050F1702040F1702040F170124
:100A2000030F1701030F1700020F1700020F170023
:100A3000020F17001BFFFF001BFFFF001BFFFF0043
:100A40001BFFFF001BFFFF001BFFFF001BFFFF0042
:100A50001BFFFF001BFFFF001BFFFF001BFFFF0F23
:100A600017FFFF0F17FFFF0F17FFFF0F17FFFF0FF6
:100A700017FFFF0F17FFFF0F17FFFF0F17FFFF0FE6
:100A800017FFFF0F17FFFF0F17FFFF0F17FFFF0FD6
:100A900017FFFF081BFFFF081AFFFF081AFFFF08D8
:100AA0001AFFFF071AFFFF0719FFFF0719FFFF07CC
:100AB00019FFFF0719FFFF0618FFFF0618FFFF06C3
:100AC00018FFFF0607FFFF0607FFFF0607FFFF05EA
:100AD00007FFFF0506FFFF0506FFFF0506FFFF05F1
:100AE00006FFFF040CFFFF040FFFFF0411FFFF04CC
:100AF00012FFFF0414FFFF0414FFFF0315FFFF03A1
:100B000016FFFF0316FFFF0317FFFF0317FFFF0288
:100B100018FFFF0218FFFF0A18FFFF0C19FFFF0E56
:100B200019FFFF1019FFFF1119FFFF1219FFFF1323
:100B300019FFFF1319FFFF1419FFFF1419FFFF1509
:100B400019FFFF1519FFFF1519FFFF1619FFFF16F3
:100B500019FFFF1619FFFF1618FFFF0305161802ED
:100B600006151801081517010915170009141700B3
:100B70000A1416000B1315000D12150114FFFF01C6
:100B800013FFFF0212FFFF0311FFFF040FFFFF0619
:100B90000CFFFF181AFFFF151AFFFF131AFFFF11B2
:100BA00017FFFF1016FFFF0E14FFFF0D13FFFF0CC2
:100BB00012FFFF0B11FFFF0A10FFFF0910FFFF08D4
:100BC0000FFFFF080EFFFF070EFFFF060DFFFF06DA
:100BD0000DFFFF050DFFFF050CFFFF040CFFFF04D9
:100BE0000CFFFF040BFFFF030BFFFF030BFFFF03D3
:100BF0000BFFFF020A0D110214FFFF0215FFFF0297
:100C000016FFFF010B0E17010A1018010A10180138
:100C100009111901091119010911190109121A0102
:100C200009121A0109121A0109121A0109121A01EC
:100C300009121B0109121B0109121B0109121B01D8
:100C400009121B0109121B0109121B0109121A01C9
:100C500009121A0209121A0209121A0209121A02B8
:100C6000091219030A1219030A1219030A121804A5
:100C70000A1218040A1218050A1217050B12170691
:100C80000B1116070C11150814FFFF0A13FFFF0CB8
:100C900010FFFF031BFFFF031BFFFF021AFFFF02F2
:100CA0001AFFFF021AFFFF021AFFFF0219FFFF02DD
:100CB00019FFFF0219FFFF0219FFFF0118FFFF01D3
:100CC00018FFFF0118FFFF01041418010314180195
:100CD0000213170002131700011317000113170066
:100CE000011216000112161216FFFF1216FFFF1155
:100CF00016FFFF1115FFFF1115FFFF1115FFFF1163
:100D000015FFFF1014FFFF1014FFFF1014FFFF105A
:100D100014FFFF0F14FFFF0F13FFFF0F13FFFF0F51
:100D200013FFFF0E13FFFF0E12FFFF0E12FFFF0E49
:100D300012FFFF0D12FFFF0D12FFFF0D11FFFF0D40
:100D400011FFFF0C11FFFF0C11FFFF0C10FFFF0C38
:100D500010FFFF0C10FFFF0B10FFFF0B10FFFF0B2E
:100D60000FFFFF0B0FFFFF0A0FFFFF0A0FFFFF0A26
:100D70000EFFFF0A0EFFFF090EFFFF090EFFFF091E
:100D80000EFFFF090DFFFF080DFFFF080DFFFF0815
:100D90000DFFFF0B11FFFF0814FFFF0715FFFF06F4
:100DA0000B1016050A11170409121804091218036A
:100DB000081318030813190208131902081319025B
:100DC000081319020813190108131901091319014D
:100DD000091319010A1319010A1319010B13190236
:100DE0000B1318020C1218020D1217020E12160322
:100DF0000F11150314FFFF0312FFFF0412FFFF057D
:100E000013FFFF0514FFFF0615FFFF0716FFFF087E
:100E100016FFFF0917FFFF0917FFFF0718FFFF065F
:100E20000A0C1805090D1904090E1903080E1903F7
:100E3000080F1A0208101A0208111A0107111A01E4
:100E400007121A0107121A0107121A0107131A01D1
:100E500007131A0107131A0107131A0107131A01BE
:100E600007131A01071319010713190108131902AF
:100E7000081318020812180308121703091117049F
:100E80000A1116050B10150614FFFF0812FFFF0AC2
:100E90000FFFFF0B10FFFF0812FFFF0713FFFF06F6
:100EA0000B0F14050A1015050A1116040911160472
:100EB0000911170309111703091118020912180261
:100EC000091219020912190109121901091219014D
:100ED00009121A0109121A0109121A0109121A013A
:100EE00009121A0109121A0109121A0109121A012A
:100EF00009121A0109121A0109121A0109121A011A
:100F000009121A010A121A020A121A020A121A0203
:100F10000A121A030A121A030B121A040C111A04E9
:100F20001AFFFF051AFFFF0619FFFF070F11190A25
:100F30000C11191019FFFF1018FFFF1018FFFF10F8
:100F400018FFFF0F17FFFF0F17FFFF0F16FFFF0E12
:100F500016FFFF0E15FFFF0E15FFFF0D14FFFF0D0F
:100F600013FFFF0C13FFFF0B12FFFF0B11FFFF0A14
:100F700010FFFF090FFFFF080EFFFF070DFFFF0522
:100F80000BFFFF040AFFFF0108FFFF0105FFFF0140
:100F900002FFFF0011241FBECFEFD8E0DEBFCDBFA0
:100FA00014E0A0E0B1E0E0E0FAE502C005900D92A7
:100FB000A635B107D9F714E0A6E5B4E001C01D924B
:100FC000AD3DB107E1F70E940E0D0C94FE2C0C9480
:100FD00000001F920F920FB60F9211248F939F93D0
:100FE00088B198E0892788B99F918F910F900FBEA3
:100FF0000F901F9018951F920F920FB60F92112409
:101000008F939F9388B198E0892788B99F918F919A
:101010000F900FBE0F901F9018951F920F920FB652
:101020000F9211248F939F9380915F04909160049D
:10103000892B49F080915F0490916004019790930F
:10104000600480935F048091D1049091D204892B35
:1010500049F08091D1049091D20401979093D204E9
:101060008093D1048091CF04882389F180915D041D
:1010700090915E04892B59F58091C6049091C70424
:10108000892BE1F48CE291E09093C7048093C6042D
:1010900080918100882379F41092800089E0809308
:1010A000810083E080936F0088EE93E09093890045
:1010B0008093880003C01092810043988091C604F9
:1010C0009091C70401979093C7048093C6049F91A1
:1010D0008F910F900FBE0F901F901895AF92BF92F7
:1010E000CF92DF92EF92FF920F931F93E62E109212
:1010F000800029E02093810023E020936F009C0171
:1011000040E050E060E079E08DE390E00E94962CB2
:101110003093890020938800FF2400E010E0C8018C
:10112000B7010E94B4295B016C0120E030E04AEF76
:1011300054E40E94D6277B018C0120E030E040E897
:101140005FE30E94302988231CF461E070E024C032
:10115000C801B70120E03FEF4FE757E40E94D028D5
:101160001816B4F4C601B50120E030E040E251E4C5
:101170000E94D6270E94002688EC90E005C0FC0162
:101180003197F1F76150704061157105C1F707C0E3
:10119000C801B7010E940026CB010197F1F7109218
:1011A000810043981F910F91FF90EF90DF90CF90B7
:1011B000BF90AF900895FC0183709070892B39F433
:1011C000CF0164E670E00E944D2C892B49F420E0A9
:1011D00030E0CF0160E971E00E944D2C892B11F4C1
:1011E00021E030E0822F08950895482F6AE00E94A0
:1011F000412C282F30E084E0220F331F8A95E1F73D
:10120000842F0E94412C892F822B089588E592E03B
:1012100090935E0480935D0410928100439888E669
:1012200090E061E00E94451D1092D004089582E094
:1012300091E061E00E94451D1E9B1BC08091CC0483
:10124000882369F11092CC041092D50410925E04A8
:1012500010925D048091CF04882309F188EF90E01B
:1012600061E00E94451D1092CF04109281004398C6
:1012700008958091CC04882391F481E08093CC047C
:1012800010925E0410925D0483E080935B0484E01E
:1012900080935A048FEE90E061E00E94451D08950E
:1012A0000F931F93182F062F6AE00E94412C805D38
:1012B000602F0E94CA1E812F6AE00E94412C892F54
:1012C000805D602F0E94CA1E1F910F910895AF92FA
:1012D000BF92CF92DF92EF92FF920F931F93DF9313
:1012E000CF93CDB7DEB728970FB6F894DEBF0FBE09
:1012F000CDBF162FF42ED22E5E010894A11CB11C76
:1013000098E0F50111929A95E9F719820E94F50883
:101310008A83812F0E94F5088B838F2D0E94F50808
:101320008C838D2D0E94F5088D83802F0E94F508F7
:101330008E838E2D0E94F5088F838C2D0E94F508D8
:10134000888780ED68E0A5010E94E7238823D9F013
:1013500008EC10E080EA9FE064E60E946E0888EEE8
:1013600093E0F8013197F1F70197D9F780EA9FE010
:1013700064E60E946E0880E197E2F8013197F1F788
:101380000197D9F7E7CF28960FB6F894DEBF0FBEC6
:10139000CDBFCF91DF911F910F91FF90EF90DF9024
:1013A000CF90BF90AF9008950F931F93DF93CF938B
:1013B000CDB7DEB729970FB6F894DEBF0FBECDBF0D
:1013C000198280ED61E0AE014F5F5F4F0E94E7231D
:1013D000182F882349F18CED90E060E00E94451DB4
:1013E000812F90E00E94B91D8BED90E061E00E949A
:1013F000451D08EC10E080EA9FE064E60E946E085C
:1014000088EE93E0F8013197F1F70197D9F780EA78
:101410009FE064E60E946E0880E197E2F801319750
:10142000F1F70197D9F7E7CF80ED67E0AE014E5FA6
:101430005F4F0E942E24182F882349F188EC90E0FA
:1014400060E00E94451D812F90E00E94B91D87EC4D
:1014500090E061E00E94451D08EC10E080EA9FE00A
:1014600064E60E946E0888EE93E0F8013197F1F788
:101470000197D9F780EA9FE064E60E946E0880E158
:1014800097E2F8013197F1F70197D9F7E7CF7A8121
:10149000872F82958F7090E0877090709C01A3E0F9
:1014A000220F331FAA95E1F7880F991F280F391FC4
:1014B000872F8F70820F8093D4044B81842F829565
:1014C0008F7090E0877090709C01E3E0220F331FD3
:1014D000EA95E1F7880F991F280F391F4F70420FC7
:1014E0004093CA048C81482F42954F70682F6F70CB
:1014F00086FF22C082958695877090E081709070FB
:101500009C01220F331F280F391F220F331F220F78
:10151000331F842F90E081709070AC0103E0440F82
:10152000551F0A95E1F7880F991F480F591F240F7F
:10153000260F2093C10411C0842F90E08370907017
:101540009C01B3E0220F331FBA95E1F7880F991F72
:10155000280F391F620F6093C1044E81842F82953A
:101560008F7090E0837090709C01F3E0220F331F26
:10157000FA95E1F7880F991F280F391F4F70420F16
:101580004093C9044F81842F82958F7090E08170C1
:1015900090709C0163E0220F331F6A95E1F7880F7A
:1015A000991F280F391F4F70420F4093D30428858D
:1015B000822F82958F703AE0839FC00111242F7093
:1015C000280F2093C404872F807829960FB6F894AB
:1015D000DEBF0FBECDBFCF91DF911F910F91089558
:1015E000CF92EF920F930E9441230E94D409882347
:1015F00081F088E790E061E00E94451D80E060E0B6
:101600004CE020E001E0EE24E394B9E0CB2E0E9410
:1016100067090E94D40980E790E060E00E94451DC0
:101620008091C10490E00E94B91D8AE30E94301DA0
:101630008091CA0490E00E94B91D8AE30E94301D87
:101640008091D40490E00E94B91D89E00E94301D71
:101650008091C90490E00E94B91D8FE20E94301D64
:101660008091D30490E00E94B91D8FE20E94301D4A
:101670008091C40490E00E94B91D8FE690E061E083
:101680000E94451D82E090E00E94E82C6CE30E94DD
:10169000412C9093C50481E090E00E94E82C68E121
:1016A0000E94412C9093CE0487E08093B10081E0AA
:1016B0008093700078940F91EF90CF9008951F92CF
:1016C0000F920FB60F921124FF920F931F932F9337
:1016D0003F934F935F936F937F938F939F93AF93BA
:1016E000BF93EF93FF93A89580916104803579F4BF
:1016F000109261041091D4040091CA04F090C104C6
:101700000E94D4098091C1048F1529F40AC08F5F0B
:101710008093610418C181E080935804F092CB0457
:1017200007C08091CA04801731F081E0809357048C
:101730000093C20409C08091D404811729F081E08C
:10174000809359041093D6048091D404811709F42E
:101750005EC08091CF04882359F080915D04909100
:101760005E04009729F0019790935E0480935D04D6
:1017700080915A04882361F180915A0481508093AA
:101780005A0480915A04882319F580915B04809350
:101790006B0410925B0480915804882329F0809197
:1017A000CB048093C10404C080915704882321F0A6
:1017B0008091C2048093CA0480915804882321F444
:1017C00080915704882321F0F092C1040093CA0449
:1017D00081EC90E060E00E94451D8091C10490E0A2
:1017E0000E94B91D8AE30E94301D8091CA0490E0D6
:1017F0000E94B91D8AE30E94301D8091D40490E0BC
:101800000E94B91D8CEB90E061E00E94451D809123
:10181000D004843061F08091D004853041F0809113
:10182000D004883021F08091D004863089F58091F1
:101830006404882369F584E462E00E94FA228091BE
:10184000C10460E00E94B10E8AE360E00E94CA1EFB
:101850008091CA0460E00E9450098AE360E00E941F
:10186000CA1E8091D40460E00E9450098091C30494
:10187000882371F480E260E00E94CA1E8091C10456
:101880008C3010F080E501C081E460E00E94CA1E47
:101890008091CC048823C1F08091D4048823A1F4E2
:1018A0009091CA048091C504981771F49091C10475
:1018B0008091CE04981741F48BEA90E061E00E9499
:1018C000451D81E08093D50480915704882391F4CD
:1018D00080915804882371F48091D504882351F0B5
:1018E0008BE990E061E00E94451D81E08093CF0488
:1018F0001092D50490916204933011F0992341F431
:1019000080915C0420E0882309F421E020935C04AA
:10191000963039F41092620480916804882329F487
:1019200009C09F5F909362040EC08091680481504B
:101930008093680480916304882329F08091630474
:10194000815080936304FF91EF91BF91AF919F917C
:101950008F917F916F915F914F913F912F911F9147
:101960000F91FF900F900FBE0F901F901895EF9260
:10197000FF920F931F93F82E162FE42E21E001E023
:101980000E94131FFE0C0F2D02501150802F612F4B
:101990000E94E8201E5F802F612F0E94E8200150E6
:1019A0001350802F612F0E94E8201C5F802F612F31
:1019B0000E94E8201F910F91FF90EF90089580E022
:1019C00090E00E94E82C833C41F181E090E068E0E7
:1019D0000E94F02C82E090E060E00E94F02C83E016
:1019E00090E060E10E94F02C84E090E061E00E94D1
:1019F000F02C85E090E060E00E94F02C86E090E022
:101A000060E00E94F02C87E090E06AE00E94F02CF9
:101A100080E090E063EC0E94F02C08958F929F92FA
:101A2000AF92BF92CF92DF92EF92FF920F931F93EC
:101A3000CF93DF9384B714BE88E10FB6F8948093F8
:101A40006000109260000FBE8AE190E00E940A1DC3
:101A500084E191E061E00E94451D3B9A8DE091E0B8
:101A600061E00E94451D0E94F00A0E94DF0C85E0A3
:101A700090E00E94E82C8093CD0486E090E00E94E4
:101A8000E82C8093C30484E091E061E00E94451D4E
:101A90000E94B4160E94170982E084BD83E085BDD0
:101AA0008DE787BD80916E00826080936E00539AAF
:101AB00080E28093B0008091B00083608093B0009A
:101AC0008091B10088608093B10080E18093B30081
:101AD00083E090E00E94E82C8093B400259A80EA8D
:101AE0009FE064E60E946E082FE088E190E00FB668
:101AF000F894A895809360000FBE209360000E9428
:101B000028230E9404230E94F21C80E00E946F1C84
:101B100000E010E0CBE4D0E052E0852E44E0F42E6B
:101B2000CC24C39433E0932E25E0D22E98E0B92E36
:101B300086E0A82ED093D204C093D104809166048D
:101B4000882341F08091CF04882321F0109266040D
:101B50000E940609113039F480915A048823D1F487
:101B6000D0925B0408C0123051F480915A0488234B
:101B700089F4C0925B04F0925A0413E00BC0133056
:101B800049F480915A04882329F480925B04F092EE
:101B90005A0410E080916604867079F01092660411
:101BA0008091CD04882321F08091CD04813019F4F7
:101BB000C0925B0413E0F0925A048091660480FFA7
:101BC0003DC01092660410925B0410925A048091FA
:101BD000D004843089F0853028F4882341F08330A4
:101BE00009F511C08530A1F08830E1F416C0F092FB
:101BF000D0040E947C1118C09092D0040E94C90F9A
:101C00001092000111C0D092D0040E949A140CC00E
:101C1000B092D0040E94861207C0A092D0040E9405
:101C2000C51302C01092D0048091D004882329F4F7
:101C30000E94042380E00E946F1C10E00E94BB17EA
:101C40008091CF04882309F400E08091D004882398
:101C5000E1F58091CF04882301F180916904882304
:101C6000E1F4809157048823C1F4809158048823BB
:101C7000A1F4002349F48091D40480FD26C081E0C2
:101C80000E94861A01E021C08091D40480FF1DC00B
:101C900080E00E94861A00E018C02D9A802F0E94D2
:101CA000861A2D9880915B04882379F480915C04D6
:101CB000E81659F080916904882339F480915C0416
:101CC00090E00E94781AE0905C048091D104909199
:101CD000D204892BD1F72ECF0F931F93CF93DF938D
:101CE000182F062F8091C304882371F584E761E0E3
:101CF0000E94FA221C3010F080E501C081E460E00F
:101D00000E94CA1E8DE460E00E94CA1E80E561E068
:101D10000E94FA22812F90E047966CE070E00E94CA
:101D2000612CEC018930910524F09C012F5F822FFA
:101D300010C080E260E00E94CA1E9E012F5C822FCC
:101D4000602F0E94CA1E08C080E561E00E94FA224E
:101D5000812F602F0E945009DF91CF911F910F9129
:101D600008950F931F93CF93DF93082F162F809121
:101D7000C3048823D1F4802F90E047966CE070E094
:101D80000E94612CEC018930910524F09C012F5FA9
:101D9000822F14C080E260E00E94CA1E9E012F5C68
:101DA000822F612F0E94CA1E0CC080E260E00E9458
:101DB000CA1E80E260E00E94CA1E802F612F0E942E
:101DC0005009DF91CF911F910F9108958CEE91E012
:101DD00061E00E94451D809164048F5F80936404DC
:101DE0000E94042380E060E00E94FA2281E091E0FA
:101DF00060E00E94021F88E061E00E94FA2284E114
:101E000091E060E00E94021F8091CE0460E00E9499
:101E10006C0E8AE360E00E94CA1E8091C50460E0F7
:101E20000E94500988E062E00E94FA2281E291E07B
:101E300060E00E94021F8091C10460E00E94B10E28
:101E40008AE360E00E94CA1E8091CA0460E00E949A
:101E500050098AE360E00E94CA1E8091D40460E0C9
:101E60000E9450098091C304882371F480E260E0ED
:101E70000E94CA1E8091C1048C3010F080E501C020
:101E800081E460E00E94CA1E88E063E00E94FA22BA
:101E90008CE291E060E00E94021F8091CD048823D3
:101EA00061F48091D30460E00E9450098FE260E009
:101EB0000E94CA1E8091C9040BC08091C90460E0D1
:101EC0000E9450098FE260E00E94CA1E8091D304F4
:101ED00060E00E9450098FE260E00E94CA1E80917B
:101EE000C40460E00E94500988E064E00E94FA2285
:101EF00089E391E060E00E94021F8091CD04882375
:101F000039F48091C304882319F486E491E018C061
:101F10008091CD04882339F48091C304813019F471
:101F20008EE491E00DC08091CD04813039F4809130
:101F3000C304882319F486E591E002C08EE591E0A0
:101F400060E00E94021F88E065E00E94FA2286E6B7
:101F500091E060E00E94021F8091B40060E00E9466
:101F6000500980E066E00E94FA2286E791E060E096
:101F70000E94021F80E067E00E94FA228CE891E054
:101F800060E00E94021F8091640481508093640489
:101F90000895BF92CF92DF92EF92FF920F931F931B
:101FA000CF93DF931091C104D090CA04F090D40471
:101FB0000E94E60E809164048F5F8093640480E049
:101FC00063E147E00E94B70C8091640481508093E4
:101FD00064048AE08093630403E08AE0B82EC8ECCE
:101FE000D0E08091660480FD7DC1809166048823E5
:101FF00021F480916704882319F0B092630407C02C
:1020000080916304882319F41092D0046BC18091ED
:10201000660481FFEEC010926604809164048F5FB5
:10202000809364040330A9F58BE491E060E00E94A2
:10203000451D84E462E00E94FA22812F61E00E9443
:10204000B10E84E762E00E94FA228091C3048823E3
:1020500061F480E260E00E94CA1E1C3010F080E54E
:1020600001C081E461E00E94CA1E80E066E00E9437
:10207000FA228DE991E060E00E94021F80E067E0B3
:102080000E94FA2283EB91E060E00E94021F05E6C5
:10209000ABC00536E9F58EE391E060E00E94451D96
:1020A00084E462E00E94FA22812F60E00E94B10E77
:1020B0008AE360E00E94CA1E8D2D61E00E945009F3
:1020C00080E066E00E94FA2289EC91E060E00E94E4
:1020D000021F80E067E00E94FA228FED91E060E04D
:1020E0000E94021F84E762E00E94FA228091C304EA
:1020F000882361F480E260E00E94CA1E1C3010F068
:1021000080E501C081E460E00E94CA1E06E66CC062
:10211000063679F581E391E060E00E94451D8091EB
:10212000C304882311F486E501C082E662E00E94C0
:10213000FA228D2D60E00E9450098AE360E00E943F
:10214000CA1E8F2D61E00E94500980E066E00E9467
:10215000FA2285EF91E060E00E94021F80E067E0D4
:102160000E94FA228BE092E060E00E94021F07E6E4
:102170003BC08FE191E060E00E94451D8091C30467
:10218000882311F488E601C084E762E00E94FA2205
:102190008F2D60E00E94500980E066E00E94FA22E4
:1021A00086E791E060E00E94021F80E067E00E9405
:1021B000FA228CE891E060E00E94021F1093C104B3
:1021C000D092CA04F092D4048091D4046091CA04DD
:1021D0004091C1040091C904E090D304C090C404AC
:1021E00020E00E94670903E080916404815080939D
:1021F00064048091660482FD04C08091670482FFBC
:10220000F0CE10926604809164048F5F8093640422
:10221000053649F5812F90E0019668E170E00E9453
:10222000612C182F8093C10484E462E00E94FA229A
:10223000812F61E00E94B10E84E762E00E94FA22E1
:102240008091C3048823E9F580E260E00E94CA1E01
:102250008091C1048C3010F080E501C081E461E020
:102260000E94CA1E2EC00636A1F48D2D90E0019664
:102270006CE370E00E94612CD82E8091C304882307
:1022800011F486E501C082E662E00E94FA228D2DFB
:1022900015C00736B1F48F2D90E001966CE370E025
:1022A0000E94612CF82E8091C304882311F488E6E3
:1022B00001C084E762E00E94FA228F2D61E00E9453
:1022C0005009809164048150809364048091670474
:1022D00082FF87CE80ED97E0FE013197F1F70197FD
:1022E000D9F77FCEDF91CF911F910F91FF90EF90A3
:1022F000DF90CF90BF9008950F931F93CF93DF93FC
:102300000E94E60E809164048F5F8093640480E0F5
:102310006BE047E00E94B70C809164048150809389
:1023200064048AE08093630414E00AE0C8ECD0E01F
:102330008091660480FDE5C080916604882321F4C5
:1023400080916704882319F00093630407C080918B
:102350006304882319F41092D004D3C080916604DA
:1023600081FF7EC010926604809164048F5F809329
:1023700064041430F1F487E691E060E00E94451DAA
:102380008091CE0461E00E946C0E80E066E00E94C5
:10239000FA228DE991E060E00E94021F80E067E090
:1023A0000E94FA2283EB91E060E00E94021F15E692
:1023B00052C0153659F589E591E060E00E94451D4F
:1023C00080E561E00E94FA228091CE0460E00E94E4
:1023D0006C0E82E661E00E94FA228091C50461E001
:1023E0000E94500980E066E00E94FA2289EC91E0A8
:1023F00060E00E94021F80E067E00E94FA228FEDF9
:1024000091E060E00E94021F16E625C080E561E0D1
:102410000E94FA228091CE0460E00E946C0E82E657
:1024200061E00E94FA228091C50460E00E94500998
:1024300080E066E00E94FA2286E791E060E00E9478
:10244000021F80E067E00E94FA228CE891E060E0E1
:102450000E94021F14E08091640481508093640400
:102460008091660482FD04C08091670482FF60CF82
:1024700010926604809164048F5F80936404153623
:10248000A1F48091CE0490E0019668E170E00E9492
:10249000612C8093CE048091CE0461E00E946C0E8A
:1024A0006091CE0481E090E019C01636C9F48091A5
:1024B000C50490E001966CE370E00E94612C80936B
:1024C000C50482E661E00E94FA228091C50461E0C1
:1024D0000E9450096091C50482E090E00E94F02CB7
:1024E000809164048150809364048091670482FF2A
:1024F0001FCF80ED97E0FE013197F1F70197D9F7F3
:1025000017CFDF91CF911F910F9108950F931F93D4
:102510000E94E60E809164048F5F8093640480E0E3
:1025200063E247E00E94B70C80916404815080937D
:1025300064048AE08093630418E00AE080916604F2
:1025400080FD20C180916604882321F48091670476
:10255000882319F00093630407C0809163048823E3
:1025600019F41092D0040EC18091660481FF8FC0CF
:1025700010926604809164048F5F80936404183025
:1025800009F043C086E791E060E00E94451D80E5C8
:1025900064E00E94FA228091CD04882339F480916E
:1025A000C304882319F486E491E018C08091CD0417
:1025B000882339F48091C304813019F48EE491E0CA
:1025C0000DC08091CD04813039F48091C3048823FB
:1025D00019F486E591E002C08EE591E061E00E9489
:1025E000021F80E066E00E94FA2281E292E060E051
:1025F0000E94021F80E067E00E94FA2287E392E0D7
:1026000060E00E94021F18E63DC080E564E00E9481
:10261000FA228091CD04882339F48091C304882361
:1026200019F486E491E018C08091CD04882339F430
:102630008091C304813019F48EE491E00DC0809143
:10264000CD04813039F48091C304882319F486E5E0
:1026500091E002C08EE591E060E00E94021F80E000
:1026600066E00E94FA2286E791E060E00E94021F85
:1026700080E067E00E94FA228DE492E060E00E9430
:10268000021F18E08091640481508093640480915B
:10269000660482FD04C08091670482FF4FCF1092D0
:1026A0006604183609F04ACF8091C304882341F0AC
:1026B0008091CD0490E0882309F491E09093CD04BB
:1026C0008091C30490E0882309F491E09093C304BF
:1026D000809164048F5F809364040E94E60E80E022
:1026E00066E00E94FA2281E292E060E00E94021F0E
:1026F00080E067E00E94FA2287E392E060E00E94B7
:10270000021F80E063E247E00E94B70C80E564E0CE
:102710000E94FA228091CD04882339F48091C30469
:10272000882319F486E491E018C08091CD048823B1
:1027300039F48091C304813019F48EE491E00DC026
:102740008091CD04813039F48091C304882319F439
:1027500086E591E002C08EE591E061E00E94021FF3
:10276000809164048150809364046091CD0485E07D
:1027700090E00E94F02C6091C30486E090E00E94FB
:10278000F02CDCCE1F910F9108950F931F930E94A0
:10279000E60E809164048F5F8093640480E066E0BD
:1027A0000E94FA2283E692E060E00E94021F80E02D
:1027B0006BE247E00E94B70C8091640481508093E3
:1027C00064048AE08093630416E00AE08091660462
:1027D00080FDADC080916604882321F48091670458
:1027E000882319F00093630407C080916304882351
:1027F00019F41092D0049BC08091660481FF4CC0F4
:1028000010926604809164048F5F80936404163094
:1028100011F585E891E060E00E94451D82E665E0E3
:102820000E94FA228091B40061E00E94500980E089
:1028300066E00E94FA2289E792E060E00E94021FAF
:1028400080E067E00E94FA228EE892E060E00E9459
:10285000021F19E61CC082E665E00E94FA22809100
:10286000B40060E00E94500980E066E00E94FA2215
:1028700083EA92E060E00E94021F80E067E00E942D
:10288000FA2286EB92E060E00E94021F16E080913F
:1028900064048150809364048091660482FD04C0C6
:1028A0008091670482FF92CF10926604193609F076
:1028B0008DCF8091B4008F5F8093B4008091B4007D
:1028C000813110F01092B400809164048F5F809386
:1028D00064040E94E60E80E066E00E94FA2281E233
:1028E00092E060E00E94021F80E067E00E94FA220E
:1028F00087E392E060E00E94021F80E06BE247E025
:102900000E94B70C82E665E00E94FA228091B40032
:1029100061E00E94500980916404815080936404B6
:102920006091B40083E090E00E94F02C4FCF1F91A3
:102930000F910895BF92CF92DF92EF92FF920F9383
:102940001F93CF93DF93F090C9041091D304D090DC
:10295000C4040E94E60E809164048F5F8093640437
:1029600080E06BE147E00E94B70C809164048150E5
:10297000809364048AE08093630405E04AE0B42E07
:10298000C8ECD0E08091660480FDE4C180916604CB
:10299000882321F480916704882319F0B09263049E
:1029A00007C080916304882319F41092D004D2C127
:1029B0008091660481FF09C11092660480916404CD
:1029C0008F5F809364040530E9F48091CD048823FF
:1029D00051F48DED91E060E00E94451D80E563E0DB
:1029E0000E94FA2257C08091CD04813009F0B3C013
:1029F0008EEC91E060E00E94451D80E563E00E945E
:102A0000FA2218C00B3071F58091CD04882309F0AB
:102A10005EC081EC91E060E00E94451D80E563E0CE
:102A20000E94FA22812F60E00E9450098FE260E04C
:102A30000E94CA1E8F2D61E00E94500980E066E06E
:102A40000E94FA2286EF92E060E00E94021F80E07E
:102A500067E00E94FA228CE093E060E00E94021F8F
:102A60000CE0AEC00C3009F076C08091CD0481300E
:102A700049F582EB91E060E00E94451D80E563E04E
:102A80000E94FA228F2D60E00E9450098FE260E0E0
:102A90000E94CA1E812F61E00E94500980E066E01A
:102AA0000E94FA228AEC92E060E00E94021F80E01D
:102AB00067E00E94FA2280EE92E060E00E94021F2E
:102AC0000BE07EC08091CD04882331F044C080911A
:102AD000CD04813009F03FC089EA91E060E00E94B6
:102AE000451D80E563E00E94FA228091CD04882391
:102AF00051F4812F60E00E9450098FE260E00E9453
:102B0000CA1E8F2D09C08F2D60E00E9450098FE2F0
:102B100060E00E94CA1E812F60E00E9450098FE28F
:102B200060E00E94CA1E8D2D61E00E94500980E085
:102B300066E00E94FA2282E293E060E00E94021FB7
:102B400080E067E00E94FA2288E393E060E00E9460
:102B5000021F0DE035C087E991E060E00E94451D4D
:102B600084E763E00E94FA228D2D60E00E94500904
:102B700080E066E00E94FA2286E791E060E00E9431
:102B8000021F80E067E00E94FA228CE891E060E09A
:102B90000E94021FD092C4041093D304F092C9047F
:102BA0008091D4046091CA044091C1040091C90489
:102BB000E090D304C090C40420E00E94670905E0BF
:102BC000809164048150809364048091660482FD46
:102BD00004C08091670482FFD5CE10926604809174
:102BE00064048F5F809364040B3009F048C01F5F5A
:102BF0001D3010F011E027C01230C1F48D2D90E08F
:102C00000E94DB08882331F08DE18F1518F43DE137
:102C1000F32E19C08D2D90E00E94DB08882399F4D3
:102C20008CE18F1580F42CE1F22E0DC0143031F0C0
:102C3000163021F0193011F01B3029F48EE18F1578
:102C400010F49EE1F92E80E563E00E94FA22809163
:102C5000CD04882351F4812F61E00E9450098FE256
:102C600060E00E94CA1E8F2D50C08F2D60E00E9430
:102C700050098FE260E00E94CA1E812F57C00C30BD
:102C800009F045C0F3948FE18F1510F4FF24F394FD
:102C9000123099F48D2D90E00E94DB08882319F002
:102CA0008DE18F15A8F08D2D90E00E94DB08882320
:102CB00089F48CE18F1560F00DC0143031F01630BE
:102CC00021F0193011F01B3029F48FE1F81611F4BE
:102CD000FF24F39480E563E00E94FA228091CD0402
:102CE000882351F4812F60E00E9450098FE260E058
:102CF0000E94CA1E8F2D1AC08F2D61E00E945009BC
:102D00008FE260E00E94CA1E812F60E010C00D308B
:102D100081F48D2D90E0019664E670E00E94612CB4
:102D2000D82E84E763E00E94FA228D2D61E00E9494
:102D300050098091640481508093640480916704F9
:102D400082FF20CE80ED97E0FE013197F1F70197E9
:102D5000D9F718CEDF91CF911F910F91FF90EF908F
:102D6000DF90CF90BF90089526982E9A81E08093AF
:102D70006800EBE6F0E080818064808382E08093ED
:102D80007C0010927B00EAE7F0E08EE8808380818F
:102D900080648083089580917A00877F80937A0091
:102DA00080917A00806480937A0080917A0084FF19
:102DB000FCCF2091780030917900C90108951F92CD
:102DC0000F920FB60F9211242F933F934F935F935F
:102DD0006F937F938F939F93AF93BF93EF93FF93E3
:102DE00078940E941709FF91EF91BF91AF919F9145
:102DF0008F917F916F915F914F913F912F910F90A4
:102E00000FBE0F901F9018951F920F920FB60F9242
:102E100011242F933F934F935F936F937F938F93DF
:102E20009F93AF93BF93EF93FF9378948091780033
:102E30009091790022E0803E920728F0109267047A
:102E40001092650482C022E083369207C0F180911F
:102E5000650482FD7AC080E29EE40197F1F70E944A
:102E6000CB16825692408E37910508F06EC082E0F4
:102E70008093680417C00E94CB16825692408E370A
:102E8000910580F0809165048B7F809365048FEFBE
:102E900091E061E00E94451D80916604846080930A
:102EA000660453C080916804882329F780916504E3
:102EB00084608093650480916704846044C08F506F
:102EC000914010F18091650481FD15C080E29EE47F
:102ED0000197F1F70E94CB168E5091408555914095
:102EE000A0F58CEF91E061E00E94451D80916604A1
:102EF000826080936604809165048260809365049B
:102F00008091670482601FC08091650480FD13C0BA
:102F100080E29EE40197F1F70E94CB168F5091401A
:102F2000A0F489EF91E061E00E94451D8091660464
:102F3000816080936604809165048160809365045C
:102F40008091670481608093670480917A0088642F
:102F500080937A00FF91EF91BF91AF919F918F91F4
:102F60007F916F915F914F913F912F910F900FBE85
:102F70000F901F9018950895DF92EF92FF920F9394
:102F80001F93CF93DF93D82EF62EE22EF694F6946D
:102F9000F694EA0100E015C0FE011491802F6CE167
:102FA0000E94412C292F2D0D802F0E94412C682F2B
:102FB0006F0D822F0E94FA22812F0E94A2220F5FA2
:102FC00021960E1548F3DF91CF911F910F91FF903D
:102FD000EF90DF900895CF92DF92EF92FF920F93E0
:102FE0001F93CF93DF93C82EF62ED22EE02EF694A9
:102FF000F694F694EA0110E019C00881812F6CE183
:103000000E94412C992341F4812F0E94412C682F6A
:103010006F0D8C2D0E94FA22EE2019F0802F8095E2
:1030200001C0802F0E94A2221F5F21961D1528F348
:10303000DF91CF911F910F91FF90EF90DF90CF9094
:1030400008959F92AF92BF92CF92DF92EF92FF923C
:103050000F931F93DF93CF93CDB7DEB7C05ED04001
:103060000FB6F894DEBF0FBECDBFC82EB62ED22E3F
:10307000A02EDE01119680EEFD0111928A95E9F7EE
:1030800030E09CE1992E81E0E82EF12C8D013DC0CD
:10309000FA0184914F5F5F4FFA01249141505040F3
:1030A000932F969596959695999DB0011124932FFF
:1030B0009770AE2D01C0AA0F9A95EAF7982F09C014
:1030C000FB01E90FF11DE00FF11F80818A2B808346
:1030D0009F5F9217A8F34E5F5F4FFA0184914F5F95
:1030E0005F4FFA01249143505040982F09C0FB01D3
:1030F000E90FF11DE00FF11F80818A2B80839F5F14
:103100009217A8F33F5F4C5F5F4F3D1508F4C0CFA7
:103110008C2D6B2DAE014F5F5F4F20EE0A2D0E946C
:10312000EB17C052DF4F0FB6F894DEBF0FBECDBF16
:10313000CF91DF911F910F91FF90EF90DF90CF9093
:10314000BF90AF909F9008950F93942F022F592F07
:1031500040E04D565A4F20E40E9421180F910895E7
:103160002F923F924F925F926F927F928F929F9297
:10317000AF92BF92CF92DF92EF92FF920F931F9385
:10318000DF93CF93CDB7DEB7C35FD0400FB6F894CF
:10319000DEBF0FBECDBFC051DF4F8883C05FD040C0
:1031A000CF50DF4F6883C15FD040CE50DF4F4883A0
:1031B000C25FD040CD50DF4F0883C35FD040FE01D7
:1031C000399680EEDF011D928A95E9F7CE50DF4FE8
:1031D0009881C25FD04080916C04482F50E0C2516A
:1031E000DF4F59834883CE5ED040122F00E00D564A
:1031F0001A4F722E6624A5E9B5E06A0E7B1E792F60
:1032000060E06D567A4F992E88248A0E9B1E4424C6
:103210005524342DCE50DF4FB881C25FD040BF3F20
:1032200029F41C821B821A82198212C0FB0184912C
:1032300089836F5F7F4FFB0184918A83F4018491BE
:103240008B836E5F7F4FFB018491635070408C8352
:10325000F981C751DF4FF883C95ED04090E0FF3F4E
:1032600009F091E08B818F3F09F09F5FF801349066
:103270003D820F5F1F4FF80124902E82F3012491AD
:103280002F830E5F1F4FF8018491035010408887F1
:1032900080E0FFEF3F1281E02F3F09F08F5F282F82
:1032A000891708F4292F4A81C651DF4F4883CA5E27
:1032B000D0403695369536959CE1399FC001112452
:1032C000C451DF4F99838883CC5ED040C2018770A0
:1032D0009070A1E0B0E002C0AA0FBB1F8A95E2F790
:1032E000C551DF4FA883CB5ED04035E0C32ED12C33
:1032F000CC0EDD1E5E010894A11CB11CE22EFF2441
:10330000EE0CFF1CEC0CFD1C6DC0D5012C912F3F69
:1033100059F4C651DF4FB881CA5ED040C751DF4F64
:103320002881C95ED04002C0F501B181F6018081DB
:103330008F3F19F4A22D832D02C0F601A18190E0E8
:1033400030E0821B930BC251DF4FE881F981CE5EE2
:10335000D0408E9FA0018F9F500D9E9F500D112435
:10336000405F5F4F85E0569547958A95E1F7420F9C
:10337000531F50708A2F90E02B2F30E0821B930B4D
:103380008E9FD0018F9FB00D9E9FB00D112450963F
:10339000E5E0B695A795EA95E1F7A20FB31FB070E7
:1033A000C451DF4FE881F981CC5ED040E40FF51FB6
:1033B00029E030E02C0F3D1FE20FF31F0AC080818F
:1033C000C551DF4F3881CB5ED040832B81934F5F57
:1033D0005F4F4A175B0798F342E050E0C40ED51EDA
:1033E000A40EB51ECE14DF0409F08FCF0894411C43
:1033F000511C0C5F1F4F84E090E0680E791E6C5FDB
:103400007F4F880E991E90E44916510409F001CFB0
:10341000C051DF4F8881C05FD040CF50DF4F6881FF
:10342000C15FD040AE01475F5F4F20EECD50DF4F10
:103430000881C35FD0400E94EB17CD50DF4F0FB61D
:10344000F894DEBF0FBECDBFCF91DF911F910F91DA
:10345000FF90EF90DF90CF90BF90AF909F908F90B4
:103460007F906F905F904F903F902F900895DF92E4
:10347000EF92FF920F931F93E82ED62E162F135024
:10348000FF24442311F4FF24F3948E2D612F41E097
:1034900026E00F2D0E94131F8E2D8150612F41E0D9
:1034A00026E00E94131F1D2D12508E2D8250612F79
:1034B00041E024E00E94131F8E2D8F5F612F41E0B9
:1034C00024E00E94131F1F5F8E2D8350612F41E067
:1034D00022E00E94131F8E2D8E5F612F41E022E0BB
:1034E0000E94131F1F910F91FF90EF90DF9008959E
:1034F0001F93182F80E464E1412F0E94371A80E463
:103500006BE3412F0E94371A1F9108950F931F9369
:10351000182F80915B04882329F080915B0483300D
:1035200009F0DAC090915B0480917604891709F460
:1035300050C080916904882309F04BC080917104C8
:1035400080936D048091720480936E048091730463
:1035500080936F04809174048093700480915B0465
:10356000882329F42091C1043091CA0404C0209119
:10357000CE043091C5048091C304882349F4822F7E
:1035800090E047966CE070E00E94612C282F2F5F3E
:10359000832F6AE00E94412C90937404832F0E9431
:1035A000412C80937304822F0E94412C80937104DC
:1035B000822F0E94412C90937204812F0E94781ACE
:1035C00080915B0480937604809169048F5F80937F
:1035D000690480915704882329F480915804882332
:1035E00009F44AC080916904882309F045C081E04C
:1035F0008093690480917404809370048091CA045C
:103600006AE00E94412C909374048091730480932B
:103610006F048091CA040E94412C809373048091AE
:103620005804882319F12091C1048091C304882390
:1036300051F48091C10490E047966CE070E00E94E4
:10364000612C282F2F5F8091710480936D048091ED
:10365000720480936E04822F6AE00E94412C809352
:103660007104822F0E94412C90937204109258048E
:10367000809158048093570480917504811709F450
:10368000C8C080916904882309F0C3C060E040E8A5
:1036900020E4012F0E94131F812F0E94781A84E6D4
:1036A00060E040917404212F0E94A41885E460E03A
:1036B00040917304212F0E94A4188FE160E0409193
:1036C0007204212F0E94A41880E060E040917104F0
:1036D000212F0E94A4189DC000915B04013009F0C5
:1036E00050C090915B0480917604891709F491C0D1
:1036F00081E192E061E00E94451D80916904882388
:1037000009F087C00093690480915B04809376047C
:103710008091710480936D048091720480936E0493
:103720008091730480936F0480917404809370047B
:103730008091CD04882329F42091D3043091C904C9
:1037400004C02091C9043091D304822F6AE00E9402
:10375000412C80937104822F0E94412C909372041B
:10376000832F0E94412C80937304832F0E94412C4D
:103770009093740480E0112309F481E00E94781A88
:1037800048C000915B04023009F043C090915B0493
:10379000809176048917E9F18BE092E061E00E9464
:1037A000451D809169048823A1F581E08093690417
:1037B00086E092E061E00E94451D80915B04809369
:1037C00076048091710480936D04809172048093DB
:1037D0006E048091730480936F04809174048093CD
:1037E000700400937104109272048091C4046AE022
:1037F0000E94412C809373048091C4040E94412C48
:10380000909374048CE363E247E025E0012F0E946B
:10381000131F4091700420917404421729F084E62C
:1038200060E0012F0E94B01840916F042091730452
:10383000421729F085E460E0012F0E94B018409102
:103840006E0420917204421729F08FE160E0012F8D
:103850000E94B01840916D0420917104421729F024
:1038600080E060E0012F0E94B018909169049923D4
:1038700089F180916C048F5F80936C04813250F1E8
:1038800010926C048091740480937004809173048E
:1038900080936F048091720480936E048091710410
:1038A00080936D0491509093690480915B04813002
:1038B00059F400E0112309F401E08CE363E247E0EE
:1038C00025E00E94131F06C080915B04823011F036
:1038D00080915B04109375041F910F9108950F93CD
:1038E0001F93182F80E060E040E820E4012F0E9441
:1038F000131F10926C042091C1043091CA0480916E
:10390000C304882349F4822F90E047966CE070E06E
:103910000E94612C282F2F5F8FEF8093700480937B
:103920006F0480936E0480936D04832F6AE00E947D
:10393000412C90937404832F0E94412C8093730434
:10394000822F0E94412C90937204822F0E94412C5E
:103950008093710421C084E660E04091700420915E
:103960007404012F0E94B01885E460E040916F0458
:10397000209173040E94B0188FE160E040916E04C2
:10398000209172040E94B01880E060E040916D04C4
:10399000209171040E94B01880916C048F5F809315
:1039A0006C0481508132B8F287E192E060E00E94BD
:1039B000451D8091710480936D0480917204809301
:1039C0006E048091730480936F04809174048093DB
:1039D0007004812F90E00E94781A10926C041F915D
:1039E0000F91089584E392E060E00E94451D80E815
:1039F00090E00E94B91D82E292E060E00E94451DC5
:103A000080E490E00E94B91D81E292E061E00E94B2
:103A1000451D08959093C5008093C40088E180936C
:103A2000C1008EE08093C200519A5098089506C05C
:103A300090E000009F5F9E31E1F781508823C1F73D
:103A4000089548EC50E009C020E137E2FA013197CF
:103A5000F1F721503040D1F781508823A9F708951C
:103A6000982F8091C00085FFFCCF9093C60080E026
:103A700090E008958091C00087FFFCCF8091C60040
:103A800008958091C00080780895AC0120E007C0BF
:103A90008091C00085FFFCCF3093C6002F5FFA01F4
:103AA000E20FF11D3491332399F7662371F0809171
:103AB000C00085FFFCCF8AE08093C6008091C000E3
:103AC00085FFFCCF8DE08093C6000895FC0107C000
:103AD0008091C00085FFFCCF31969093C600908105
:103AE0009923B1F70895282F982F92959F709A30B7
:103AF00030F48091C00085FFFCCF905D05C08091BF
:103B0000C00085FFFCCF995A9093C600822F90E0A9
:103B10008F7090700A973CF48091C00085FFFCCFB5
:103B20002F70205D06C08091C00085FFFCCF2F70F4
:103B3000295A2093C60008951F93182F892F0E9499
:103B4000731D812F0E94731D1F910895EF92FF92A4
:103B50000F931F937B018C01C801AA27BB270E94EA
:103B60009C1DC7010E949C1D1F910F91FF90EF901B
:103B700008950F931F93CF93DF938C01E0E1F7E259
:103B800040E0C0E0D0E0C801BF010E944D2C262FCC
:103B9000662329F4442319F4E130F10549F48091B6
:103BA000C00085FFFCCF205D2093C600205341E07C
:103BB000CF016AE070E00E944D2C2196C530D105FE
:103BC00071F0822F90E09C012E9FC0012F9F900DDD
:103BD0003E9F900D1124081B190BFB01D4CFDF91E0
:103BE000CF911F910F9108951F93CF93DF93482F8B
:103BF00087FF08C08091C00085FFFCCF8DE28093D5
:103C0000C6004195E4E6F0E010E0C0E0D0E0842F8B
:103C1000992787FD9095BF010E944D2C262F1616DF
:103C20002CF0112319F4E130F10549F48091C00022
:103C300085FFFCCF205D2093C600205311E0CF010B
:103C40006AE070E00E944D2C2196C330D10531F01E
:103C50002E9F802D1124481BFB01D9CFDF91CF91DE
:103C60001F9108954F925F926F927F928F929F92D1
:103C7000AF92BF92CF92DF92EF92FF920F931F937A
:103C8000CF93DF934B015C01E12C9AECF92E9AE97A
:103C9000092F9BE3192F4424C0E0D0E0C501B401F3
:103CA000A80197010E94742CD22E222341F44420B3
:103CB00031F481E0E816F1040105110561F4809109
:103CC000C00085FFFCCF80E3D80ED092C60080ED07
:103CD000D80E44244394C801B7012AE030E040E004
:103CE00050E00E94742CC22E732E642E552E219605
:103CF000CA30D105A9F06D2D70E080E090E0A801F8
:103D000097010E94222C861A970AA80AB90A2C2D1C
:103D1000372D462D552DC901DA017C018D01BECF0D
:103D2000DF91CF911F910F91FF90EF90DF90CF9097
:103D3000BF90AF909F908F907F906F905F904F90CB
:103D4000089508950F931F93CF93DF93482F30E08A
:103D500020E006C08D5B9D4FFC018491280F3F5FE2
:103D6000822F90E03417B0F3FC01ED5BFD4F04911E
:103D7000EC01CC5BDD4F10E006C0FE0184910E9497
:103D8000A2221F5F21961017C0F3DF91CF911F91E0
:103D90000F910895DF92EF92FF920F931F93CF93AD
:103DA000DF93D62E95E0899FC0011124EC01CA54FF
:103DB000DE4F8E012BEBE22E21E0F22EE80EF91EF3
:103DC000DD2021F0FE018491809502C0F8018491EC
:103DD0000E94A22221960F5F1F4FCE15DF0581F7AB
:103DE000DD2011F08FEF01C080E00E94A22280E070
:103DF0000E94ED22DF91CF911F910F91FF90EF90E4
:103E0000DF9008951F93CF93DF93EC01162F04C02A
:103E1000612F0E94CA1E219688818823C9F7DF91ED
:103E2000CF911F9108952F923F924F925F926F9280
:103E30007F928F929F92AF92BF92CF92DF92EF923A
:103E4000FF920F931F93CF93DF93282E162F342EBC
:103E5000F22E402EC62FD0E0C770D070209709F404
:103E60005BC0562E569456945694EE2467E0C62EA8
:103E7000C1228C2C992487FC90945E01A20EB11C67
:103E800051E0652E712C35C0DE2CD20C8D2D652DA8
:103E90000E94FA220E9456220E945622082F40E0D9
:103EA00050E015C081E0481641F4C30102C0880FFC
:103EB000991F2A95E2F7082B08C0C30102C0880F9A
:103EC000991F2A95E2F7809508234F5F5F4F9A016B
:103ED000280D391D2A153B0524F48C2D840F8830BC
:103EE00009F78D2D652D0E94FA22802F0E94A222B3
:103EF000E394E31448F22F2D30E088E090E08C1B2F
:103F00009D0B8217930714F0FF2404C0812F877044
:103F10008850F80E187F185FE12EE694E694E69438
:103F2000C12FD0E0CF0DD11D43E0D595C7954A955F
:103F3000E1F712C0822D6E2D0E94FA2210E009C016
:103F400081E0481611F48FEF01C080E00E94A222A8
:103F50001F5F1315A8F3E3948E2D90E08C179D0737
:103F60004CF32F2D2770C9F100E0C22FD0E031E0D3
:103F7000A32EB12C30C0F02EF20C8F2D6E2D0E948E
:103F8000FA220E9456220E945622182F20E030E08A
:103F900017C081E0481649F4C501022E02C0880FFF
:103FA000991F0A94E2F7182B09C0C501022E02C01E
:103FB000880F991F0A94E2F7809518232F5F3F4FCF
:103FC0002C173D0734F38F2D6E2D0E94FA22812F7E
:103FD0000E94A2220F5F031570F280E00E94ED2282
:103FE000DF91CF911F910F91FF90EF90DF90CF90D5
:103FF000BF90AF909F908F907F906F905F904F9009
:104000003F902F9008952F923F924F925F926F9220
:104010007F928F929F92AF92BF92CF92DF92EF9258
:10402000FF920F931F93DF93CF9300D00F92CDB7E2
:10403000DEB7382E462E522E262E281AA42EBB244A
:10404000C501880F991F22273327281B390B2D5FA5
:104050003F4F3B832A838824992466247724362F74
:1040600032193983182DD42CDA187501EE0CFF1C87
:10407000882D830D6D2D41E02E2D052D0E94131FDF
:10408000832D88196D2D41E02E2D0E94131FF42CD5
:10409000F818110F89818A0D6F2D41E0212F0E94A0
:1040A000131F8D2D82196F2D41E0212F0E94131FA8
:1040B0008A819B8197FF06C00696860D971D9B837C
:1040C0008A8311C0EA81FB813A96C4018A199B094F
:1040D000880F991F880F991FE80FF91FFB83EA8348
:1040E0000894A108B1080894811C911C24E030E0D8
:1040F000620E731EA814B9040CF0B4CF0F900F9089
:104100000F90CF91DF911F910F91FF90EF90DF9073
:10411000CF90BF90AF909F908F907F906F905F9067
:104120004F903F902F900895CF92DF92EF92FF92A1
:104130000F931F93F82E162FC42ED22E41E00E940B
:10414000131F8F2D81508C0D612F41E02D2D0E946A
:10415000131F8F2D612F4C2D21E00E94131F115032
:104160001D0D8F2D612F4C2D21E00E94131F1F91DB
:104170000F91FF90EF90DF90CF900895EF92FF9214
:104180000F931F93F82E162F062F0695069506956A
:10419000602F0E94FA220E9456220E945622E82E88
:1041A0008F2D602F0E94FA22177081E090E002C0EC
:1041B000880F991F1A95E2F780958E210E94A222FE
:1041C00080E00E94ED221F910F91FF90EF900895E3
:1041D000EF92FF920F931F93F82E162F062F06953E
:1041E00006950695602F0E94FA220E9456220E9490
:1041F0005622E82E8F2D602F0E94FA22177081E040
:1042000090E002C0880F991F1A95E2F78E290E944C
:10421000A22280E00E94ED221F910F91FF90EF906B
:1042200008953F924F925F926F927F928F929F92EA
:10423000AF92BF92CF92DF92EF92FF920F931F93B4
:10424000CF93DF93D82EC62E322E462E481AE42E58
:10425000FF24C701880F991FCC27DD27C81BD90B66
:1042600023965D2C662E762EAA24BB2488249924BE
:1042700081E0381641F50E2D0C0D8D2D602F0E941A
:10428000E8209C2D9E19192F8D2D692F0E94E82062
:10429000852D602F0E94E820852D612F0E94E82047
:1042A0000419802F662D0E94E820802F672D0E9420
:1042B000E8201419812F662D0E94E820812F672D98
:1042C0000E94E82027C00E2D0C0D8D2D602F0E941E
:1042D000BE208C2D8E19182F8D2D612F0E94BE208F
:1042E000852D602F0E94BE20852D612F0E94BE204B
:1042F0000419802F662D0E94BE20802F672D0E94FA
:10430000BE201419812F662D0E94BE20812F672D9B
:104310000E94BE20D7FF04C02696C80DD91D0DC02F
:104320002A96C5018E199F09880F991F880F991F1A
:10433000C80FD91F0894E108F1080894A11CB11C0A
:1043400084E090E0880E991ED3945A9463947A94F2
:10435000EA14FB040CF08CCFDF91CF911F910F91E9
:10436000FF90EF90DF90CF90BF90AF909F908F9095
:104370007F906F905F904F903F9008952F982D9869
:104380002C9840985A98279A259A249A389A529AA3
:104390008BB18F708BB985B1807F85B98AB1806F01
:1043A0008AB984B18F6084B9089540985A98882357
:1043B00019F0813021F402C0409A08955A9A089564
:1043C0000E94D5218BB1806F8BB985B18F6085B983
:1043D0002F988AB18F708AB984B1807F84B92D9A61
:1043E0002C9A000000000AC02C9800000000000079
:1043F00000002C9A000000000000000089B193B179
:1044000087FDF2CF2C982D988AB1806F8AB984B13C
:104410008F6084B9789408951F93162F0E94E0212D
:104420002F982D982C9A8AB1806F8AB984B18F60A9
:1044300084B98BB18F708BB99BB1812F807F892B11
:104440008BB985B1807F85B985B11F70812B85B906
:10445000000000000000000000000000000000005C
:104460002C9878941F9108950E94E0212F988AB18A
:104470008F708AB984B1807F84B92D9A2C9A0000FC
:10448000000000000000000000000000000029B152
:1044900083B12C982D989AB1906F9AB994B19F607E
:1044A00094B978948F70207F822B08958091D704DF
:1044B00082958695869583700E94E0212F9A8AB115
:1044C0008F708AB984B1807F84B92D9A2C9A0000AC
:1044D000000000000000000000000000000099B192
:1044E00083B12C982D9878948F70907F892B0895A4
:1044F00008958093D70480E060E40E940C2210921B
:10450000D90481E060E40E940C221092DB048091C7
:10451000D704682F6F736064829586958695837043
:104520000E940C2208951F93182F8093D804186BB3
:1045300080E0612F0E940C2281E0612F0E940C22FA
:104540001F9108950F931F93182F0091D704029580
:10455000069506950370802F0E94E0212F9A2D98D2
:104560002C9A8AB1806F8AB984B18F6084B98BB17B
:104570008F708BB99BB1812F807F892B8BB985B1CF
:10458000807F85B985B11F70812B85B9000000003F
:104590000000000000000000000000002C9878944B
:1045A000E02FF0E0EE0FFF1FE752FB4F80818F5F9F
:1045B00080838091D7048F5F8093D70487FF0AC0E0
:1045C0008091D8048F5F8093D8040E94932280E06A
:1045D0000E9479221F910F9108951F93182F106C3C
:1045E00080E0612F0E940C2281E0612F0E940C224A
:1045F0001F9108951F93182F862F0E949322812FB9
:104600000E9479221F9108950F931F9300E080E08C
:10461000602F0E94FA2210E080E00E94A2221F5F19
:104620001038D1F70F5F083091F71F910F9108955F
:1046300080E00E94ED2280E060E00E94FA22109269
:10464000D9041092DA041092DB041092DC0408956D
:104650000E94BE2180E06FE30E940C2281E06FE3A4
:104660000E940C220E9404230E9418230895982F70
:1046700086E0689F802D1124692F0E94FA220895F8
:104680000895459A449A1092BE041092BD04109267
:10469000C0041092BF0480E28093B800ECEBF0E01D
:1046A0008081846080831092770480818160808320
:1046B0008081806480837894089580E28093B8003C
:1046C000089590E0611191E08E7F982B9093BA004D
:1046D00008959093BE048093BD0408959093C00400
:1046E0008093BF040895ECEBF0E080818F70806AC6
:1046F00080830895ECEBF0E080818F70806D808383
:1047000008958091BC0087FFFCCF08958093BB0083
:10471000ECEBF0E080818F708068808308958823BF
:1047200029F08091BC008F70806C04C08091BC0027
:104730008F7080688093BC0008958091BB000895BD
:104740008091B9000895982F809177048823E1F72C
:1047500082E0809377049E7F90937804A9E7B4E089
:10476000FA0102C081918D938E2F841B8617D0F39E
:104770001092990460939A048091BC008F70806AB3
:104780008093BC000895982F809177048823E1F7E7
:1047900083E0809377049160909378041092BB0437
:1047A0006093BC048091BC008F70806A8093BC00D1
:1047B000809177048823E1F7ABE9B4E0FA0102C005
:1047C0008D9181938E2F841B8617D0F30895982F97
:1047D000FA018091BC008E7F8093BC008091BC0068
:1047E0008F70806A8093BC008091BC0087FFFCCFF3
:1047F0009E7F9093BB008091BC008F7080688093F7
:10480000BC008091BC0087FFFCCF8091B90088314B
:1048100089F091E012C080818093BB008091BC0040
:104820008F7080688093BC008091BC0087FFFCCFB4
:1048300031966150662379F790E08091BC008F70CB
:10484000806D8093BC008091BC0084FFFCCF809180
:10485000BC0081608093BC00892F0895982FFA01D5
:104860008091BC008E7F8093BC008091BC008F70D3
:10487000806A8093BC008091BC0087FFFCCF916070
:104880009093BB008091BC008F7080688093BC00C7
:104890008091BC0087FFFCCF8091B900803481F00B
:1048A00091E01EC08091BC008F70806C8093BC0032
:1048B0008091BC0087FFFCCF8091BB008193615049
:1048C000623080F78091BC008F7080688093BC005C
:1048D0008091BC0087FFFCCF8091BB00808390E07B
:1048E0008091BC008F70806D8093BC008091BC0073
:1048F00081608093BC00892F08958091770408958A
:104900001F920F920FB60F9211242F933F934F9344
:104910005F936F937F938F939F93AF93BF93EF9327
:10492000FF938091B900887F883609F4CCC089361E
:1049300088F5803309F495C08133B0F4803109F4EF
:104940005AC0813138F4882309F43CC1883009F019
:1049500046C151C0803209F484C0883209F453C082
:10496000883109F03CC14FC0883409F47AC08934D9
:1049700038F4883309F478C0803409F030C192C02B
:10498000883509F45DC0803609F49DC0803509F092
:1049900026C174C0803A09F4BCC0813AB0F48038B2
:1049A00009F49CC0813838F4803709F48CC088370A
:1049B00009F015C188C0803909F490C0883909F41C
:1049C000A2C0883809F00BC19EC0883B09F4CFC053
:1049D000893B38F4883A09F4B4C0803B09F0FFC041
:1049E000B0C0883C09F4DEC0883F09F4E5C0803CD3
:1049F00009F0F5C0D7C083E895E060E00E94451D4E
:104A00008091780414C084E695E060E00E94451D22
:104A10009091990480919A04981708F0D8C0E92FD2
:104A2000F0E0E758FB4F80819F5F9093990480935B
:104A3000BB008091BC008F7080688093BC00CFC0A9
:104A40008FE495E060E00E94451D8091BB04909149
:104A5000BB00E82FF0E0E556FB4F90838F5F80931B
:104A6000BB0489E295E0B0C085E195E060E00E947A
:104A7000451D8091BC008F708068ADC081E095E0DD
:104A800060E00E94451D8091BB009091BB04E92F1E
:104A9000F0E0E556FB4F80839F5F9093BB0490E06E
:104AA0000E949C1D8EEE94E060E00E94451D2091C6
:104AB000BB0430E08091BC0490E0019728173907CF
:104AC0000CF0B7CF6AC08BED94E060E00E94451D0A
:104AD00085E0809377041092BB045FC087EC94E07C
:104AE00060E00E94451D8091BB049091BB00E82FBF
:104AF000F0E0E556FB4F90838F5F8093BB048032DC
:104B000008F097CF4AC082EB94E060E00E94451D18
:104B100090CF8FE994E060E00E94451D8091BC0039
:104B20008F70806C8093BC00E091BD04F091BE0456
:104B3000309709F452C08091BB046BE974E0099589
:104B40004CC08CE894E060E00E94451D84E08093B6
:104B50007704E091BF04F091C004309731F080E217
:104B600069E774E0099580939A041092990488E7A4
:104B700094E060E00E94451D90919904E92FF0E0D7
:104B8000E758FB4F80818093BB009F5F909399040F
:104B900080919A04981708F04CCF8091BC008F70D8
:104BA000806C4BCF86E594E060E00E94451D8091CB
:104BB000BC008F70806C0FC087E494E060E00E94BE
:104BC000451D0DC086E394E060E00E94451D809184
:104BD000BC008F70806D8093BC0010927704FF91B1
:104BE000EF91BF91AF919F918F917F916F915F9165
:104BF0004F913F912F910F900FBE0F901F901895DE
:104C0000EF92FF920F931F937B018C0120E030E025
:104C100040E05FE40E94002988238CF0C801B701BE
:104C200020E030E040E05FE40E9478270E946029A5
:104C30009B01AC01205030404040504806C0C801A4
:104C4000B7010E9460299B01AC01B901CA011F9103
:104C50000F91FF90EF900895A0E0B0E0E2E3F6E25C
:104C60000C94B12CDC012B01FA019C91923008F4D8
:104C700039C1EB018881823008F433C1943069F482
:104C8000843009F02FC111969C9111978981981752
:104C900009F428C1AEE4B3E025C1843009F421C190
:104CA0008230A9F4923009F01DC19A01AD0188E06B
:104CB000EA010990AE01E90109929E018150C1F714
:104CC000E201898111969C918923818308C19230E8
:104CD00009F407C112962D903C901397EB018A813D
:104CE0009B811496AD90BD90CD90DC901797EC8091
:104CF000FD800E811F819101281B390BB90137FFFF
:104D000004C066277727621B730B603271050CF0B5
:104D100061C0121613066CF537014801062E04C057
:104D200096948794779467940A94D2F721E030E0C0
:104D300040E050E004C0220F331F441F551F6A9506
:104D4000D2F721503040404050402E213F21402397
:104D50005123211531054105510521F021E030E0B5
:104D600040E050E079018A01E628F728082919294E
:104D70003CC0232BD1F1260E371E35014601062EED
:104D800004C096948794779467940A94D2F721E0AC
:104D900030E040E050E004C0220F331F441F551F95
:104DA0006A95D2F721503040404050402A213B21A3
:104DB0004C215D21211531054105510521F021E0EE
:104DC00030E040E050E059016A01A628B728C82821
:104DD000D9280BC0821593052CF01C01AA24BB24F2
:104DE000650103C0EE24FF24870111969C91D20136
:104DF00011968C91981709F445C0992339F0A801B0
:104E000097012A193B094C095D0906C0A6019501C5
:104E10002E193F09400B510B57FD08C011823382F8
:104E2000228224833583468357831DC081E081839A
:104E30003382228288279927DC01821B930BA40BE3
:104E4000B50B84839583A683B7830DC0220F331FD0
:104E5000441F551F24833583468357838281938162
:104E60000197938382832481358146815781DA01BA
:104E7000C9010197A109B1098F5F9F4FAF4FBF4390
:104E800028F30BC0918333822282EA0CFB1C0C1D99
:104E90001D1DE482F5820683178383E080832481CD
:104EA00035814681578157FF1AC0C901AA2797FD4E
:104EB000A095BA2F81709070A070B07056954795EC
:104EC00037952795822B932BA42BB52B8483958321
:104ED000A683B78382819381019693838283DF01C6
:104EE00001C0D201CD01CDB7DEB7E2E10C94CD2CEB
:104EF000A0E2B0E0EEE7F7E20C94BD2C69837A8380
:104F00008B839C832D833E834F835887E9E0EE2E6D
:104F1000F12CEC0EFD1ECE010196B7010E94512B23
:104F20008E010F5E1F4FCE010596B8010E94512BD6
:104F30008A8991E089278A8BC701B801AE01475E53
:104F40005F4F0E942C260E947C2AA096E6E00C94DB
:104F5000D92CA0E2B0E0EFEAF7E20C94BD2C698313
:104F60007A838B839C832D833E834F835887F9E01C
:104F7000EF2EF12CEC0EFD1ECE010196B7010E9422
:104F8000512B8E010F5E1F4FCE010596B8010E9476
:104F9000512BC701B801AE01475E5F4F0E942C261E
:104FA0000E947C2AA096E6E00C94D92CA0E2B0E006
:104FB000ECEDF7E20C94B12C69837A838B839C83AC
:104FC0002D833E834F835887CE010196BE01675FD4
:104FD0007F4F0E94512BCE010596BE016F5E7F4F21
:104FE0000E94512B9985923088F089898230C8F0CF
:104FF000943019F4823051F404C0843029F4923092
:1050000081F48EE493E0C6C0923049F420E09A85A2
:105010008A89981321E02A87CE010996BBC0823085
:1050200049F420E09A858A89981321E02A8BCE01E1
:105030004196B0C02D843E844F8458886D887E8808
:105040008F88988CEE24FF248701AA24BB24650155
:1050500040E050E060E070E0E0E0F0E0C10181702D
:105060009070892BE9F0E60CF71C081D191D9A01B8
:10507000AB012A0D3B1D4C1D5D1D80E090E0A0E0C2
:10508000B0E0E614F7040805190520F481E090E08B
:10509000A0E0B0E0BA01A901480F591F6A1F7B1FA9
:1050A000AA0CBB1CCC1CDD1C97FE08C081E090E064
:1050B000A0E0B0E0A82AB92ACA2ADB2A3196E03259
:1050C000F10549F0660C771C881C991C569447948E
:1050D00037942794C3CFFA85EA892B893C898B853D
:1050E0009C85280F391F2E5F3F4F17C0CA01817062
:1050F0009070892B61F016950795F794E79480E0FE
:1051000090E0A0E0B0E8E82AF92A0A2B1B2B76955C
:105110006795579547952F5F3F4F77FDE7CF0CC0B9
:10512000440F551F661F771F17FD4160EE0CFF1CD3
:10513000001F111F21503040403090E0590790E08F
:10514000690790E4790760F32B8F3C8FDB01CA017C
:105150008F779070A070B07080349105A105B10573
:1051600061F447FD0AC0E114F1040105110529F0BD
:10517000405C5F4F6F4F7F4F40781A8EFE1711F0E3
:1051800081E08A8F4D8F5E8F6F8F78A383E0898F48
:10519000CE0149960E947C2AA096E2E10C94CD2C87
:1051A000A8E1B0E0E6EDF8E20C94BD2C69837A83C7
:1051B0008B839C832D833E834F83588789E0E82E21
:1051C000F12CEC0EFD1ECE010196B7010E94512B71
:1051D0008E010F5E1F4FCE010596B8010E94512B24
:1051E0008985823040F08989823028F0C701B80172
:1051F0000E94C92B01C08FEF6896E6E00C94D92C71
:10520000A8E1B0E0E6E0F9E20C94BD2C69837A8372
:105210008B839C832D833E834F83588789E0E82EC0
:10522000F12CEC0EFD1ECE010196B7010E94512B10
:105230008E010F5E1F4FCE010596B8010E94512BC3
:105240008985823040F08989823028F0C701B80111
:105250000E94C92B01C08FEF6896E6E00C94D92C10
:10526000A8E1B0E0E6E3F9E20C94BD2C69837A830F
:105270008B839C832D833E834F83588789E0E82E60
:10528000F12CEC0EFD1ECE010196B7010E94512BB0
:105290008E010F5E1F4FCE010596B8010E94512B63
:1052A0008985823040F08989823028F0C701B801B1
:1052B0000E94C92B01C081E06896E6E00C94D92CCD
:1052C000ACE0B0E0E6E6F9E20C94C12C69837A83A5
:1052D0008B839C83CE010196BE016B5F7F4F0E9442
:1052E000512B8D81823061F1823050F1843021F474
:1052F0008E81882351F12EC02F81388537FD20C043
:105300006E812F3131051CF06623F9F023C08EE148
:1053100090E0821B930B29853A854B855C8504C000
:1053200056954795379527958A95D2F76623B1F01C
:1053300050954095309521953F4F4F4F5F4F0EC090
:1053400020E030E040E050E009C02FEF3FEF4FEFAA
:105350005FE704C020E030E040E050E8B901CA0156
:105360002C96E2E00C94DD2CA8E0B0E0EAEBF9E248
:105370000C94B92C7B018C01611571058105910597
:1053800019F482E0898360C083E089838EE1C82EAE
:10539000D12CDC82CB82ED82FE820F831887C8017C
:1053A000B7010E942D2AFC013197F7FF3BC022274D
:1053B00033272E1B3F0B57016801022E04C0D694E1
:1053C000C794B794A7940A94D2F740E050E060E005
:1053D00070E081E090E0A0E0B0E004C0880F991F89
:1053E000AA1FBB1F2A95D2F70197A109B1098E21E7
:1053F0009F21A023B1230097A105B10521F041E031
:1054000050E060E070E04A295B296C297D294D83DA
:105410005E836F8378878EE190E08E1B9F0B9C8369
:105420008B8312C0309781F00E2E04C0EE0CFF1C4F
:10543000001F111F0A94D2F7ED82FE820F83188796
:10544000CE1ADF0ADC82CB821A82CE0101960E943C
:105450007C2A2896EAE00C94D52CEF92FF920F93C9
:105460001F937B018C0180E0E81680E0F80681E064
:10547000080780E0180788F48FEFE816F1040105AB
:10548000110531F028F088E090E0A0E0B0E017C00E
:1054900080E090E0A0E0B0E012C080E0E81680E09C
:1054A000F80680E0080781E0180728F088E190E01E
:1054B000A0E0B0E004C080E190E0A0E0B0E020E235
:1054C00030E040E050E0281B390B4A0B5B0B04C076
:1054D00016950795F794E7948A95D2F7F701EA5A5B
:1054E000FC4F8081281B310941095109C9011F91D5
:1054F0000F91FF90EF900895DF92EF92FF920F933C
:105500001F93FC01E480F58006811781D1808081A2
:10551000823048F480E090E0A0E1B0E0E82AF92A87
:105520000A2B1B2BA5C0843009F49FC0823021F4C4
:10553000EE24FF24870105C0E114F10401051105E3
:1055400019F4E0E0F0E096C0628173819FEF623869
:1055500079070CF05BC022E83FEF261B370B2A319E
:1055600031052CF020E030E040E050E02AC0B801E6
:10557000A701022E04C076956795579547950A9422
:10558000D2F781E090E0A0E0B0E004C0880F991F5E
:10559000AA1FBB1F2A95D2F70197A109B1098E2135
:1055A0009F21A023B1230097A105B10521F081E03F
:1055B00090E0A0E0B0E09A01AB01282B392B4A2BF8
:1055C0005B2BDA01C9018F779070A070B0708034C6
:1055D0009105A105B10539F427FF09C0205C3F4FB3
:1055E0004F4F5F4F04C0215C3F4F4F4F5F4FE0E094
:1055F000F0E02030A0E03A07A0E04A07A0E45A0714
:1056000010F0E1E0F0E079018A0127C0603871050F
:1056100064F5FB01E158FF4FD801C7018F77907007
:10562000A070B07080349105A105B10539F4E7FE92
:105630000DC080E490E0A0E0B0E004C08FE390E013
:10564000A0E0B0E0E80EF91E0A1F1B1F17FF05C0FF
:1056500016950795F794E794319687E01695079588
:10566000F794E7948A95D1F705C0EE24FF248701CB
:10567000EFEFF0E06E2F679566276795902F9F7785
:10568000D794DD24D7948E2F8695492F462B582FFB
:105690005D29B701CA011F910F91FF90EF90DF9034
:1056A0000895FC01DB01408151812281622F6F77D7
:1056B00070E0221F2227221F9381892F880F822BBF
:1056C000282F30E0991F9927991F11969C931197C5
:1056D00021153105A9F5411551056105710511F433
:1056E00082E037C082E89FEF13969C938E931297C7
:1056F0009A01AB0167E0220F331F441F551F6A95C3
:10570000D1F783E08C930DC0220F331F441F551F28
:1057100012968D919C911397019713969C938E935B
:105720001297203080E0380780E0480780E458076F
:1057300058F314962D933D934D935C9317970895CA
:105740002F3F310579F4411551056105710519F4B3
:1057500084E08C93089564FF03C081E08C9312C0B1
:105760001C9210C02F57304013963C932E931297E3
:1057700083E08C9387E0440F551F661F771F8A953F
:10578000D1F7706414964D935D936D937C93179746
:1057900008951F93DC01FB019C91923008F447C0EF
:1057A0008081823008F443C0943051F411961C91EA
:1057B000843099F58181682F70E0611B71093FC0C9
:1057C000843021F0923031F48230B9F18181882324
:1057D00089F12DC011961C9111978230F1F08181D1
:1057E0001817D9F412962D913C91139782819381C9
:1057F0008217930794F028173907BCF014968D91FF
:105800009D910D90BC91A02D2481358146815781B9
:10581000281739074A075B0718F4112341F00AC01B
:1058200082179307A407B50740F4112319F061E02C
:1058300070E005C06FEF7FEF02C060E070E0CB0169
:105840001F910895629FD001739FF001829FE00D28
:10585000F11D649FE00DF11D929FF00D839FF00DEF
:10586000749FF00D659FF00D9927729FB00DE11D9B
:10587000F91F639FB00DE11DF91FBD01CF01112478
:105880000895991B79E004C0991F961708F0961B9C
:10589000881F7A95C9F780950895AA1BBB1B51E113
:1058A00007C0AA1FBB1FA617B70710F0A61BB70B90
:1058B000881F991F5A95A9F780959095BC01CD0135
:1058C000089597FB092E07260AD077FD04D0E5DF5F
:1058D00006D000201AF4709561957F4F0895F6F771
:1058E000909581959F4F0895A1E21A2EAA1BBB1B8C
:1058F000FD010DC0AA1FBB1FEE1FFF1FA217B3079C
:10590000E407F50720F0A21BB30BE40BF50B661FB1
:10591000771F881F991F1A9469F760957095809575
:1059200090959B01AC01BD01CF01089597FB092E15
:1059300005260ED057FD04D0D7DF0AD0001C38F45E
:1059400050954095309521953F4F4F4F5F4F0895AB
:10595000F6F790958095709561957F4F8F4F9F4F8B
:1059600008952F923F924F925F926F927F928F9203
:105970009F92AF92BF92CF92DF92EF92FF920F93DE
:105980001F93CF93DF93CDB7DEB7CA1BDB0B0FB6E8
:10599000F894DEBF0FBECDBF09942A8839884888A5
:1059A0005F846E847D848C849B84AA84B984C8843B
:1059B000DF80EE80FD800C811B81AA81B981CE0F32
:1059C000D11D0FB6F894DEBF0FBECDBFED01089517
:1059D000F999FECF92BD81BDF89A992780B50895B7
:1059E000262FF999FECF1FBA92BD81BD20BD0FB6FB
:1059F000F894FA9AF99A0FBE01960895F894FFCF99
:105A000001436F6E66696775726174696F6E204DD0
:105A1000656E750053657420416C61726D3A20208B
:105A2000005365742054696D653A200053657420F5
:105A3000446174653A2020200053657420726567C4
:105A4000696F6E3A20005553203132687200555309
:105A50002032346872004555203132687200455555
:105A6000203234687200536574204261636B6C6944
:105A70006768743A20005072657373204D454E5527
:105A800020746F20616476616E6365005072657387
:105A9000732053455420746F2073657400507265F1
:105AA0007373202B20746F206368616E67652068B4
:105AB000722E0050726573732053455420746F200A
:105AC00073657420686F7572005072657373202B54
:105AD00020746F206368616E6765206D696E005089
