:100000000C94F0010C940D020C940D020C941C1035
:100010000C940D020C940D020C940D020C940D0224
:100020000C940D020C9417050C940D020C94820292
:100030000C940D020C940F020C9421020C940D02EE
:100040000C940D020C940D020C940D020C940D02F4
:100050000C940D020C94740F0C940D020C940D0270
:100060000C94FE190C940D02FA3E1A7ADE8EF62ECE
:100070006078AE1CAA2A3ACEF30AB61E3838B86E9B
:1000800076DA6800FC60DAF266B6BEE0FEE684006E
:100090000B3E41414141424242423C0006FFFFFFCC
:1000A000FFFFFF000000000000005F0000000700ED
:1000B0000700147F147F14242A7F2A122313086454
:1000C0006236495522500005030000001C22410001
:1000D0000041221C00082A1C2A0808083E080800C3
:1000E0005030000008080808080060600000201078
:1000F0000804023E5149453E00427F4000426151A2
:1001000049462141454B311814127F10274545457A
:10011000393C4A4949300171090503364949493694
:10012000064949291E0036360000005636000000F8
:10013000081422411414141414412214080002015A
:10014000510906324979413E7E1111117E7F49499C
:1001500049363E414141227F4141221C7F49494964
:10016000417F090901013E414151327F0808087F62
:1001700000417F41002040413F017F081422417F20
:10018000404040407F0204027F7F0408107F3E41D0
:1001900041413E7F090909063E4151215E7F09190F
:1001A0002946464949493101017F01013F4040400C
:1001B0003F1F2040201F7F2018207F6314081463F6
:1001C0000304780403615149454300007F41410223
:1001D0000408102041417F00000402010204404055
:1001E000404040000102040020545454787F4844A9
:1001F00044383844444420384444487F38545454A4
:1002000018087E090102081454543C7F080404783D
:1002100000447D40002040443D00007F1028440001
:10022000417F40007C041804787C0804047838443A
:100230004444387C14141408081414187C7C0804F2
:1002400004084854545420043F4440203C4040207B
:100250007C1C2040201C3C4030403C44281028445A
:100260000C5050503C4464544C440008364100004B
:10027000007F0000004136080008082A1C08081CFE
:100280002A08084932433A204255535F4552524F9B
:10029000520D0A004932433A204E4F5F494E464FB5
:1002A0000D0A004932433A2053542D3E44415441F3
:1002B0005F4E41434B206F72204C4153545F444189
:1002C00054410D0A004932433A2053542D3E4441D3
:1002D00054415F41434B0D0A004932433A20535485
:1002E0002D3E534C415F41434B0D0A004932433A86
:1002F0002053522D3E53525F53544F500D0A004924
:1003000032433A2053522D3E444154415F4E4143C3
:100310004B0D0A004932433A2053522D3E4441547A
:10032000415F41434B0D0A004932433A2053522D5D
:100330003E534C415F41434B0D0A004932433A2042
:100340004D522D3E534C415F41434B0D0A00493203
:10035000433A204D522D3E444154415F41434B0DA1
:100360000A004932433A204D542D3E4152425F4CDF
:100370004F53540D0A004932433A204D54522D3EFA
:10038000534C415F4E41434B206F72204D542D3EE4
:10039000444154415F4E41434B0D0A004932433AB8
:1003A000204D522D3E444154415F4E41434B0D0A76
:1003B000004932433A204D542D3E534C415F414356
:1003C0004B206F7220444154415F41434B0D0A0062
:1003D0004932433A204D2D3E53544152540D0A00A8
:1003E00011241FBECFEFD8E0DEBFCDBF14E0A0E0E8
:1003F000B1E0E0E0F5E402C005900D92A636B10749
:10040000D9F714E0A6E6B4E001C01D92A03EB10702
:10041000E1F70E9491060C947E220C9400001F923A
:100420000F920FB60F9211248F939F9388B198E08B
:10043000892788B99F918F910F900FBE0F901F90C1
:1004400018951F920F920FB60F9211248F939F93BE
:1004500080916E0490916F04892B49F080916E0415
:1004600090916F04019790936F0480936E04809134
:10047000D4049091D504892B49F08091D4049091B3
:10048000D50401979093D5048093D4048091D2042D
:10049000882389F180916C0490916D04892B59F522
:1004A0008091C9049091CA04892BE1F48CE291E017
:1004B0009093CA048093C90480918100882379F4C1
:1004C0001092800089E08093810083E080936F0028
:1004D00088EE93E0909389008093880003C0109287
:1004E000810043988091C9049091CA040197909328
:1004F000CA048093C9049F918F910F900FBE0F90F3
:100500001F9018951F920F920FB60F9211248F9380
:100510009F9388B198E0892788B99F918F910F9018
:100520000FBE0F901F901895AF92BF92CF92DF929F
:10053000EF92FF920F931F93E62E1092800029E016
:100540002093810023E020936F009C0140E050E065
:1005500060E079E08DE390E00E94162230938900FC
:1005600020938800FF2400E010E0C801B7010E943A
:10057000341F5B016C0120E030E04AEF54E40E943C
:10058000561D7B018C0120E030E040E85FE30E94D3
:10059000B01E88231CF461E070E024C0C801B701DC
:1005A00020E03FEF4FE757E40E94501E1816B4F4C6
:1005B000C601B50120E030E040E251E40E94561D42
:1005C0000E94801B88EC90E005C0FC013197F1F798
:1005D0006150704061157105C1F707C0C801B701CE
:1005E0000E94801BCB010197F1F710928100439884
:1005F0001F910F91FF90EF90DF90CF90BF90AF9041
:1006000008951E9B16C08091CF04882311F110928B
:10061000CF041092D80410926D0410926C04809153
:10062000D2048823B1F01092D20410928100439832
:1006300008958091CF04882361F481E08093CF04F2
:1006400010926D0410926C0483E080936B0480938D
:100650006A040895FC0183709070892B39F4CF01EE
:1006600064E670E00E94CD21892B49F420E030E05F
:10067000CF0160E971E00E94CD21892B11F421E0C6
:1006800030E0822F08950895482F6AE00E94C1212A
:10069000282F30E084E0220F331F8A95E1F7842F62
:1006A0000E94C121892F822B089588E592E09093C2
:1006B0006D0480936C041092810043981092D304CF
:1006C00008950F931F93182F062F6AE00E94C121EF
:1006D000805D602F0E944314812F6AE00E94C12137
:1006E000892F805D602F0E9443141F910F91089500
:1006F000CF92DF92EF92FF920F931F93DF93CF93EE
:10070000CDB7DEB728970FB6F894DEBF0FBECDBFCA
:10071000162FF42ED22EFE01319698E0DF011D92A5
:100720009A95E9F719820E9444038A83812F0E94D7
:1007300044038B838F2D0E9444038C838D2D0E9454
:1007400044038D83802F0E9444038E838E2D0E944C
:1007500044038F838C2D0E9444038887F89480ED96
:1007600068E0AE014F5F5F4F0E9464197894882360
:10077000D9F008EC10E080EA9FE064E60E94940261
:1007800088EE93E0F8013197F1F70197D9F780EA05
:100790009FE064E60E94940280E197E2F8013197BD
:1007A000F1F70197D9F7E7CF28960FB6F894DEBF97
:1007B0000FBECDBFCF91DF911F910F91FF90EF90B2
:1007C000DF90CF9008950F931F93DF93CF93CDB712
:1007D000DEB729970FB6F894DEBF0FBECDBF1982E2
:1007E000F89480ED61E0AE014F5F5F4F0E946419A5
:1007F0008823E1F008EC10E0789480EA9FE064E65A
:100800000E94940288EE93E0F8013197F1F7019786
:10081000D9F780EA9FE064E60E94940280E197E2C3
:10082000F8013197F1F70197D9F7E6CF80ED67E04E
:10083000AE014E5F5F4F0E94AB1978948823D9F0C8
:1008400008EC10E080EA9FE064E60E94940288EEE3
:1008500093E0F8013197F1F70197D9F780EA9FE02B
:1008600064E60E94940280E197E2F8013197F1F783
:100870000197D9F7E7CF7A81872F82958F7090E023
:10088000877090709C01A3E0220F331FAA95E1F7B7
:10089000880F991F280F391F872F8F70820F809321
:1008A000D7044B81842F82958F7090E08770907071
:1008B0009C01E3E0220F331FEA95E1F7880F991FAF
:1008C000280F391F4F70420F4093CD048C81482F61
:1008D00042954F70682F6F7086FF22C08295869573
:1008E000877090E0817090709C01220F331F280F59
:1008F000391F220F331F220F331F842F90E0817086
:100900009070AC0103E0440F551F0A95E1F7880F82
:10091000991F480F591F240F260F2093C40411C09C
:10092000842F90E0837090709C01B3E0220F331FFE
:10093000BA95E1F7880F991F280F391F620F60934E
:10094000C4044E81842F82958F7090E083709070E4
:100950009C01F3E0220F331FFA95E1F7880F991FEE
:10096000280F391F4F70420F4093CC044F81842FC2
:1009700082958F7090E0817090709C0163E0220FEF
:10098000331F6A95E1F7880F991F280F391F4F70A1
:10099000420F4093D6042885822F82958F703AE0CB
:1009A000839FC00111242F70280F2093C704872F25
:1009B000807829960FB6F894DEBF0FBECDBFCF91D9
:1009C000DF911F910F910895CF92EF920F930E94A4
:1009D000BE180E94E303882359F080E060E04CE0F9
:1009E00020E001E0EE24E394B9E0CB2E0E947803EE
:1009F0000E94E30382E090E00E9468226CE30E9480
:100A0000C1219093C80481E090E00E94682268E1CF
:100A10000E94C1219093D10487E08093B10081E0CE
:100A20008093700078940F91EF90CF9008951F926B
:100A30000F920FB60F921124FF920F931F932F93D3
:100A40003F934F935F936F937F938F939F93AF9356
:100A5000BF93EF93FF93A89580917004803579F44C
:100A6000109270041091D7040091CD04F090C4044A
:100A70000E94E3038091C4048F1529F40AC08F5F9C
:100A800080937004E3C081E080936804F092CE0408
:100A900007C08091CD04801731F081E08093670416
:100AA0000093C50409C08091D704811729F081E023
:100AB000809369041093D9048091D704811709F4B5
:100AC0003FC08091D204882359F080916C049091AA
:100AD0006D04009729F0019790936D0480936C0446
:100AE00080916A04882361F180916A048150809327
:100AF0006A0480916A04882319F580916B048093BD
:100B0000790410926B0480916804882329F0809105
:100B1000CE048093C40404C080916704882321F02C
:100B20008091C5048093CD0480916804882321F4CA
:100B300080916704882321F0F092C4040093CD04CF
:100B40008091D304843061F08091D304853041F0EA
:100B50008091D304883021F08091D304863089F5C8
:100B600080917304882369F584E462E00E94771819
:100B70008091C40460E00E94FF078AE360E00E9465
:100B800043148091CD0460E00E9461038AE360E039
:100B90000E9443148091D70460E00E946103809119
:100BA000C604882371F480E260E00E9443148091BF
:100BB000C4048C3010F080E501C081E460E00E9444
:100BC00043148091CF04882399F08091D70488231F
:100BD00079F49091CD048091C804981749F49091CC
:100BE000C4048091D104981719F481E08093D8044B
:100BF00080916704882369F480916804882349F40C
:100C00008091D804882329F081E08093D204109247
:100C1000D80480917104863039F410927104809167
:100C20007704882329F409C08F5F809371040EC074
:100C30008091770481508093770480917204882397
:100C400029F080917204815080937204FF91EF919A
:100C5000BF91AF919F918F917F916F915F914F91D4
:100C60003F912F911F910F91FF900F900FBE0F900A
:100C70001F901895EF92FF920F931F93F82E162F47
:100C8000E42E21E001E00E948C14FE0C0F2D025096
:100C90001150802F612F0E9460161E5F802F612FE0
:100CA0000E94601601501350802F612F0E94601621
:100CB0001C5F802F612F0E9460161F910F91FF9083
:100CC000EF90089580E090E00E946822833C41F11B
:100CD00081E090E068E00E94702282E090E060E0B5
:100CE0000E94702283E090E060E10E94702284E024
:100CF00090E061E00E94702285E090E060E00E9458
:100D0000702286E090E060E00E94702287E090E030
:100D10006AE00E94702280E090E063EC0E94702202
:100D200008957F928F929F92AF92BF92CF92DF925F
:100D3000EF92FF920F931F93CF93DF9384B714BE6C
:100D400088E10FB6F89480936000109260000FBEA7
:100D50008AE190E00E9482123B9A0E94E4040E9481
:100D6000620685E090E00E9468228093D00486E0CD
:100D700090E00E9468228093C6040E94490F0E945E
:100D8000010382E084BD83E085BD8DE787BD80914E
:100D90006E00826080936E00539A80E28093B00070
:100DA0008091B00083608093B0008091B100886032
:100DB0008093B10080E18093B30083E090E00E94D3
:100DC00068228093B400259A80EA9FE064E60E943E
:100DD00094022FE088E190E00FB6F894A8958093F4
:100DE00060000FBE209360000E94A5180E94811829
:100DF0000E94411080E00E946D1100E010E06BE461
:100E0000E62EF12CC8E5D2E052E0752E88248394BA
:100E100043E0D42E38E0A32E26E0922E94E0B92EA3
:100E200085E0C82EF092D504E092D4048091750438
:100E3000882379F08091D204882359F010927504A8
:100E4000D0936D04C0936C0410928100439810926B
:100E5000D304133049F480916A04882329F47092F2
:100E60006B0410936A0410E080917504867039F069
:100E70001092750480926B04D0926A0413E0809102
:100E8000750480FF42C01092750410926B0410929A
:100E90006A048091D304843089F0853028F4882353
:100EA00041F0833009F511C08530A1F08830E1F4BC
:100EB00016C0B092D3040E94F50A1DC0D092D3048C
:100EC0000E9456091092000116C0C092D3040E94DD
:100ED0008C0D11C0A092D3040E94F50B0CC090920F
:100EE000D3040E94BC0C07C01092D3040E94811846
:100EF00080E00E946D118091D304882329F40E9420
:100F0000811880E00E946D1110E00E9442108091D3
:100F1000D304882341F5002369F48091D204882307
:100F200069F08091D70480FF09C081E00E946D11B3
:100F300001E019C08091D204882351F08091D2043D
:100F4000882359F0002349F08091D70480FD05C023
:100F500080E00E946D1100E006C02D9A802F90E085
:100F60000E947F112D988091D4049091D504892BF3
:100F7000D1F758CF0F931F93CF93DF93182F062FDE
:100F80008091C604882371F584E761E00E94771898
:100F90001C3010F080E501C081E460E00E94431441
:100FA0008DE460E00E94431480E561E00E947718C0
:100FB000812F90E047966CE070E00E94E121EC0107
:100FC0008930910524F09C012F5F822F10C080E2B0
:100FD00060E00E9443149E012F5C822F602F0E94CC
:100FE000431408C080E561E00E947718812F602FCC
:100FF0000E946103DF91CF911F910F9108950F938C
:101000001F93CF93DF93082F162F8091C604882358
:10101000D1F4802F90E047966CE070E00E94E121CF
:10102000EC018930910524F09C012F5F822F14C0C0
:1010300080E260E00E9443149E012F5C822F612FAA
:101040000E9443140CC080E260E00E94431480E2DE
:1010500060E00E944314802F612F0E946103DF91A2
:10106000CF911F910F9108951F93182F88E064E08E
:101070000E94771881E091E060E00E947B148091EB
:10108000D004882339F48091C604882319F48AE0B7
:1010900091E020C08091D004882339F48091C60467
:1010A000813019F487E191E015C08091D00481303E
:1010B00039F48091C604882319F484E291E00AC0CF
:1010C0008091D004813049F48091C604813029F4A4
:1010D00081E391E0612F0E947B141F910895EF92AC
:1010E000FF920F931F93F82E162FE42E022F88E005
:1010F00063E00E9477188EE391E060E00E947B1429
:101100008091D0048823B1F484E491E060E00E94EF
:101110007B1460E00B3009F461E08F2D0E946103C5
:101120008FE260E00E94431460E00C3009F461E05B
:10113000812F19C08091D0048130D9F484E491E0EA
:1011400060E00E947B1460E00C3009F461E0812FC4
:101150000E9461038FE260E00E94431460E00B3064
:1011600009F461E08F2D0E9461038FE260E00E942C
:10117000431410E00D3009F411E084E1612F0E9466
:1011800061038E2D612F0E9461031F910F91FF90CB
:10119000EF900895809173048F5F809373040E9491
:1011A000811880E060E00E9477188AE491E060E0B6
:1011B0000E947B1488E061E00E9477188DE591E041
:1011C00060E00E947B148091D10460E00E94BA0725
:1011D0008AE360E00E9443148091C80460E00E94AA
:1011E000610388E062E00E9477188AE691E060E09F
:1011F0000E947B148091C40460E00E94FF078AE390
:1012000060E00E9443148091CD0460E00E9461037D
:101210008AE360E00E9443148091D70460E00E945A
:1012200061038091C604882371F480E260E00E942B
:1012300043148091C4048C3010F080E501C081E437
:1012400060E00E9443148091D6046091CC044091E8
:10125000C70425E00E946F0880E090E00E943408F7
:1012600088E065E00E94771885E791E060E00E94E1
:101270007B148091B40060E00E94610380E066E02E
:101280000E94771885E891E060E00E947B1480E07E
:1012900067E00E9477188BE991E060E00E947B1480
:1012A000809173048150809373040895BF92CF920C
:1012B000DF92EF92FF920F931F93CF93DF931091E2
:1012C000C404D090CD04F090D7040E94CA08809145
:1012D00073048F5F8093730480E063E147E00E94B2
:1012E0003A06809173048150809373048AE080935E
:1012F000720403E08AE0B82EC8ECD0E08091750457
:1013000080FD69C180917504882321F48091760461
:10131000882319F0B092720407C080917204882368
:1013200019F41092D30457C18091750481FFDAC07B
:1013300010927504809173048F5F8093730403305F
:1013400081F584E462E00E947718812F61E00E94B9
:10135000FF0784E762E00E9477188091C604882323
:1013600061F480E260E00E9443141C3010F080E5DC
:1013700001C081E461E00E94431480E066E00E94C5
:1013800077188CEA91E060E00E947B1480E067E0CF
:101390000E94771882EC91E060E00E947B1405E6E1
:1013A0009CC00536C1F584E462E00E947718812F65
:1013B00060E00E94FF078AE360E00E9443148D2DE5
:1013C00061E00E94610380E066E00E94771888ED8A
:1013D00091E060E00E947B1480E067E00E94771853
:1013E0008EEE91E060E00E947B1484E762E00E9450
:1013F00077188091C604882361F480E260E00E943F
:1014000043141C3010F080E501C081E460E00E94CC
:10141000431406E662C0063651F58091C60488235F
:1014200011F486E501C082E662E00E9477188D2DF6
:1014300060E00E9461038AE360E00E9443148F2D04
:1014400061E00E94610380E066E00E94771884E01A
:1014500092E060E00E947B1480E067E00E947718D1
:101460008AE192E060E00E947B1407E636C080913A
:10147000C604882311F488E601C084E762E00E9474
:1014800077188F2D60E00E94610380E066E00E9483
:10149000771885E891E060E00E947B1480E067E0C7
:1014A0000E9477188BE991E060E00E947B14109312
:1014B000C404D092CD04F092D7048091D7046091F7
:1014C000CD044091C4040091CC04E090D604C090B7
:1014D000C70420E00E94780303E0809173048150E8
:1014E000809373048091750482FD04C0809176041A
:1014F00082FF04CF10927504809173048F5F8093F4
:101500007304053649F5812F90E0019668E170E09B
:101510000E94E121182F8093C40484E462E00E94B9
:101520007718812F61E00E94FF0784E762E00E9444
:1015300077188091C6048823E9F580E260E00E9474
:1015400043148091C4048C3010F080E501C081E424
:1015500061E00E9443142EC00636A1F48D2D90E068
:1015600001966CE370E00E94E121D82E8091C604C0
:10157000882311F486E501C082E662E00E947718B4
:101580008D2D15C00736B1F48F2D90E001966CE3D8
:1015900070E00E94E121F82E8091C604882311F4A6
:1015A00088E601C084E762E00E9477188F2D61E031
:1015B0000E94610380917304815080937304809131
:1015C000760482FF9BCE80ED97E0FE013197F1F724
:1015D0000197D9F793CEDF91CF911F910F91FF9093
:1015E000EF90DF90CF90BF9008950F931F93CF930C
:1015F000DF930E94CA08809173048F5F8093730405
:1016000080E06BE047E00E943A06809173048150CD
:10161000809373048AE08093720414E00AE0C8ECBB
:10162000D0E08091750480FDDBC080917504882333
:1016300021F480917604882319F00093720407C086
:1016400080917204882319F41092D304C9C0809148
:10165000750481FF74C010927504809173048F5FCC
:10166000809373041430C9F48091D10461E00E9426
:10167000BA0780E066E00E9477188CEA91E060E0AB
:101680000E947B1480E067E00E94771882EC91E072
:1016900060E00E947B1415E64DC0153631F580E5FB
:1016A00061E00E9477188091D10460E00E94BA073F
:1016B00082E661E00E9477188091C80461E00E9490
:1016C000610380E066E00E94771888ED91E060E0B9
:1016D0000E947B1480E067E00E9477188EEE91E014
:1016E00060E00E947B1416E625C080E561E00E9460
:1016F00077188091D10460E00E94BA0782E661E029
:101700000E9477188091C80460E00E94610380E025
:1017100066E00E94771885E891E060E00E947B1403
:1017200080E067E00E9477188BE991E060E00E941A
:101730007B1414E080917304815080937304809132
:10174000750482FD04C08091760482FF6ACF1092F6
:101750007504809173048F5F809373041536A1F430
:101760008091D10490E0019668E170E00E94E1214F
:101770008093D1048091D10461E00E94BA07609106
:10178000D10481E090E019C01636C9F48091C804F4
:1017900090E001966CE370E00E94E1218093C80420
:1017A00082E661E00E9477188091C80461E00E949F
:1017B00061036091C80482E090E00E9470228091F1
:1017C00073048150809373048091760482FF29CF43
:1017D00080ED97E0FE013197F1F70197D9F721CF1E
:1017E000DF91CF911F910F9108950F931F930E9446
:1017F000CA08809173048F5F8093730480E063E272
:1018000047E00E943A0680917304815080937304EC
:101810008AE08093720418E00AE08091750480FDEC
:10182000A8C080917504882321F4809176048823D0
:1018300019F00093720407C080917204882319F490
:101840001092D30496C08091750481FF3BC0109222
:101850007504809173048F5F809373041830B9F41A
:1018600081E00E94340880E066E00E94771880E3FF
:1018700092E060E00E947B1480E067E00E947718AD
:1018800086E492E060E00E947B1418E616C080E0D7
:101890000E94340880E066E00E94771885E891E0B5
:1018A00060E00E947B1480E067E00E9477188CE57E
:1018B00092E060E00E947B1418E0809173048150F4
:1018C000809373048091750482FD04C08091760436
:1018D00082FFA3CF10927504183609F09ECF809135
:1018E000C604882359F08091D0048F5F8093D00480
:1018F0008091D004823010F01092D0048091C60400
:1019000090E0882309F491E09093C60480917304D9
:101910008F5F809373040E94CA0880E066E00E9493
:10192000771880E392E060E00E947B1480E067E03B
:101930000E94771886E492E060E00E947B1480E0C9
:1019400063E247E00E943A0681E00E9434088091F9
:1019500073048150809373046091D00485E090E01B
:101960000E9470226091C60486E090E00E9470227E
:1019700054CF1F910F9108950F931F930E94CA088F
:10198000809173048F5F8093730480E066E00E940F
:10199000771882E792E060E00E947B1480E06BE2BF
:1019A00047E00E943A06809173048150809373044B
:1019B0008AE08093720416E00AE08091750480FD4D
:1019C000A8C080917504882321F48091760488232F
:1019D00019F00093720407C080917204882319F4EF
:1019E0001092D30496C08091750481FF47C0109275
:1019F0007504809173048F5F809373041630E9F44B
:101A000082E665E00E9477188091B40061E00E9450
:101A1000610380E066E00E94771888E892E060E069
:101A20000E947B1480E067E00E9477188DE992E0C5
:101A300060E00E947B1419E61CC082E665E00E940B
:101A400077188091B40060E00E94610380E066E056
:101A50000E94771882EB92E060E00E947B1480E0A5
:101A600067E00E94771885EC92E060E00E947B14AA
:101A700016E0809173048150809373048091750403
:101A800082FD04C08091760482FF97CF1092750486
:101A9000193609F092CF8091B4008F5F8093B40023
:101AA0008091B400813110F01092B40080917304E1
:101AB0008F5F809373040E94CA0880E066E00E94F2
:101AC000771880E392E060E00E947B1480E067E09A
:101AD0000E94771886E492E060E00E947B1480E028
:101AE0006BE247E00E943A0682E665E00E947718C2
:101AF0008091B40061E00E94610380917304815081
:101B0000809373046091B40083E090E00E9470229F
:101B100054CF1F910F910895BF92CF92DF92EF9211
:101B2000FF920F931F93CF93DF93F090CC0410910B
:101B3000D604D090C7040E94CA08809173048F5FB6
:101B40008093730480E06BE147E00E943A06809145
:101B500073048150809373048AE08093720405E0DB
:101B60004AE0B42EC8ECD0E08091750480FD87C1B6
:101B700080917504882321F480917604882319F0DC
:101B8000B092720407C080917204882319F41092F5
:101B9000D30475C18091750481FFDFC01092750474
:101BA000809173048F5F809373040530F1F480910A
:101BB000D004882309F451C08091D004823009F404
:101BC0004CC08091D004843009F447C08091D00487
:101BD000853009F442C08091D0048130C9F08091F1
:101BE000D004833009F086C013C00B3059F58091C2
:101BF000D004882369F08091D004823049F080912C
:101C0000D004843029F08091D004853009F050C090
:101C1000812F6F2D4D2D2CE00E946F0880E066E033
:101C20000E94771885E093E060E00E947B1480E0DA
:101C300067E00E9477188BE193E060E00E947B14DC
:101C40000CE086C00C3009F055C08091D004813082
:101C500021F08091D0048330D1F4812F6F2D4D2D50
:101C60002BE00E946F0880E066E00E94771889ED03
:101C700092E060E00E947B1480E067E00E947718A9
:101C80008FEE92E060E00E947B140BE061C08091D7
:101C9000D0048823A9F08091D004823089F080910B
:101CA000D004843069F08091D004853019F508C0E3
:101CB0008091D004813021F08091D0048330D1F420
:101CC000812F6F2D4D2D2DE00E946F0880E066E082
:101CD0000E94771881E393E060E00E947B1480E02B
:101CE00067E00E94771887E493E060E00E947B142D
:101CF0000DE02EC0812F6F2D4D2D25E00E946F0825
:101D000080E066E00E94771885E891E060E00E943C
:101D10007B1480E067E00E9477188BE991E060E037
:101D20000E947B14D092C7041093D604F092CC0486
:101D30008091D7046091CD044091C4040091CC04FB
:101D4000E090D604C090C70420E00E94780305E02C
:101D5000809173048150809373048091750482FD97
:101D600004C08091760482FFFFCE109275048091AA
:101D700073048F5F809373040B3089F51F5F1D30F0
:101D800010F011E027C01230C1F48D2D90E00E94B8
:101D90002A03882331F08DE18F1518F43DE1F32EED
:101DA00019C08D2D90E00E942A03882399F48CE1BC
:101DB0008F1580F42CE1F22E0DC0143031F0163066
:101DC00021F0193011F01B3029F48EE18F1510F439
:101DD0009EE1F92E812F6F2D4D2D2BE03DC00C3053
:101DE00069F5F3948FE18F1510F4FF24F39412300A
:101DF00099F48D2D90E00E942A03882319F08DE13B
:101E00008F15A8F08D2D90E00E942A03882389F475
:101E10008CE18F1560F00DC0143031F0163021F0D8
:101E2000193011F01B3029F48FE1F81611F4FF245A
:101E3000F394812F6F2D4D2D2CE00EC00D3071F4D9
:101E40008D2D90E0019664E670E00E94E121D82E8D
:101E5000812F6F2D4D2D2DE00E946F08809173040E
:101E60008150809373048091760482FF7DCE80ED53
:101E700097E0FE013197F1F70197D9F775CEDF9121
:101E8000CF911F910F91FF90EF90DF90CF90BF9077
:101E9000089526982E9A81E080936800EBE6F0E0A2
:101EA00080818064808382E080937C0010927B003C
:101EB000EAE7F0E08EE88083808180648083089583
:101EC00080917A00877F80937A0080917A00806485
:101ED00080937A0080917A0084FFFCCF2091780073
:101EE00030917900C90108951F920F920FB60F9299
:101EF00011242F933F934F935F936F937F938F930F
:101F00009F93AF93BF93EF93FF9378948091780062
:101F10009091790022E0803E920728F0109276049A
:101F20001092740473C022E08336920798F1809176
:101F3000740482FD6BC080E29EE40197F1F70E9479
:101F4000600F825692408E37910508F05FC082E0A4
:101F50008093770412C00E94600F825692408E37A1
:101F6000910558F0809174048B7F80937404809164
:101F7000750484608093750449C080917704882338
:101F800051F7809174048460809374048091760486
:101F900084603AC08F509140E8F08091740481FDD4
:101FA00010C080E29EE40197F1F70E94600F8E500E
:101FB00091408555914050F58091750482608093E1
:101FC0007504809174048260809374048091760417
:101FD00082601AC08091740480FD0EC080E29EE48D
:101FE0000197F1F70E94600F8F50914078F4809133
:101FF000750481608093750480917404816080937E
:1020000074048091760481608093760480917A00D4
:10201000886480937A00FF91EF91BF91AF919F9177
:102020008F917F916F915F914F913F912F910F9081
:102030000FBE0F901F9018951F920F920FB60F9220
:1020400011242F933F934F935F936F937F938F93BD
:102050009F93AF93BF93EF93FF9378940E940103F4
:10206000FF91EF91BF91AF919F918F917F916F9170
:102070005F914F913F912F910F900FBE0F901F9046
:10208000189508950895CF93DF93C82FD0E0E42FDB
:10209000F0E0E053F84F833010F42C963197262F60
:1020A00030E02F5F3F4F2E0F3F1FCE01880F991F4B
:1020B000280F391FCF019695879596958795280FFC
:1020C000391FCF0160E971E00E94CD21260F371F33
:1020D000CF0164E670E00E94CD21261B370BAE01D4
:1020E0004F5F5F4FCA01880F991F840F951F880F9C
:1020F000991F6AE070E00E94CD21C901860F971FE9
:1021000067E070E00E94CD21DF91CF910895DF92CA
:10211000EF92FF920F931F93D82EE62E10E04423E8
:1021200009F411E08D2D8E5F6E2D4EE026E0012F1B
:102130000E948C14FE2CF3948D2D8F5F6F2D41E047
:1021400024E00E948C1482E0E80E8D2D6E2D41E07B
:1021500022E00E948C148D2D805F6F2D41E024E0E1
:102160000E948C148D2D8F5E6E2D41E022E00E9426
:102170008C141F910F91FF90EF90DF900895DF92E4
:10218000EF92FF920F931F93D82E162FEE24442325
:1021900011F4EE24E394612F6E5F8D2D46E025E16E
:1021A0000E2D0E948C14FD2CF394612F6F5F8F2DE8
:1021B00044E021E00E948C1482E0D80E8D2D612F26
:1021C00042E021E00E948C14195E8F2D612F44E0C3
:1021D00021E00E948C141F5F8D2D612F42E021E0D1
:1021E0000E948C141F910F91FF90EF90DF90089543
:1021F0008436D1F0853638F4823681F0833680F427
:10220000813641F507C08636C1F08636A0F08736A4
:1022100009F51AC0862F8C5F642F09C04B5F01C07F
:102220004E5D862F8C5E0BC0862F8C5F6AE3422F3B
:102230000E94871008954E5D01C04B5F862F642F6A
:10224000422F0E94BF100895862F8C5F6DE1422FB0
:102250000E9487100895CF92DF92EF92FF920F9322
:102260001F93CF93DF93C82ED62E022FC7E0D0E066
:1022700011E6E42EFF24C7010C2E02C09595879528
:102280000A94E2F780FF05C0812F6C2D4D2D202F81
:1022900007C020E0002309F421E0812F6C2D4D2D93
:1022A0000E94F81021971F5F183629F7DF91CF9110
:1022B0001F910F91FF90EF90DF90CF900895E42F42
:1022C000F0E04A3020F4EC57FF4F449103C0E95F3F
:1022D000FF4F44910E942B1108950F93082F80E027
:1022E00060E040E820E40E948C140F91089520E003
:1022F000442309F421E044E00E947C150895FF92F4
:102300000F931F9380916B048823B1F080916B042D
:10231000833091F080E465E144E020E00E947C1588
:1023200080E46AE244E020E00E947C1580E466E0FC
:1023300044E020E00E947C1580916B048230F1F42F
:1023400080E060E042E020E00E945F118EE160E00A
:1023500040E020E00E945F118091C70464E60E9483
:10236000C121892F6AE00E94C121482F88E460E0E2
:1023700020E00E945F118091C70430C080916B04FF
:102380008130B1F58091D004882329F41091D604CE
:102390000091CC0404C01091CC040091D604812F8C
:1023A0006AE00E94C121482F80E060E020E00E94A6
:1023B0005F11812F6AE00E94C1218EE160E0492F08
:1023C00020E00E945F11802F6AE00E94C121482F07
:1023D00088E460E020E00E945F11802F6AE00E94A4
:1023E000C12186E660E0492F20E00E945F1186C08F
:1023F00080916B04882329F080916B04833009F06D
:102400007DC080916B04833029F41091D104F09049
:10241000C80404C01091C404F090CD048091C60497
:102420008823B9F4812F90E047966CE070E00E9419
:10243000E121082F0F5F1C3028F480E466E044E0BF
:1024400021E004C080E466E044E020E00E947C15C6
:1024500007C080E466E044E020E00E947C15012F84
:102460000A3048F0802F6AE00E94C121482F80E0A6
:1024700060E020E004C080E060E048E021E00E94ED
:102480005F11802F6AE00E94C1218EE160E0492F38
:1024900020E00E945F118F2D6AE00E94C121482F29
:1024A00088E460E020E00E945F118F2D6AE00E94C6
:1024B000C12186E660E0492F20E00E945F118091F3
:1024C0006904882379F08091D70480FF0BC080E4F1
:1024D00065E144E021E00E947C1580E46AE244E08A
:1024E00021E00AC080E465E144E020E00E947C1520
:1024F00080E46AE244E020E00E947C151F910F9185
:10250000FF9008959093C5008093C40088E1809364
:10251000C1008EE08093C200519A5098089506C081
:1025200090E000009F5F9E31E1F781508823C1F762
:10253000089548EC50E009C020E137E2FA013197F4
:10254000F1F721503040D1F781508823A9F7089541
:10255000982F8091C00085FFFCCF9093C60080E04B
:1025600090E008958091C00087FFFCCF8091C60065
:1025700008958091C00080780895AC0120E007C0E4
:102580008091C00085FFFCCF3093C6002F5FFA0119
:10259000E20FF11D3491332399F7662371F0809196
:1025A000C00085FFFCCF8AE08093C6008091C00008
:1025B00085FFFCCF8DE08093C6000895FC0107C025
:1025C0008091C00085FFFCCF31969093C60090812A
:1025D0009923B1F70895282F982F92959F709A30DC
:1025E00030F48091C00085FFFCCF905D05C08091E4
:1025F000C00085FFFCCF995A9093C600822F90E0CF
:102600008F7090700A973CF48091C00085FFFCCFDA
:102610002F70205D06C08091C00085FFFCCF2F7019
:10262000295A2093C60008951F93182F892F0E94BE
:10263000EB12812F0E94EB121F910895EF92FF92EF
:102640000F931F937B018C01C801AA27BB270E940F
:102650001413C7010E9414131F910F91FF90EF9064
:1026600008950F931F93CF93DF938C01E0E1F7E27E
:1026700040E0C0E0D0E0C801BF010E94CD21262F7C
:10268000662329F4442319F4E130F10549F48091DB
:10269000C00085FFFCCF205D2093C600205341E0A1
:1026A000CF016AE070E00E94CD212196C530D105AE
:1026B00071F0822F90E09C012E9FC0012F9F900D02
:1026C0003E9F900D1124081B190BFB01D4CFDF9105
:1026D000CF911F910F9108951F93CF93DF93482FB0
:1026E00087FF08C08091C00085FFFCCF8DE28093FA
:1026F000C6004195E4E6F0E010E0C0E0D0E0842FB1
:10270000992787FD9095BF010E94CD21262F16168F
:102710002CF0112319F4E130F10549F48091C00047
:1027200085FFFCCF205D2093C600205311E0CF0130
:102730006AE070E00E94CD212196C330D10531F0CE
:102740002E9F802D1124481BFB01D9CFDF91CF9103
:102750001F9108954F925F926F927F928F929F92F6
:10276000AF92BF92CF92DF92EF92FF920F931F939F
:10277000CF93DF934B015C01E12C9AECF92E9AE99F
:10278000092F9BE3192F4424C0E0D0E0C501B40118
:10279000A80197010E94F421D22E222341F4442063
:1027A00031F481E0E816F1040105110561F480912E
:1027B000C00085FFFCCF80E3D80ED092C60080ED2C
:1027C000D80E44244394C801B7012AE030E040E029
:1027D00050E00E94F421C22E732E642E552E2196B5
:1027E000CA30D105A9F06D2D70E080E090E0A8011D
:1027F00097010E94A221861A970AA80AB90A2C2DCD
:10280000372D462D552DC901DA017C018D01BECF32
:10281000DF91CF911F910F91FF90EF90DF90CF90BC
:10282000BF90AF909F908F907F906F905F904F90F0
:10283000089508950F931F93CF93DF93482F30E0AF
:1028400020E007C080579F4FFC0184918F5F280FC5
:102850003F5F822F90E03417A8F3FC01E057FF4F51
:102860000491EC01CF56DF4F10E006C0FE018491C9
:102870000E941E181F5F21961017C0F3DF91CF91A1
:102880001F910F910895DF92EF92FF920F931F9384
:10289000CF93DF93D62E95E0899FC0011124EC01E0
:1028A000CD5FDF4F8E0128E0E22E20E0F22EE80E11
:1028B000F91EDD2021F0FE018491809502C0F8010F
:1028C00084910E941E1821960F5F1F4FCE15DF05C1
:1028D00081F7DD2011F08FEF01C080E00E941E180B
:1028E00080E00E946A18DF91CF911F910F91FF90B5
:1028F000EF90DF9008951F93CF93DF93EC01162F95
:1029000004C0612F0E944314219688818823C9F74F
:10291000DF91CF911F9108952F923F924F925F9236
:102920006F927F928F929F92AF92BF92CF92DF92DF
:10293000EF92FF920F931F93CF93DF93282E162FC2
:10294000342EF22E402EC62FD0E0C770D0702097C4
:1029500009F45BC0562E569456945694EE2467E0C4
:10296000C62EC1228C2C992487FC90945E01A20E65
:10297000B11C51E0652E712C35C0DE2CD20C8D2D92
:10298000652D0E9477180E94D1170E94D117082F39
:1029900040E050E015C081E0481641F4C30102C098
:1029A000880F991F2A95E2F7082B08C0C30102C0BF
:1029B000880F991F2A95E2F7809508234F5F5F4F94
:1029C0009A01280D391D2A153B0524F48C2D840FFE
:1029D000883009F78D2D652D0E947718802F0E9471
:1029E0001E18E394E31448F22F2D30E088E090E0C5
:1029F0008C1B9D0B8217930714F0FF2404C0812FBA
:102A000087708850F80E187F185FE12EE694E694E0
:102A1000E694C12FD0E0CF0DD11D43E0D595C795E9
:102A20004A95E1F712C0822D6E2D0E94771810E0B2
:102A300009C081E0481611F48FEF01C080E00E94C8
:102A40001E181F5F1315A8F3E3948E2D90E08C17CA
:102A50009D074CF32F2D2770C9F100E0C22FD0E065
:102A600031E0A32EB12C30C0F02EF20C8F2D6E2D44
:102A70000E9477180E94D1170E94D117182F20E0CA
:102A800030E017C081E0481649F4C501022E02C0AB
:102A9000880F991F0A94E2F7182B09C0C501022E6E
:102AA00002C0880F991F0A94E2F7809518232F5FC0
:102AB0003F4F2C173D0734F38F2D6E2D0E94771852
:102AC000812F0E941E180F5F031570F280E00E9494
:102AD0006A18DF91CF911F910F91FF90EF90DF90D7
:102AE000CF90BF90AF909F908F907F906F905F90AE
:102AF0004F903F902F9008952F923F924F925F9268
:102B00006F927F928F929F92AF92BF92CF92DF92FD
:102B1000EF92FF920F931F93DF93CF9300D00F920A
:102B2000CDB7DEB7382E462E522E262E281AA42ECA
:102B3000BB24C501880F991F22273327281B390B77
:102B40002D5F3F4F3B832A83882499246624772472
:102B5000362F32193983182DD42CDA187501EE0C62
:102B6000FF1C882D830D6D2D41E02E2D052D0E941B
:102B70008C14832D88196D2D41E02E2D0E948C140C
:102B8000F42CF818110F89818A0D6F2D41E0212F47
:102B90000E948C148D2D82196F2D41E0212F0E94EF
:102BA0008C148A819B8197FF06C00696860D971D1F
:102BB0009B838A8311C0EA81FB813A96C4018A19FA
:102BC0009B09880F991F880F991FE80FF91FFB8336
:102BD000EA830894A108B1080894811C911C24E0A0
:102BE00030E0620E731EA814B9040CF0B4CF0F903D
:102BF0000F900F90CF91DF911F910F91FF90EF9069
:102C0000DF90CF90BF90AF909F908F907F906F900C
:102C10005F904F903F902F900895DF92EF92FF9238
:102C20000F931F93F82E162FD42EE22E41E001E0D1
:102C30000E948C148F2D81508D0D612F41E02E2D1F
:102C40000E948C148F2D612F4D2D21E00E948C1439
:102C500011501E0D8F2D612F4D2D21E00E948C14DF
:102C60001F910F91FF90EF90DF900895EF92FF92E8
:102C70000F931F93F82E162F062F0695069506958F
:102C8000602F0E9477180E94D1170E94D117E82E5A
:102C90008F2D602F0E947718177081E090E002C09E
:102CA000880F991F1A95E2F780958E210E941E18B1
:102CB00080E00E946A181F910F91FF90EF90089595
:102CC000EF92FF920F931F93F82E162F062F069563
:102CD00006950695602F0E9477180E94D1170E94D2
:102CE000D117E82E8F2D602F0E947718177081E082
:102CF00090E002C0880F991F1A95E2F78E290E9472
:102D00001E1880E00E946A181F910F91FF90EF90AB
:102D100008953F924F925F926F927F928F929F920F
:102D2000AF92BF92CF92DF92EF92FF920F931F93D9
:102D3000CF93DF93D82EC62E322E462E481AE42E7D
:102D4000FF24C701880F991FCC27DD27C81BD90B8B
:102D500023965D2C662E762EAA24BB2488249924E3
:102D600081E0381641F50E2D0C0D8D2D602F0E943F
:102D700060169C2D9E19192F8D2D692F0E946016AB
:102D8000852D602F0E946016852D612F0E94601690
:102D90000419802F662D0E946016802F672D0E94D7
:102DA00060161419812F662D0E946016812F672DE1
:102DB0000E94601627C00E2D0C0D8D2D602F0E94D5
:102DC00036168C2D8E19182F8D2D612F0E943616D8
:102DD000852D602F0E943616852D612F0E94361694
:102DE0000419802F662D0E943616802F672D0E94B1
:102DF00036161419812F662D0E943616812F672DE5
:102E00000E943616D7FF04C02696C80DD91D0DC0E6
:102E10002A96C5018E199F09880F991F880F991F3F
:102E2000C80FD91F0894E108F1080894A11CB11C2F
:102E300084E090E0880E991ED3945A9463947A9417
:102E4000EA14FB040CF08CCFDF91CF911F910F910E
:102E5000FF90EF90DF90CF90BF90AF909F908F90BA
:102E60007F906F905F904F903F9008952F982D988E
:102E70002C9840985A98279A259A249A389A529AC8
:102E80008BB18F708BB985B1807F85B98AB1806F26
:102E90008AB984B18F6084B9089540985A9888237C
:102EA00019F0813021F402C0409A08955A9A089589
:102EB000F8940E944D178BB1806F8BB985B18F60EC
:102EC00085B92F988AB18F708AB984B1807F84B90F
:102ED0002D9A2C9A000000000AC02C9800000000D7
:102EE000000000002C9A000000000000000089B1E2
:102EF00093B187FDF2CF2C982D988AB1806F8AB953
:102F000084B18F6084B9789408951F93162FF89434
:102F10000E9458172F982D982C9A8AB1806F8AB9E1
:102F200084B18F6084B98BB18F708BB99BB1812FC5
:102F3000807F892B8BB985B1807F85B985B11F7062
:102F4000812B85B900000000000000000000000097
:102F5000000000002C9878941F910895F8940E9426
:102F600058172F988AB18F708AB984B1807F84B93D
:102F70002D9A2C9A000000000000000000000000C4
:102F80000000000029B183B12C982D989AB1906F60
:102F90009AB994B19F6094B978948F70207F822BF6
:102FA0000895F8948091DA048295869586958370C9
:102FB0000E9458172F9A8AB18F708AB984B1807F86
:102FC00084B92D9A2C9A0000000000000000000037
:102FD00000000000000099B183B12C982D987894DE
:102FE0008F70907F892B089508958093DA0480E094
:102FF00060E40E9485171092DC0481E060E40E9486
:1030000085171092DE048091DA04682F6F73606474
:1030100082958695869583700E94851708951F93E3
:10302000182F8093DB04186B80E0612F0E948517B6
:1030300081E0612F0E9485171F9108950F931F93C0
:10304000182F0091DA040295069506950370F894FE
:10305000802F0E9458172F9A2D982C9A8AB1806F32
:103060008AB984B18F6084B98BB18F708BB99BB1F1
:10307000812F807F892B8BB985B1807F85B985B100
:103080001F70812B85B900000000000000000000C7
:103090000000000000002C987894E02FF0E0EE0F84
:1030A000FF1FE452FB4F80818F5F80838091DA04A1
:1030B0008F5F8093DA0487FF0AC08091DB048F5F03
:1030C0008093DB040E940F1880E00E94F5171F9187
:1030D0000F9108951F93182F106C80E0612F0E94AC
:1030E000851781E0612F0E9485171F9108951F9316
:1030F000182F862F0E940F18812F0E94F5171F91FD
:1031000008950F931F9300E080E0602F0E947718CE
:1031100010E080E00E941E181F5F1038D1F70F5F8B
:10312000083091F71F910F91089580E00E946A186E
:1031300080E060E00E9477181092DC041092DD04B9
:103140001092DE041092DF0408950E94361780E08A
:103150006FE30E94851781E06FE30E9485170E944C
:1031600081180E9495180895982F86E0689F802DF9
:103170001124692F0E94771808950895459A449A5A
:103180001092C1041092C0041092C3041092C204A1
:1031900080E28093B800ECEBF0E080818460808373
:1031A00010927A0480818160808380818064808332
:1031B0007894089580E28093B800089590E06111BA
:1031C00091E08E7F982B9093BA0008959093C1045C
:1031D0008093C00408959093C3048093C20408951B
:1031E000ECEBF0E080818F70806A80830895ECEBD7
:1031F000F0E080818F70806D808308958091BC00A5
:1032000087FFFCCF08958093BB00ECEBF0E080815A
:103210008F70806880830895882329F08091BC0096
:103220008F70806C04C08091BC008F708068809328
:10323000BC0008958091BB0008958091B900089565
:10324000982F80917A048823E1F782E080937A04B2
:103250009E7F90937B04ACE7B4E0FA0102C08191B9
:103260008D938E2F841B8617D0F310929C0460934D
:103270009D048091BC008F70806A8093BC0008958B
:10328000982F80917A048823E1F783E080937A0471
:10329000916090937B041092BE046093BF04809170
:1032A000BC008F70806A8093BC0080917A04882370
:1032B000E1F7AEE9B4E0FA0102C08D9181938E2F5F
:1032C000841B8617D0F30895982FFA018091BC00D3
:1032D0008E7F8093BC008091BC008F70806A809349
:1032E000BC008091BC0087FFFCCF9E7F9093BB0009
:1032F0008091BC008F7080688093BC008091BC007E
:1033000087FFFCCF8091B900883189F091E012C02D
:1033100080818093BB008091BC008F708068809317
:10332000BC008091BC0087FFFCCF319661506623C2
:1033300079F790E08091BC008F70806D8093BC0025
:103340008091BC0084FFFCCF8091BC0081608093A1
:10335000BC00892F08951F93CF93DF93982F162FCA
:10336000EA018091BC008E7F8093BC008091BC00FC
:103370008F70806A8093BC008091BC0087FFFCCF77
:1033800091609093BB008091BC008F7080688093A7
:10339000BC008091BC0087FFFCCF8091B9008034D5
:1033A00069F091E018C08FEF0E940C198091BC0069
:1033B00087FFFCCF8091BB0089931150123098F7A2
:1033C00080E00E940C198091BC0087FFFCCF8091A7
:1033D000BB00888390E08091BC008F70806D8093EB
:1033E000BC008091BC0081608093BC00892FDF917C
:1033F000CF911F91089580917A0408951F920F92A2
:103400000FB60F9211242F933F934F935F936F93B7
:103410007F938F939F93AF93BF93EF93FF9380918D
:10342000B900887F883609F4CBC0893688F58033A7
:1034300009F495C08133B0F4803109F45AC0813168
:1034400038F4882309F43EC1883009F048C151C0DE
:10345000803209F484C0883209F453C0883109F0FD
:103460003EC14FC0883409F47AC0893438F48833B7
:1034700009F478C0803409F032C192C0883509F46B
:103480005DC0803609F49CC0803509F028C174C045
:10349000803A09F4BEC0813AB0F4803809F49BC088
:1034A000813838F4803709F48BC0883709F017C1A8
:1034B00087C0803909F48FC0883909F4A1C08838E1
:1034C00009F00DC19DC0883B09F4D1C0893B38F497
:1034D000883A09F4B6C0803B09F001C1B2C0883C0B
:1034E00009F4E0C0883F09F4E7C0803C09F0F7C068
:1034F000D9C080ED93E060E00E94BD1280917B0412
:1035000014C081EB93E060E00E94BD1290919C0496
:1035100080919D04981708F0DAC0E92FF0E0E45894
:10352000FB4F80819F5F90939C048093BB008091B0
:10353000BC008F7080688093BC00D1C08CE993E0A0
:1035400060E00E94BD128091BE049091BB00E82F04
:10355000F0E0E256FB4F90838F5F8093BE0486E7D6
:1035600093E0B2C082E693E060E00E94BD128091D9
:10357000BC008F708068AFC08EE493E060E00E9472
:10358000BD128091BB009091BE04E92FF0E0E2569D
:10359000FB4F80839F5F9093BE0490E00E941413C2
:1035A0008BE393E060E00E94BD122091BE0430E006
:1035B0008091BF0490E001972817390734F51EC0A9
:1035C00088E293E060E00E94BD1285E080937A0477
:1035D0001092BE0462C084E193E060E00E94BD12DC
:1035E0008091BE049091BB00E82FF0E0E256FB4FC3
:1035F00090838F5F8093BE04803238F48FEF06C0D3
:103600008FEF92E060E00E94BD1280E00E940C19F2
:1036100066C08CEE92E060E00E94BD128091BC001A
:103620008F70806C8093BC00E091C004F091C10465
:10363000309709F452C08091BE046EE974E0099598
:103640004CC089ED92E060E00E94BD1284E080935E
:103650007A04E091C204F091C304309731F080E223
:103660006CE774E0099580939D0410929C0485ECAE
:1036700092E060E00E94BD1290919C04E92FF0E07E
:10368000E458FB4F80818093BB009F5F90939C0424
:1036900080919D04981708F04ACF8091BC008F70EC
:1036A000806C49CF83EA92E060E00E94BD12809175
:1036B000BC008F70806C0FC084E992E060E00E94D3
:1036C000BD120DC083E892E060E00E94BD128091BF
:1036D000BC008F70806D8093BC0010927A04FF91C3
:1036E000EF91BF91AF919F918F917F916F915F917A
:1036F0004F913F912F910F900FBE0F901F901895F3
:10370000EF92FF920F931F937B018C0120E030E03A
:1037100040E05FE40E94801E88238CF0C801B7015E
:1037200020E030E040E05FE40E94F81C0E94E01ED0
:103730009B01AC01205030404040504806C0C801B9
:10374000B7010E94E01E9B01AC01B901CA011F91A3
:103750000F91FF90EF900895A0E0B0E0E2EBFBE165
:103760000C943122DC012B01FA019C91923008F477
:1037700039C1EB018881823008F433C1943069F497
:10378000843009F02FC111969C9111978981981767
:1037900009F428C1ADE5B3E025C1843009F421C1A5
:1037A0008230A9F4923009F01DC19A01AD0188E080
:1037B000EA010990AE01E90109929E018150C1F729
:1037C000E201898111969C918923818308C19230FD
:1037D00009F407C112962D903C901397EB018A8152
:1037E0009B811496AD90BD90CD90DC901797EC80A6
:1037F000FD800E811F819101281B390BB90137FF14
:1038000004C066277727621B730B603271050CF0CA
:1038100061C0121613066CF537014801062E04C06C
:1038200096948794779467940A94D2F721E030E0D5
:1038300040E050E004C0220F331F441F551F6A951B
:10384000D2F721503040404050402E213F214023AC
:103850005123211531054105510521F021E030E0CA
:1038600040E050E079018A01E628F7280829192963
:103870003CC0232BD1F1260E371E35014601062E02
:1038800004C096948794779467940A94D2F721E0C1
:1038900030E040E050E004C0220F331F441F551FAA
:1038A0006A95D2F721503040404050402A213B21B8
:1038B0004C215D21211531054105510521F021E003
:1038C00030E040E050E059016A01A628B728C82836
:1038D000D9280BC0821593052CF01C01AA24BB2407
:1038E000650103C0EE24FF24870111969C91D2014B
:1038F00011968C91981709F445C0992339F0A801C5
:1039000097012A193B094C095D0906C0A6019501DA
:103910002E193F09400B510B57FD08C0118233820D
:10392000228224833583468357831DC081E08183AF
:103930003382228288279927DC01821B930BA40BF8
:10394000B50B84839583A683B7830DC0220F331FE5
:10395000441F551F24833583468357838281938177
:103960000197938382832481358146815781DA01CF
:10397000C9010197A109B1098F5F9F4FAF4FBF43A5
:1039800028F30BC0918333822282EA0CFB1C0C1DAE
:103990001D1DE482F5820683178383E080832481E2
:1039A00035814681578157FF1AC0C901AA2797FD63
:1039B000A095BA2F81709070A070B0705695479501
:1039C00037952795822B932BA42BB52B8483958336
:1039D000A683B78382819381019693838283DF01DB
:1039E00001C0D201CD01CDB7DEB7E2E10C944D228A
:1039F000A0E2B0E0EEEFFCE10C943D2269837A8313
:103A00008B839C832D833E834F835887E9E0EE2E82
:103A1000F12CEC0EFD1ECE010196B7010E94D120C3
:103A20008E010F5E1F4FCE010596B8010E94D12076
:103A30008A8991E089278A8BC701B801AE01475E68
:103A40005F4F0E94AC1B0E94FC1FA096E6E00C9406
:103A50005922A0E2B0E0EFE2FDE10C943D2269833F
:103A60007A838B839C832D833E834F835887F9E031
:103A7000EF2EF12CEC0EFD1ECE010196B7010E9437
:103A8000D1208E010F5E1F4FCE010596B8010E9416
:103A9000D120C701B801AE01475E5F4F0E94AC1B49
:103AA0000E94FC1FA096E6E00C945922A0E2B0E030
:103AB000ECE5FDE10C94312269837A838B839C834E
:103AC0002D833E834F835887CE010196BE01675FE9
:103AD0007F4F0E94D120CE010596BE016F5E7F4FC1
:103AE0000E94D1209985923088F089898230C8F06F
:103AF000943019F4823051F404C0843029F49230A7
:103B000081F48DE593E0C6C0923049F420E09A85B7
:103B10008A89981321E02A87CE010996BBC082309A
:103B200049F420E09A858A89981321E02A8BCE01F6
:103B30004196B0C02D843E844F8458886D887E881D
:103B40008F88988CEE24FF248701AA24BB2465016A
:103B500040E050E060E070E0E0E0F0E0C101817042
:103B60009070892BE9F0E60CF71C081D191D9A01CD
:103B7000AB012A0D3B1D4C1D5D1D80E090E0A0E0D7
:103B8000B0E0E614F7040805190520F481E090E0A0
:103B9000A0E0B0E0BA01A901480F591F6A1F7B1FBE
:103BA000AA0CBB1CCC1CDD1C97FE08C081E090E079
:103BB000A0E0B0E0A82AB92ACA2ADB2A3196E0326E
:103BC000F10549F0660C771C881C991C56944794A3
:103BD00037942794C3CFFA85EA892B893C898B8552
:103BE0009C85280F391F2E5F3F4F17C0CA01817077
:103BF0009070892B61F016950795F794E79480E013
:103C000090E0A0E0B0E8E82AF92A0A2B1B2B769571
:103C10006795579547952F5F3F4F77FDE7CF0CC0CE
:103C2000440F551F661F771F17FD4160EE0CFF1CE8
:103C3000001F111F21503040403090E0590790E0A4
:103C4000690790E4790760F32B8F3C8FDB01CA0191
:103C50008F779070A070B07080349105A105B10588
:103C600061F447FD0AC0E114F1040105110529F0D2
:103C7000405C5F4F6F4F7F4F40781A8EFE1711F0F8
:103C800081E08A8F4D8F5E8F6F8F78A383E0898F5D
:103C9000CE0149960E94FC1FA096E2E10C944D22B1
:103CA000A8E1B0E0E6E5FEE10C943D2269837A8369
:103CB0008B839C832D833E834F83588789E0E82E36
:103CC000F12CEC0EFD1ECE010196B7010E94D12011
:103CD0008E010F5E1F4FCE010596B8010E94D120C4
:103CE0008985823040F08989823028F0C701B80187
:103CF0000E94492101C08FEF6896E6E00C9459229A
:103D0000A8E1B0E0E6E8FEE10C943D2269837A8305
:103D10008B839C832D833E834F83588789E0E82ED5
:103D2000F12CEC0EFD1ECE010196B7010E94D120B0
:103D30008E010F5E1F4FCE010596B8010E94D12063
:103D40008985823040F08989823028F0C701B80126
:103D50000E94492101C08FEF6896E6E00C94592239
:103D6000A8E1B0E0E6EBFEE10C943D2269837A83A2
:103D70008B839C832D833E834F83588789E0E82E75
:103D8000F12CEC0EFD1ECE010196B7010E94D12050
:103D90008E010F5E1F4FCE010596B8010E94D12003
:103DA0008985823040F08989823028F0C701B801C6
:103DB0000E94492101C081E06896E6E00C945922F6
:103DC000ACE0B0E0E6EEFEE10C94412269837A8338
:103DD0008B839C83CE010196BE016B5F7F4F0E9457
:103DE000D1208D81823061F1823050F1843021F414
:103DF0008E81882351F12EC02F81388537FD20C058
:103E00006E812F3131051CF06623F9F023C08EE15D
:103E100090E0821B930B29853A854B855C8504C015
:103E200056954795379527958A95D2F76623B1F031
:103E300050954095309521953F4F4F4F5F4F0EC0A5
:103E400020E030E040E050E009C02FEF3FEF4FEFBF
:103E50005FE704C020E030E040E050E8B901CA016B
:103E60002C96E2E00C945D22A8E0B0E0EAE3FFE1EA
:103E70000C9439227B018C01611571058105910536
:103E800019F482E0898360C083E089838EE1C82EC3
:103E9000D12CDC82CB82ED82FE820F831887C80191
:103EA000B7010E94AD1FFC013197F7FF3BC02227ED
:103EB00033272E1B3F0B57016801022E04C0D694F6
:103EC000C794B794A7940A94D2F740E050E060E01A
:103ED00070E081E090E0A0E0B0E004C0880F991F9E
:103EE000AA1FBB1F2A95D2F70197A109B1098E21FC
:103EF0009F21A023B1230097A105B10521F041E046
:103F000050E060E070E04A295B296C297D294D83EF
:103F10005E836F8378878EE190E08E1B9F0B9C837E
:103F20008B8312C0309781F00E2E04C0EE0CFF1C64
:103F3000001F111F0A94D2F7ED82FE820F831887AB
:103F4000CE1ADF0ADC82CB821A82CE0101960E9451
:103F5000FC1F2896EAE00C945522EF92FF920F93F3
:103F60001F937B018C0180E0E81680E0F80681E079
:103F7000080780E0180788F48FEFE816F1040105C0
:103F8000110531F028F088E090E0A0E0B0E017C023
:103F900080E090E0A0E0B0E012C080E0E81680E0B1
:103FA000F80680E0080781E0180728F088E190E033
:103FB000A0E0B0E004C080E190E0A0E0B0E020E24A
:103FC00030E040E050E0281B390B4A0B5B0B04C08B
:103FD00016950795F794E7948A95D2F7F701EB5970
:103FE000FC4F8081281B310941095109C9011F91EA
:103FF0000F91FF90EF900895DF92EF92FF920F9351
:104000001F93FC01E480F58006811781D1808081B7
:10401000823048F480E090E0A0E1B0E0E82AF92A9C
:104020000A2B1B2BA5C0843009F49FC0823021F4D9
:10403000EE24FF24870105C0E114F10401051105F8
:1040400019F4E0E0F0E096C0628173819FEF62387E
:1040500079070CF05BC022E83FEF261B370B2A31B3
:1040600031052CF020E030E040E050E02AC0B801FB
:10407000A701022E04C076956795579547950A9437
:10408000D2F781E090E0A0E0B0E004C0880F991F73
:10409000AA1FBB1F2A95D2F70197A109B1098E214A
:1040A0009F21A023B1230097A105B10521F081E054
:1040B00090E0A0E0B0E09A01AB01282B392B4A2B0D
:1040C0005B2BDA01C9018F779070A070B0708034DB
:1040D0009105A105B10539F427FF09C0205C3F4FC8
:1040E0004F4F5F4F04C0215C3F4F4F4F5F4FE0E0A9
:1040F000F0E02030A0E03A07A0E04A07A0E45A0729
:1041000010F0E1E0F0E079018A0127C06038710524
:1041100064F5FB01E158FF4FD801C7018F7790701C
:10412000A070B07080349105A105B10539F4E7FEA7
:104130000DC080E490E0A0E0B0E004C08FE390E028
:10414000A0E0B0E0E80EF91E0A1F1B1F17FF05C014
:1041500016950795F794E794319687E0169507959D
:10416000F794E7948A95D1F705C0EE24FF248701E0
:10417000EFEFF0E06E2F679566276795902F9F779A
:10418000D794DD24D7948E2F8695492F462B582F10
:104190005D29B701CA011F910F91FF90EF90DF9049
:1041A0000895FC01DB01408151812281622F6F77EC
:1041B00070E0221F2227221F9381892F880F822BD4
:1041C000282F30E0991F9927991F11969C931197DA
:1041D00021153105A9F5411551056105710511F448
:1041E00082E037C082E89FEF13969C938E931297DC
:1041F0009A01AB0167E0220F331F441F551F6A95D8
:10420000D1F783E08C930DC0220F331F441F551F3D
:1042100012968D919C911397019713969C938E9370
:104220001297203080E0380780E0480780E4580784
:1042300058F314962D933D934D935C9317970895DF
:104240002F3F310579F4411551056105710519F4C8
:1042500084E08C93089564FF03C081E08C9312C0C6
:104260001C9210C02F57304013963C932E931297F8
:1042700083E08C9387E0440F551F661F771F8A9554
:10428000D1F7706414964D935D936D937C9317975B
:1042900008951F93DC01FB019C91923008F447C004
:1042A0008081823008F443C0943051F411961C91FF
:1042B000843099F58181682F70E0611B71093FC0DE
:1042C000843021F0923031F48230B9F18181882339
:1042D00089F12DC011961C9111978230F1F08181E6
:1042E0001817D9F412962D913C91139782819381DE
:1042F0008217930794F028173907BCF014968D9114
:104300009D910D90BC91A02D2481358146815781CE
:10431000281739074A075B0718F4112341F00AC030
:1043200082179307A407B50740F4112319F061E041
:1043300070E005C06FEF7FEF02C060E070E0CB017E
:104340001F910895629FD001739FF001829FE00D3D
:10435000F11D649FE00DF11D929FF00D839FF00D04
:10436000749FF00D659FF00D9927729FB00DE11DB0
:10437000F91F639FB00DE11DF91FBD01CF0111248D
:104380000895991B79E004C0991F961708F0961BB1
:10439000881F7A95C9F780950895AA1BBB1B51E128
:1043A00007C0AA1FBB1FA617B70710F0A61BB70BA5
:1043B000881F991F5A95A9F780959095BC01CD014A
:1043C000089597FB092E07260AD077FD04D0E5DF74
:1043D00006D000201AF4709561957F4F0895F6F786
:1043E000909581959F4F0895A1E21A2EAA1BBB1BA1
:1043F000FD010DC0AA1FBB1FEE1FFF1FA217B307B1
:10440000E407F50720F0A21BB30BE40BF50B661FC6
:10441000771F881F991F1A9469F76095709580958A
:1044200090959B01AC01BD01CF01089597FB092E2A
:1044300005260ED057FD04D0D7DF0AD0001C38F473
:1044400050954095309521953F4F4F4F5F4F0895C0
:10445000F6F790958095709561957F4F8F4F9F4FA0
:1044600008952F923F924F925F926F927F928F9218
:104470009F92AF92BF92CF92DF92EF92FF920F93F3
:104480001F93CF93DF93CDB7DEB7CA1BDB0B0FB6FD
:10449000F894DEBF0FBECDBF09942A8839884888BA
:1044A0005F846E847D848C849B84AA84B984C88450
:1044B000DF80EE80FD800C811B81AA81B981CE0F47
:1044C000D11D0FB6F894DEBF0FBECDBFED0108952C
:1044D000F999FECF92BD81BDF89A992780B50895CC
:1044E000262FF999FECF1FBA92BD81BD20BD0FB610
:1044F000F894FA9AF99A0FBE01960895F894FFCFAE
:1045000001526567696F6E3A2000202020202055F7
:104510005320313268720020202020205553203251
:1045200034687200202020202045552031326872E6
:10453000002020202020455520323468720044613C
:1045400074653A00202020202000436F6E66696762
:1045500075726174696F6E204D656E750053657478
:1045600020416C61726D3A202000536574205469BB
:104570006D653A2000536574204261636B6C696716
:1045800068743A20005072657373204D454E552073
:10459000746F20616476616E636500507265737339
:1045A0002053455420746F207365740050726573F6
:1045B00073202B20746F206368616E6765206872BA
:1045C0002E0050726573732053455420746F20730E
:1045D000657420686F7572005072657373202B20AC
:1045E000746F206368616E6765206D696E0050723C
:1045F0006573732053455420746F20736574206D68
:10460000696E73005072657373202B20746F206382
:1046100068616E676520736563005072657373200F
:1046200053455420746F2073657420736563730061
:104630005072657373202B20746F206368616E67FE
:10464000652020202000507265737320534554204C
:10465000746F20736176652020202000507265738E
:10466000732053455420746F2073657420202020DC
:1046700020005072657373204D454E5520746F2095
:1046800065786974202020005072657373202B2098
:10469000746F206368616E6765202020005072652A
:1046A00073732053455420746F2073617665202006
:1046B00020005072657373204D454E5520746F2055
:1046C0006578697400507265737320534554207483
:1046D0006F20736574202020005072657373202B47
:1046E00020746F206368616E6765206D6F6E005087
:1046F000726573732053455420746F207365742062
:104700006D6F6E2E005072657373202B20746F20B6
:104710006368616E676520646179005072657373C8
:104720002053455420746F20736574206461746550
:10473000005072657373202B20746F206368616E64
:1047400067652079722E005072657373205345544B
:1047500020746F2073657420796561720000000019
:10476000000000000000010202030303030404042C
:1047700004040404040505050505050505050505EE
:1047800005050505050606060606060606060606CE
:1047900006060606060606060606060606060606B9
:1047A000060606060607070707070707070707079E
:1047B0000707070707070707070707070707070789
:1047C0000707070707070707070707070707070779
:1047D0000707070707070707070707070707070769
:1047E000070707070708080808080808080808084E
:1047F0000808080808080808080808080808080839
:104800000808080808080808080808080808080828
:104810000808080808080808080808080808080818
:104820000808080808080808080808080808080808
:1048300008080808080808080808080808080808F8
:1048400008080808080808080808080808080808E8
:1048500008080808080808080808080808080808D8
:064860000808080808002A
:00000001FF
