:100000000C9410030C942D030C942D030C94B21239
:100010000C942D030C942D030C942D030C942D03A0
:100020000C942D030C9438060C942D030C94A2030D
:100030000C942D030C942F030C9441030C942D036A
:100040000C942D030C942D030C942D030C942D0370
:100050000C942D030C940A120C942D030C942D0374
:100060000C943B290C942D0305A84CCDB2D44EB969
:100070003836A9020C50B9918688083CA6AAAA2A4B
:10008000BE000000803F000000000000005F000094
:100090000007000700147F147F14242A7F2A1223EC
:1000A0001308646236495522500005030000001C05
:1000B0002241000041221C00082A1C2A0808083E90
:1000C00008080050300000080808080800606000B8
:1000D0000020100804023E5149453E00427F400086
:1000E00042615149462141454B311814127F102776
:1000F000454545393C4A49493001710905033649AE
:10010000494936064949291E003636000000563650
:10011000000000081422411414141414412214087D
:10012000000201510906324979413E7E1111117ECA
:100130007F494949363E414141227F4141221C7F4E
:10014000494949417F090901013E414151327F0836
:1001500008087F00417F41002040413F017F081493
:1001600022417F404040407F0204027F7F0408100C
:100170007F3E4141413E7F090909063E4151215ED2
:100180007F09192946464949493101017F01013F4B
:100190004040403F1F2040201F7F2018207F6314D5
:1001A0000814630304780403615149454300007F48
:1001B0004141020408102041417F00000402010275
:1001C0000440404040400001020400205454547850
:1001D0007F484444383844444420384444487F38B5
:1001E00054545418087E090102081454543C7F08E2
:1001F00004047800447D40002040443D00007F100E
:10020000284400417F40007C041804787C080404E2
:100210007838444444387C14141408081414187CA6
:100220007C080404084854545420043F4440203CB3
:100230004040207C1C2040201C3C4030403C442856
:100240001028440C5050503C4464544C4400083630
:10025000410000007F0000004136080008082A1C09
:1002600008081C2A0808FF8181FF000000FF9F91F9
:1002700091F1919191FFF01010FFF191919FFF91F9
:10028000919F808080FFFF9191FFF19191FF00008D
:10029000000053554E4D4F4E545545574544544814
:1002A000554652495341540000004A414E4645428A
:1002B0004D41524150524D41594A554E4A554C417B
:1002C00055475345504F43544E4F56444543000BFA
:1002D0003E41414141424242423C0006FFFFFFFF96
:1002E000FFFF000000000000005F000000070007A3
:1002F00000147F147F14242A7F2A122313086462B7
:1003000036495522500005030000001C2241000020
:1003100041221C00082A1C2A0808083E0808005030
:10032000300000080808080800606000002010087D
:1003300004023E5149453E00427F4000426151491E
:10034000462141454B311814127F10274545453948
:100350003C4A494930017109050336494949360685
:100360004949291E003636000000563600000008B4
:1003700014224114141414144122140800020151CF
:100380000906324979413E7E1111117E7F49494962
:10039000363E414141227F4141221C7F494949412A
:1003A0007F090901013E414151327F0808087F0061
:1003B000417F41002040413F017F081422417F409E
:1003C0004040407F0204027F7F0408107F3E41418D
:1003D000413E7F090909063E4151215E7F091929E5
:1003E00046464949493101017F01013F4040403FB4
:1003F0001F2040201F7F2018207F631408146303F0
:1004000004780403615149454300007F41410204DF
:1004100008102041417F00000402010204404040D6
:100420004040000102040020545454787F48444462
:10043000383844444420384444487F38545454188D
:10044000087E090102081454543C7F080404780013
:10045000447D40002040443D00007F10284400417E
:100460007F40007C041804787C08040478384444F5
:1004700044387C14141408081414187C7C080404F0
:10048000084854545420043F4440203C4040207CC1
:100490001C2040201C3C4030403C44281028440C88
:1004A0005050503C4464544C440008364100000015
:1004B0007F0000004136080008082A1C08081C2A92
:1004C00008084932433A204255535F4552524F5231
:1004D0000D0A004932433A204E4F5F494E464F0DB8
:1004E0000A004932433A2053542D3E444154415F5F
:1004F0004E41434B206F72204C4153545F44415452
:10050000410D0A004932433A2053542D3E44415490
:10051000415F41434B0D0A004932433A2053542D69
:100520003E534C415F41434B0D0A004932433A2050
:1005300053522D3E53525F53544F500D0A004932CF
:10054000433A2053522D3E444154415F4E41434B68
:100550000D0A004932433A2053522D3E4441544142
:100560005F41434B0D0A004932433A2053522D3E1E
:10057000534C415F41434B0D0A004932433A204DF1
:10058000522D3E534C415F41434B0D0A00493243CB
:100590003A204D522D3E444154415F41434B0D0A98
:1005A000004932433A204D542D3E4152425F4C4F58
:1005B00053540D0A004932433A204D54522D3E53B4
:1005C0004C415F4E41434B206F72204D542D3E44B1
:1005D0004154415F4E41434B0D0A004932433A209A
:1005E0004D522D3E444154415F4E41434B0D0A0054
:1005F0004932433A204D542D3E534C415F41434BC9
:10060000206F7220444154415F41434B0D0A004921
:1006100032433A204D2D3E53544152540D0A0000AE
:1006200011241FBECFEFD8E0DEBFCDBF15E0A0E0A4
:10063000B1E0EEEBF8E602C005900D92A432B107EE
:10064000D9F715E0A4E2B5E001C01D92A03EB107C4
:10065000E1F70E94AA070C945D340C9400001F92ED
:100660000F920FB60F9211248F939F9388B198E049
:10067000892788B99F918F910F900FBE0F901F907F
:1006800018951F920F920FB60F9211248F939F937C
:1006900080912B0590912C05892B49F080912B0599
:1006A00090912C05019790932C0580932B058091B8
:1006B000A5059091A605892B49F08091A5059091FB
:1006C000A60501979093A6058093A5058091A305A3
:1006D000882389F18091290590912A05892B59F564
:1006E00080919A0590919B05892BE1F48CE291E031
:1006F00090939B0580939A0580918100882379F4DB
:100700001092800089E08093810083E080936F00E5
:1007100088EE93E0909389008093880003C0109244
:100720008100439880919A0590919B050197909341
:100730009B0580939A059F918F910F900FBE0F900C
:100740001F9018951F920F920FB60F9211248F933E
:100750009F9388B198E0892788B99F918F910F90D6
:100760000FBE0F901F901895AF92BF92CF92DF925D
:10077000EF92FF920F931F93E62E1092800029E0D4
:100780002093810023E020936F009C0140E050E023
:1007900060E079E08DE390E00E945D323093890063
:1007A00020938800FF2400E010E0C801B7010E94F8
:1007B0007B2F5B016C0120E030E04AEF54E40E94A3
:1007C000932C7B018C0120E030E040E85FE30E9445
:1007D000992E88231CF461E070E024C0C801B701A1
:1007E00020E03FEF4FE757E40E94392E1816B4F48B
:1007F000C601B50120E030E040E251E40E94932CB4
:100800000E94BD2A88EC90E005C0FC013197F1F709
:100810006150704061157105C1F707C0C801B7018B
:100820000E94BD2ACB010197F1F7109281004398F5
:100830001F910F91FF90EF90DF90CF90BF90AF90FE
:100840000895FC0183709070892B39F4CF0164E620
:1008500070E00E941432892B49F420E030E0CF018F
:1008600060E971E00E941432892B11F421E030E03C
:10087000822F08950895482F6AE00E940832282F99
:1008800030E084E0220F331F8A95E1F7842F0E9425
:100890000832892F822B089588E592E090932A05EB
:1008A000809329051092810043981092A405089521
:1008B0001E9B16C08091A005882321F11092A005EF
:1008C0001092A90510922A05109229058091A3057E
:1008D0008823C1F01092A3051092810043980895D7
:1008E0008091A005882371F481E08093A005109287
:1008F0002A051092290583E0809328058093270517
:100900000E949B1508950F931F93182F062F6AE0DE
:100910000E940832805D602F0E941124812F6AE0BE
:100920000E940832892F805D602F0E9411241F9140
:100930000F910895AF92BF92CF92DF92EF92FF9204
:100940000F931F93DF93CF93CDB7DEB728970FB6E2
:10095000F894DEBF0FBECDBF162FF42ED22E5E014F
:100960000894A11CB11C98E0F50111929A95E9F741
:1009700019820E943B048A83812F0E943B048B834F
:100980008F2D0E943B048C838D2D0E943B048D8310
:10099000802F0E943B048E838E2D0E943B048F8308
:1009A0008C2D0E943B04888780ED68E0A5010E94A1
:1009B000A1288823D9F008EC10E080EA9FE064E6E3
:1009C0000E94B40388EE93E0F8013197F1F70197A4
:1009D000D9F780EA9FE064E60E94B40380E197E2E1
:1009E000F8013197F1F70197D9F7E7CF28960FB6BD
:1009F000F894DEBF0FBECDBFCF91DF911F910F9155
:100A0000FF90EF90DF90CF90BF90AF9008950F933D
:100A10001F93DF93CF93CDB7DEB729970FB6F89426
:100A2000DEBF0FBECDBF198280ED61E0AE014F5F2A
:100A30005F4F0E94A1288823D9F008EC10E080EADB
:100A40009FE064E60E94B40388EE93E0F8013197DA
:100A5000F1F70197D9F780EA9FE064E60E94B403BA
:100A600080E197E2F8013197F1F70197D9F7E7CFE5
:100A700080ED67E0AE014E5F5F4F0E94E82888235B
:100A8000D9F008EC10E080EA9FE064E60E94B4032D
:100A900088EE93E0F8013197F1F70197D9F780EAF2
:100AA0009FE064E60E94B40380E197E2F801319789
:100AB000F1F70197D9F7E7CF7A81872F82958F7069
:100AC00090E0877090709C01A3E0220F331FAA95DD
:100AD000E1F7880F991F280F391F872F8F70820F1A
:100AE0008093A8054B81842F82958F7090E087704A
:100AF00090709C01E3E0220F331FEA95E1F7880F25
:100B0000991F280F391F4F70420F40939E058C810B
:100B1000482F42954F70682F6F7086FF22C08295D4
:100B20008695877090E0817090709C01220F331F32
:100B3000280F391F220F331F220F331F842F90E0FD
:100B400081709070AC0103E0440F551F0A95E1F7E6
:100B5000880F991F480F591F240F260F20939505C2
:100B600011C0842F90E0837090709C01B3E0220F3D
:100B7000331FBA95E1F7880F991F280F391F620FAD
:100B8000609395054E81842F82958F7090E08370DD
:100B900090709C01F3E0220F331FFA95E1F7880F64
:100BA000991F280F391F4F70420F40939D054F81A9
:100BB000842F82958F7090E0817090709C0163E02B
:100BC000220F331F6A95E1F7880F991F280F391FED
:100BD0004F70420F4093A7052885822F82958F7012
:100BE0003AE0839FC00111242F70280F20939805AD
:100BF000872F807829960FB6F894DEBF0FBECDBF41
:100C0000CF91DF911F910F910895CF92EF920F93A3
:100C10000E94FB270E940705882359F080E060E0CE
:100C20004CE020E001E0EE24E394B9E0CB2E0E94FA
:100C30009A040E94070582E090E00E9413336CE35F
:100C40000E9408329093990581E090E00E9413334E
:100C500068E10E9408329093A20587E08093B1007A
:100C600081E08093700078940F91EF90CF90089579
:100C70001F920F920FB60F921124FF920F931F93A2
:100C80002F933F934F935F936F937F938F939F9394
:100C9000AF93BF93EF93FF93A89580912D05803577
:100CA00079F410922D05F090A80510919E05009101
:100CB00095050E94070580919505801729F40AC0C3
:100CC0008F5F80932D05DBC081E080932605009324
:100CD0009F0507C080919E05811729F081E08093D0
:100CE0002505109396058091A8058F1509F441C03C
:100CF0008091A305882359F08091290590912A05B8
:100D0000009729F0019790932A05809329058091F7
:100D10002705882371F1809127058150809327054D
:100D200080912705882329F5809128058093360531
:100D30001092280580912605882329F080919F052F
:100D40008093950504C080912505882321F080912A
:100D5000960580939E050E949B1580912605882309
:100D600021F480912505882321F0009395051093A7
:100D70009E058091A405843061F08091A4058530A2
:100D800041F08091A405883021F08091A40586303F
:100D900089F580913005882369F584E462E00E943A
:100DA000B4278091950560E00E9455098AE360E0D0
:100DB0000E94112480919E0560E00E9483048AE3D2
:100DC00060E00E9411248091A80560E00E948304E5
:100DD00080919705882371F480E260E00E941124DD
:100DE000809195058C3010F080E501C081E460E0D1
:100DF0000E9411248091A005882399F08091A80574
:100E0000882379F490919E0580919905981749F46B
:100E1000909195058091A205981719F481E080932F
:100E2000A90580912505882369F4809126058823EA
:100E300049F48091A905882329F081E08093A305D6
:100E40001092A90580912E05863039F410922E0556
:100E500080913405882329F409C08F5F80932E0583
:100E60000EC08091340581508093340580912F0508
:100E7000882329F080912F05815080932F05FF91C1
:100E8000EF91BF91AF919F918F917F916F915F9102
:100E90004F913F912F911F910F91FF900F900FBE97
:100EA0000F901F901895EF92FF920F931F93F82EBB
:100EB000162FE42E21E001E00E945A24FE0C0F2D93
:100EC00002501150802F612F0E949D251E5F802FA0
:100ED000612F0E949D2501501350802F612F0E9489
:100EE0009D251C5F802F612F0E949D251F910F91D2
:100EF000FF90EF90089580E090E00E941333833CD0
:100F000041F181E090E068E00E941B3382E090E0D4
:100F100060E00E941B3383E090E060E10E941B339D
:100F200084E090E061E00E941B3385E090E060E0A7
:100F30000E941B3386E090E060E00E941B3387E054
:100F400090E06AE00E941B3380E090E063EC0E9436
:100F50001B3308957F928F929F92AF92BF92CF9250
:100F6000DF92EF92FF920F931F93CF93DF9384B79B
:100F700014BE88E10FB6F894809360001092600070
:100F80000FBE8AE190E00E9451223B9A0E94050622
:100F90000E949C130E947B0785E090E00E9413331F
:100FA0008093A10586E090E00E941333809397051B
:100FB0000E94DF110E94580482E084BD83E085BD59
:100FC0008DE787BD80916E00826080936E00539A9A
:100FD00080E28093B0008091B00083608093B00085
:100FE0008091B10088608093B10080E18093B3006C
:100FF00083E090E00E9413338093B400259A80EA46
:101000009FE064E60E94B4032FE088E190E00FB611
:10101000F894A895809360000FBE209360000E9412
:10102000E2270E94BE270E94C51D80E00E942E1D5F
:1010300000E010E06BE4A62EB12CC8E5D2E052E04F
:10104000752ECC24C39443E0F42E35E0D32E24E057
:10105000E22E98E0992E86E0882EB092A605A09206
:10106000A50580913205882379F08091A305882316
:1010700059F010923205D0932A05C0932905109299
:10108000810043981092A405113039F4809127050E
:101090008823F1F4D092280508C0123061F48091C1
:1010A00027058823A9F4C0922805F09227050E94FD
:1010B0009B1513E00DC0133059F480912705882348
:1010C00039F470922805109327050E949B1510E0B3
:1010D00080913205867041F1109232058091A10510
:1010E000882321F08091A105813019F4C092280550
:1010F00012C08091A105823021F08091A10583303A
:1011000021F4E092280512E00BC08091A105843003
:1011100021F4D092280513E003C0E092280511E0E5
:10112000F09227050E949B158091320580FF44C0F4
:101130001092320510922805109227050E949B15E7
:101140008091A405843089F0853028F4882341F00B
:10115000833009F511C08530A1F08830E1F416C064
:10116000E092A4050E94890D1DC0F092A4050E9482
:10117000E80B1092000116C0D092A4050E94201026
:1011800011C09092A4050E94890E0CC08092A40503
:101190000E94500F07C01092A4050E94BE2780E055
:1011A0000E942E1D8091A405882329F40E94BE2749
:1011B00080E00E942E1D10E00E94111E8091A40567
:1011C000882339F5002369F48091A305882369F009
:1011D0008091A80580FF09C081E00E942E1D01E0DA
:1011E00018C08091A305882351F08091A30588231E
:1011F00059F0002349F08091A80580FD05C080E0EA
:101200000E942E1D00E005C02D9A802F0E943C1CDC
:101210002D988091A5059091A605892BD1F71DCF1A
:101220000F931F93CF93DF93182F062F809197056D
:10123000882371F584E761E00E94B4271C3010F028
:1012400080E501C081E460E00E9411248DE460E04B
:101250000E94112480E561E00E94B427812F90E074
:1012600047966CE070E00E942832EC0189309105CD
:1012700024F09C012F5F822F10C080E260E00E946A
:1012800011249E012F5C822F602F0E94112408C020
:1012900080E561E00E94B427812F602F0E948304C3
:1012A000DF91CF911F910F9108950F931F93CF93CB
:1012B000DF93082F162F809197058823D1F4802F74
:1012C00090E047966CE070E00E942832EC01893093
:1012D000910524F09C012F5F822F14C080E260E012
:1012E0000E9411249E012F5C822F612F0E941124E5
:1012F0000CC080E260E00E94112480E260E00E9465
:101300001124802F612F0E948304DF91CF911F91C0
:101310000F9108951F93182F88E064E00E94B4276E
:1013200081E091E060E00E9449248091A10588233A
:1013300039F480919705882319F48AE091E078C008
:101340008091A105882339F480919705813019F4A3
:1013500087E191E06DC08091A105813039F48091E1
:101360009705882319F484E291E062C08091A10579
:10137000813039F480919705813019F481E391E04F
:1013800057C08091A105823039F480919705882358
:1013900019F48EE391E04CC08091A105823039F4BC
:1013A00080919705813019F48BE491E041C08091E0
:1013B000A105833039F480919705882319F488E5D5
:1013C00091E036C08091A105833039F48091970572
:1013D000813019F485E691E02BC08091A10584301D
:1013E00039F480919705882319F482E791E020C0B1
:1013F0008091A105843039F480919705813019F4EA
:101400008FE791E015C08091A105853039F4809176
:101410009705882319F48CE891E00AC08091A10512
:10142000853049F480919705813029F489E991E06C
:10143000612F0E9449241F910895282F663081F161
:10144000673078F4633019F1643030F46130C9F0FA
:10145000623009F03FC018C06430E1F06530D1F56A
:101460001CC0693031F16A3028F46730E1F068302F
:1014700089F51CC06B3019F16B30F0F06C3051F510
:1014800024C086EA91E01DC08AEA91E01AC08EEA83
:1014900091E017C082EB91E014C086EB91E011C09F
:1014A0008AEB91E00EC08EEB91E00BC082EC91E0F4
:1014B00008C086EC91E005C08AEC91E002C08EEC99
:1014C00091E0622F0E944924089582ED91E0622FFD
:1014D0000E94492408951F93182F862F642F422FAE
:1014E0000E9430168330B9F0843028F4813069F0DE
:1014F000823070F407C08530A1F0853078F08630F6
:10150000C1F412C086ED91E011C08BED91E00EC0E8
:1015100080EE91E00BC085EE91E008C08AEE91E08C
:1015200005C08FEE91E002C084EF91E0612F0E9430
:1015300049241F910895EF92FF920F931F93182F44
:10154000062FE42EF22E88E063E00E94B42789EF94
:1015500091E060E00E9449248091A105882331F444
:101560008FEF91E060E00E94492418C08091A105AE
:10157000813031F48FEF91E060E00E9449242FC068
:101580008091A1058230E9F480E260E00E9411249C
:1015900080E0612F402F2E2D0E946B0A60E08BE0CF
:1015A000F81609F461E0812F0E9483048FE260E065
:1015B0000E94112460E09CE0F91609F461E0802F9C
:1015C00020C08091A105833001F580E260E00E9497
:1015D000112480E0612F402F2E2D0E946B0A60E0C5
:1015E0008CE0F81609F461E0802F0E9483048FE2FA
:1015F00060E00E94112460E09BE0F91609F461E0CC
:10160000812F0E9483048FE23EC08091A105843027
:10161000F9F485E092E060E00E94492480E09BE0DC
:10162000F91609F481E0612F0E941D0A80E260E052
:101630000E94112460E08CE0F81609F461E0802F2C
:101640000E9483048CE260E00E94112480E21BC0AF
:1016500080E0612F402F2E2D0E946B0A80E09BE0DE
:10166000F91609F481E0612F0E941D0A80E260E012
:101670000E94112460E08CE0F81609F461E0802FEC
:101680000E9483048CE260E00E94112410E09DE03F
:10169000F91609F411E084E1612F0E9483048E2D74
:1016A000612F0E9483041F910F91FF90EF90089586
:1016B000809130058F5F809330050E94BE2780E0C7
:1016C00060E00E94B42789E092E060E00E94492433
:1016D00088E061E00E94B4278CE192E060E00E9423
:1016E00049248091A20560E00E9410098AE360E02D
:1016F0000E9411248091990560E00E94830488E093
:1017000062E00E94B42789E292E060E00E944924EE
:101710008091950560E00E9455098AE360E00E948F
:10172000112480919E0560E00E9483048AE360E0BA
:101730000E9411248091A80560E00E94830480919A
:101740009705882371F480E260E00E941124809163
:1017500095058C3010F080E501C081E460E00E94C6
:1017600011248091A70560919D054091980590E016
:1017700070E050E025E030E00E949B0A80E090E0BD
:101780000E948A0988E065E00E94B42784E392E021
:1017900060E00E9449248091B40060E00E948304CC
:1017A00080E066E00E94B42784E492E060E00E945A
:1017B000492480E067E00E94B4278AE592E060E077
:1017C0000E9449248091300581508093300508950E
:1017D000BF92CF92DF92EF92FF920F931F93CF931E
:1017E000DF9310919505D0909E05F090A8050E947A
:1017F000580B809130058F5F8093300580E063E166
:1018000047E00E9453078091300581508093300556
:101810008AE080932F0503E08AE0B82EC8ECD0E080
:101820008091320580FD6BC180913205882321F4BF
:1018300080913305882319F0B0922F0507C080915D
:101840002F05882319F41092A40559C180913205FF
:1018500081FFDCC010923205809130058F5F80934C
:101860003005033081F584E462E00E94B427812FC3
:1018700061E00E94550984E762E00E94B4278091EC
:101880009705882361F480E260E00E9411241C30F7
:1018900010F080E501C081E461E00E94112480E045
:1018A00066E00E94B4278BE692E060E00E94492443
:1018B00080E067E00E94B42781E892E060E00E9447
:1018C000492405E69EC00536C1F584E462E00E9425
:1018D000B427812F60E00E9455098AE360E00E94EE
:1018E00011248D2D61E00E94830480E066E00E9457
:1018F000B42787E992E060E00E94492480E067E035
:101900000E94B4278DEA92E060E00E94492484E7B7
:1019100062E00E94B42780919705882361F480E2F9
:1019200060E00E9411241C3010F080E501C081E4C9
:1019300060E00E94112406E664C0063651F58091ED
:101940009705882311F486E501C082E662E00E94D3
:10195000B4278D2D60E00E9483048AE360E00E943A
:1019600011248F2D61E00E94830480E066E00E94D4
:10197000B42783EC92E060E00E94492480E067E0B5
:101980000E94B42789ED92E060E00E94492407E6B6
:1019900038C080919705882311F488E601C084E758
:1019A00062E00E94B4278F2D60E00E94830480E0F3
:1019B00066E00E94B42784E492E060E00E9449243B
:1019C00080E067E00E94B4278AE592E060E00E9430
:1019D000492410939505D0929E05F092A805809118
:1019E000A80560919E054091950500919D05E090A8
:1019F000A705C090980520E00E949A040E949C13BD
:101A000003E080913005815080933005809132054C
:101A100082FD04C08091330582FF02CF109232050F
:101A2000809130058F5F80933005053649F5812F11
:101A300090E0019668E170E00E942832182F8093B0
:101A4000950584E462E00E94B427812F61E00E9442
:101A5000550984E762E00E94B427809197058823A6
:101A6000E9F580E260E00E941124809195058C30B8
:101A700010F080E501C081E461E00E9411242EC0D5
:101A80000636A1F48D2D90E001966CE370E00E9483
:101A90002832D82E80919705882311F486E501C05D
:101AA00082E662E00E94B4278D2D15C00736B1F49E
:101AB0008F2D90E001966CE370E00E942832F82EA2
:101AC00080919705882311F488E601C084E762E0DD
:101AD0000E94B4278F2D61E00E948304809130051D
:101AE0008150809330058091330582FF99CE80ED3F
:101AF00097E0FE013197F1F70197D9F791CEDF9189
:101B0000CF911F910F91FF90EF90DF90CF90BF90FA
:101B100008950F931F93CF93DF930E94580B8091EA
:101B200030058F5F8093300580E06BE047E00E94D6
:101B30005307809130058150809330058AE080936F
:101B40002F0514E00AE0C8ECD0E08091320580FD5A
:101B5000DBC080913205882321F4809133058823EE
:101B600019F000932F0507C080912F05882319F4E1
:101B70001092A405C9C08091320581FF74C01092F3
:101B80003205809130058F5F809330051430C9F4A1
:101B90008091A20561E00E94100980E066E00E9449
:101BA000B4278BE692E060E00E94492480E067E081
:101BB0000E94B42781E892E060E00E94492415E683
:101BC0004DC0153631F580E561E00E94B427809163
:101BD000A20560E00E94100982E661E00E94B4273D
:101BE0008091990561E00E94830480E066E00E9494
:101BF000B42787E992E060E00E94492480E067E032
:101C00000E94B4278DEA92E060E00E94492416E623
:101C100025C080E561E00E94B4278091A20560E0C4
:101C20000E94100982E661E00E94B4278091990524
:101C300060E00E94830480E066E00E94B42784E4B0
:101C400092E060E00E94492480E067E00E94B427AF
:101C50008AE592E060E00E94492414E0809130051A
:101C60008150809330058091320582FD04C08091BF
:101C7000330582FF6ACF10923205809130058F5F65
:101C8000809330051536A1F48091A20590E001966D
:101C900068E170E00E9428328093A2058091A2053D
:101CA00061E00E9410096091A20581E090E019C0F6
:101CB0001636C9F48091990590E001966CE370E0C6
:101CC0000E9428328093990582E661E00E94B42741
:101CD0008091990561E00E9483046091990582E0FA
:101CE00090E00E941B338091300581508093300535
:101CF0008091330582FF29CF80ED97E0FE01319777
:101D0000F1F70197D9F721CFDF91CF911F910F9173
:101D100008950F931F930E94580B809130058F5F99
:101D20008093300580E063E247E00E945307809192
:101D300030058150809330058AE080932F0518E0AC
:101D40000AE08091320580FDA8C080913205882389
:101D500021F480913305882319F000932F0507C0E3
:101D600080912F05882319F41092A40596C08091C4
:101D7000320581FF3BC010923205809130058F5FA4
:101D8000809330051830B9F481E00E948A0980E020
:101D900066E00E94B4278FEE92E060E00E94492442
:101DA00080E067E00E94B42785E093E060E00E9455
:101DB000492418E616C080E00E948A0980E066E0A7
:101DC0000E94B42784E492E060E00E94492480E00D
:101DD00067E00E94B4278BE193E060E00E94492411
:101DE00018E0809130058150809330058091320554
:101DF00082FD04C08091330582FFA3CF109232058B
:101E0000183609F09ECF80919705882359F080916C
:101E1000A1058F5F8093A1058091A105863010F008
:101E20001092A1058091970590E0882309F491E034
:101E300090939705809130058F5F809330050E94C5
:101E4000580B80E066E00E94B4278FEE92E060E0DD
:101E50000E94492480E067E00E94B42785E093E077
:101E600060E00E94492480E063E247E00E9453075B
:101E700081E00E948A09809130058150809330056D
:101E80006091A10585E090E00E941B336091970569
:101E900086E090E00E941B3354CF1F910F9108956C
:101EA0000F931F930E94580B809130058F5F809392
:101EB000300580E066E00E94B42781E393E060E0B3
:101EC0000E94492480E06BE247E00E945307809122
:101ED00030058150809330058AE080932F0516E00D
:101EE0000AE08091320580FDA8C0809132058823E8
:101EF00021F480913305882319F000932F0507C042
:101F000080912F05882319F41092A40596C0809122
:101F1000320581FF47C010923205809130058F5FF6
:101F2000809330051630E9F482E665E00E94B4271C
:101F30008091B40061E00E94830480E066E00E942A
:101F4000B42787E493E060E00E94492480E067E0E2
:101F50000E94B4278CE593E060E00E94492419E6D2
:101F60001CC082E665E00E94B4278091B40060E066
:101F70000E94830480E066E00E94B42781E793E03A
:101F800060E00E94492480E067E00E94B42784E872
:101F900093E060E00E94492416E080913005815072
:101FA000809330058091320582FD04C08091330515
:101FB00082FF97CF10923205193609F092CF8091A7
:101FC000B4008F5F8093B4008091B400813110F031
:101FD0001092B400809130058F5F809330050E948D
:101FE000580B80E066E00E94B4278FEE92E060E03C
:101FF0000E94492480E067E00E94B42785E093E0D6
:1020000060E00E94492480E06BE247E00E945307B1
:1020100082E665E00E94B4278091B40061E00E94EE
:102020008304809130058150809330056091B40025
:1020300083E090E00E941B3354CF1F910F910895CD
:10204000BF92CF92DF92EF92FF920F931F93CF93A5
:10205000DF93F0909D051091A705D09098050E9400
:10206000580B809130058F5F8093300580E06BE1E5
:1020700047E00E94530780913005815080933005DE
:102080008AE080932F0505E04AE0B42EC8ECD0E04A
:102090008091320580FD89C180913205882321F429
:1020A00080913305882319F0B0922F0507C08091E5
:1020B0002F05882319F41092A40577C18091320569
:1020C00081FFE1C010923205809130058F5F8093CF
:1020D00030050530F1F48091A105882309F451C041
:1020E0008091A105823009F44CC08091A105843013
:1020F00009F447C08091A105853009F442C0809160
:10210000A1058130C9F08091A105833009F086C016
:1021100013C00B3059F58091A105882369F0809197
:10212000A105823049F08091A105843029F0809189
:10213000A105853009F050C0812F6F2D4D2D2CE069
:102140000E949B0A80E066E00E94B42784EC93E042
:1021500060E00E94492480E067E00E94B4278AED95
:1021600093E060E00E9449240CE088C00C3009F044
:1021700055C08091A105813021F08091A105833067
:10218000D1F4812F6F2D4D2D2BE00E949B0A80E012
:1021900066E00E94B42788E993E060E00E94492449
:1021A00080E067E00E94B4278EEA93E060E00E943E
:1021B00049240BE063C08091A1058823A9F0809198
:1021C000A105823089F08091A105843069F0809169
:1021D000A105853019F508C08091A105813021F055
:1021E0008091A1058330D1F4812F6F2D4D2D2DE0ED
:1021F0000E949B0A80E066E00E94B42780EF93E093
:1022000060E00E94492480E067E00E94B42786E0F5
:1022100094E060E00E9449240DE030C0812F6F2DD2
:102220004D2D25E00E949B0A80E066E00E94B427C5
:1022300084E492E060E00E94492480E067E00E942C
:10224000B4278AE592E060E00E944924D092980584
:102250001093A705F0929D058091A80560919E05B9
:102260004091950500919D05E090A705C0909805C7
:1022700020E00E949A040E949C1305E080913005A2
:102280008150809330058091320582FD04C0809199
:10229000330582FFFDCE10923205809130058F5FAD
:1022A000809330050B3089F51F5F1D3010F011E071
:1022B00027C01230C1F48D2D90E00E9421048823A4
:1022C00031F08DE18F1518F43DE1F32E19C08D2DFD
:1022D00090E00E942104882399F48CE18F1580F40A
:1022E0002CE1F22E0DC0143031F0163021F01930EF
:1022F00011F01B3029F48EE18F1510F49EE1F92EB8
:10230000812F6F2D4D2D2BE03DC00C3069F5F394DE
:102310008FE18F1510F4FF24F394123099F48D2D72
:1023200090E00E942104882319F08DE18F15A8F018
:102330008D2D90E00E942104882389F48CE18F1573
:1023400060F00DC0143031F0163021F0193011F06A
:102350001B3029F48FE1F81611F4FF24F394812F38
:102360006F2D4D2D2CE00EC00D3071F48D2D90E0B1
:10237000019664E670E00E942832D82E812F6F2DDE
:102380004D2D2DE00E949B0A809130058150809355
:1023900030058091330582FF7BCE80ED97E0FE0112
:1023A0003197F1F70197D9F773CEDF91CF911F9154
:1023B0000F91FF90EF90DF90CF90BF9008952698F7
:1023C0002E9A81E080936800EBE6F0E080818064E3
:1023D000808382E080937C0010927B00EAE7F0E04B
:1023E0008EE88083808180648083089580917A0064
:1023F000877F80937A0080917A00806480937A004E
:1024000080917A0084FFFCCF209178003091790090
:10241000C90108951F920F920FB60F9211242F93A6
:102420003F934F935F936F937F938F939F93AF935C
:10243000BF93EF93FF937894809178009091790007
:1024400022E0803E920728F0109233051092310569
:1024500073C022E08336920798F18091310582FDA6
:102460006BC080E29EE40197F1F70E94F61182565C
:1024700092408E37910508F05FC082E0809334056A
:1024800012C00E94F611825692408E37910558F084
:10249000809131058B7F8093310580913205846076
:1024A0008093320549C080913405882351F780918B
:1024B00031058460809331058091330584603AC092
:1024C0008F509140E8F08091310581FD10C080E28D
:1024D0009EE40197F1F70E94F6118E5091408555C8
:1024E000914050F580913205826080933205809151
:1024F00031058260809331058091330582601AC076
:102500008091310580FD0EC080E29EE40197F1F7D5
:102510000E94F6118F50914078F4809132058160CD
:1025200080933205809131058160809331058091DF
:10253000330581608093330580917A0088648093AD
:102540007A00FF91EF91BF91AF919F918F917F9111
:102550006F915F914F913F912F910F900FBE0F9010
:102560001F9018951F920F920FB60F9211242F9360
:102570003F934F935F936F937F938F939F93AF930B
:10258000BF93EF93FF9378940E945804FF91EF91CB
:10259000BF91AF919F918F917F916F915F914F917B
:1025A0003F912F910F900FBE0F901F9018952F9273
:1025B0003F924F925F926F927F928F929F92AF92D3
:1025C000BF92CF92DF92EF92FF920F931F932090D2
:1025D0003705309038054090390550903A056090A5
:1025E0003B0570903C0580903D0590903E05AA24E7
:1025F000BB246501F501E370F070EE0FFF1FEE0FD5
:10260000FF1FEE53FA4FE080F18002811381EA0C44
:10261000FB1C0C1D1D1DD401C30175E0B695A795CB
:10262000979587957A95D1F7A401930164E0220FDD
:10263000331F441F551F6A95D1F782279327A4277C
:10264000B527860D971DA81DB91DE826F9260A276E
:102650001B272E0C3F1C401E511E89EB99E7A7E358
:10266000BEE9A80EB91ECA1EDB1EA2019101F5E04B
:102670005695479537952795FA95D1F7D201C1011F
:10268000E4E0880F991FAA1FBB1FEA95D1F72827FE
:1026900039274A275B27220D331D441D551DD601BE
:1026A000C5017BE0B695A795979587957A95D1F763
:1026B00083709070880F991F880F991F8E539A4FBF
:1026C000FC0180819181A281B3818A0D9B1DAC1D8B
:1026D000BD1D282739274A275B27620E731E841EDB
:1026E000951EF0E2AF16F7E3BF06FFEECF06F6EC5D
:1026F000DF0609F07FCF20923705309238054092EF
:10270000390550923A0560923B0570923C058092E3
:102710003D0590923E051F910F91FF90EF90DF9045
:10272000CF90BF90AF909F908F907F906F905F9071
:102730004F903F902F900895EF92FF920F931F9329
:102740008EE691E7A9EEBDE28093C2059093C305A2
:10275000A093C405B093C50581ED9DEDAFE3B9E944
:102760008093C6059093C705A093C805B093C9058B
:1027700087E59BEFA7E7BAE28093CA059093CB0564
:10278000A093CC05B093CD0580EB96EEA2E7B1EB1C
:102790008093CE059093CF05A093D005B093D1053B
:1027A00010923705109238051092390510923A05AB
:1027B00010923B0510923C0510923D0510923E058B
:1027C0000E94D712E090A205FF2400E010E0102F35
:1027D0000F2DFE2CEE248091950590E0A0E0B0E056
:1027E000E82AF92A0A2B1B2B102F0F2DFE2CEE2482
:1027F00080919E0590E0A0E0B0E0E82AF92A0A2B3B
:102800001B2B102F0F2DFE2CEE248091A80590E09D
:10281000A0E0B0E0E82AF92A0A2B1B2B80913B05A7
:1028200090913C05A0913D05B0913E05880F991F00
:10283000AA1FBB1F2091C2053091C3054091C4055A
:102840005091C50582279327A427B5278093C205F9
:102850009093C305A093C405B093C5050E94D712F9
:10286000D801C701880F991FAA1FBB1F2091C60559
:102870003091C7054091C8055091C905822793271B
:10288000A427B5278093C6059093C705A093C805D4
:10289000B093C9050E94D71216950795F794E7944F
:1028A0008091CA059091CB05A091CC05B091CD0542
:1028B000E826F9260A271B27E092CA05F092CB05E5
:1028C0000093CC051093CD050E94D71280913B0553
:1028D00090913C05A0913D05B0913E05B695A79518
:1028E000979587952091CE053091CF054091D005E1
:1028F0005091D10582279327A427B5278093CE0531
:102900009093CF05A093D005B093D1050E94D71224
:10291000E0909905FF2400E010E0102F0F2DFE2C11
:10292000EE248091A70590E0A0E0B0E0E82AF92A23
:102930000A2B1B2B102F0F2DFE2CEE2480919D05B2
:1029400090E0A0E0B0E0E82AF92A0A2B1B2B102F18
:102950000F2DFE2CEE248091980590E0A0E0B0E0D1
:10296000E82AF92A0A2B1B2BD801C701880F991FC7
:10297000AA1FBB1F2091C2053091C3054091C40519
:102980005091C50582279327A427B5278093C205B8
:102990009093C305A093C405B093C5050E94D712B8
:1029A0008091370590913805A0913905B0913A058D
:1029B000880F991FAA1FBB1F2091C6053091C7051C
:1029C0004091C8055091C90582279327A427B527B0
:1029D0008093C6059093C705A093C805B093C90519
:1029E0000E94D7128091370590913805A091390542
:1029F000B0913A05B695A795979587952091CA0508
:102A00003091CB054091CC055091CD05822793277D
:102A1000A427B5278093CA059093CB05A093CC0536
:102A2000B093CD050E94D71216950795F794E794B9
:102A30008091CE059091CF05A091D005B091D105A0
:102A4000E826F9260A271B27E092CE05F092CF054B
:102A50000093D0051093D1051092370510923805D8
:102A60001092390510923A0510923B0510923C05E0
:102A700010923D0510923E050E94D7121F910F91B2
:102A8000FF90EF900895982F8150823078F0A895AC
:102A90000E94D71220913B0530913C05809137056B
:102AA00090913805282739273F7743C09130F9F4B2
:102AB00080913B0590913C05A0913D05B0913E056C
:102AC00020913705309138054091390550913A05EC
:102AD00082279327A427B527EFE0B695A79597956A
:102AE0008795EA95D1F79C012370307022C092300F
:102AF000F9F480913B0590913C05A0913D05B09182
:102B00003E052091370530913805409139055091A7
:102B10003A0582279327A427B52771E1B695A79593
:102B2000979587957A95D1F79C012170307001C0F7
:102B30000895C90108959091280580913605981748
:102B400039F081E080933505809128058093360522
:102B500080912805823009F448C0833030F48823FE
:102B600059F0813009F051C02AC0833009F445C0C2
:102B7000853009F04AC02FC08091A3058823C1F099
:102B800080912505882321F480912605882381F0F2
:102B900080912605882329F080919F058093D80590
:102BA00004C080912505882381F18091960522C07B
:102BB000809195058093D80580919E051BC08091DA
:102BC000A105882321F08091A105823039F48091FC
:102BD000A7058093D80580919D050CC080919D0527
:102BE0008093D8058091A70505C084E18093D8051E
:102BF000809198058093D90508958091A2058093CE
:102C0000D805809199058093D9050895AF92CF9208
:102C1000EF920F93A82FB0E0E02FF0E0CD01840FEA
:102C2000911D8E179F07B4F0EC0DF11DEA17FB07FD
:102C30008CF070E04E2D50E0CB01820F911D841777
:102C4000950744F080E04A0D511D461757071CF0C8
:102C500081E001C080E00F91EF90CF90AF90089598
:102C6000CF93DF93C82FD0E0E42FF0E0E053F84F8C
:102C7000833010F42C963197262F30E02F5F3F4F92
:102C80002E0F3F1FCE01880F991F280F391FCF012C
:102C90009695879596958795280F391FCF0160E9FE
:102CA00071E00E941432260F371FCF0164E670E0F6
:102CB0000E941432261B370BAE014F5F5F4FCA01D3
:102CC000880F991F840F951F880F991F6AE070E085
:102CD0000E941432C901860F971F67E070E00E94BE
:102CE0001432DF91CF910895EF92FF920F931F93CB
:102CF00080E00E944315A0E0B0E0BC01CD010E943D
:102D00007B2F20E030E048E452E40E94932C20E046
:102D10003EEF4FEF56E40E948D2D20E030E040EA78
:102D200051E40E94662C7B018C0181E00E944315D6
:102D300083702AE5829FC0011124AA2797FDA095E0
:102D4000BA2FBC01CD010E94C92E9B01AC01C80164
:102D5000B7010E94662C26E53EE049E450E40E945B
:102D6000932C20E030E044E353E40E948D2D1F912A
:102D70000F91FF90EF9008952F923F924F925F92A4
:102D80006F927F928F929F92AF92BF92CF92DF927B
:102D9000EF92FF920F931F93DF93CF93CDB7DEB7E0
:102DA00061970FB6F894DEBF0FBECDBFEC86FD86EF
:102DB0000E871F87998A888A182F092FCB01A12F88
:102DC000B02F3C014D01C501D6015C016D01C90167
:102DD000DA018D839E83AF83B8871A8619869FC0D8
:102DE0006D817E818F819885A60195010E94662C58
:102DF0001B012C01C401B3012C853D854E855F85E7
:102E00000E94662C69837A838B839C83C201B10103
:102E100020E030E048E652E40E94392E18167CF497
:102E2000D7FAD094D7F8D0940F2EF0E02F2EF0E000
:102E30003F2EF8E64F2EF2E45F2EF02D18C0C201AF
:102E4000B10120E030E040E050E40E94992E882358
:102E500074F4D7FAD094D7F8D0940F2EF0E02F2E38
:102E6000F0E03F2EF0E04F2EF0E45F2EF02D698170
:102E70007A818B819C810E94272F6B876F368CF023
:102E8000C801B70120E030E046EE52E40E94992EDE
:102E900088233CF460E070E086EE92E4A80197019C
:102EA00013C0FB85FE3054F5C401B30120E030E0CF
:102EB00040E551E40E94392E181604F560E070E0F8
:102EC00080E591E4A40193010E94352C2C853D8579
:102ED0004E855F850E948D2DA60195010E94932C41
:102EE0009B01AC016D817E818F8198850E94662C4B
:102EF0000E94BD2AE889F989608307C0F985FF230C
:102F000021F48A858F5F8A8702C0E1E0E9876980C2
:102F10007A808B809C802D823E824F825886C401AD
:102F2000B30120E030E04CEE52E40E94992E882359
:102F30009CF4C401B30120E030E040E850E40E947A
:102F4000662C7B018C0120E030E040E251E40E94DD
:102F5000392E18160CF444CF6D817E818F819885AF
:102F60000E94BD2AEEA1FFA160838A8561960FB6FB
:102F7000F894DEBF0FBECDBFCF91DF911F910F91AF
:102F8000FF90EF90DF90CF90BF90AF909F908F9089
:102F90007F906F905F904F903F902F9008957F9219
:102FA0008F929F92AF92BF92CF92DF92EF92FF9259
:102FB0000F931F93CF93DF93D82E762EC22E85E0EA
:102FC000489FA001112476EEE72E7FEFF72EE40E46
:102FD000F51E6BEE862E6FEF962E840E951EF70172
:102FE0008491172DC0E0D0E0A82EBB24C5010C2E83
:102FF00002C0959587950A94E2F780FF09C000E02A
:10300000CC2009F401E08D2D612F42E022E005C0C3
:103010008D2D612F42E022E00C2D0E945A24219632
:103020001E5FC730D10511F70894E11CF11CF2E0D6
:10303000DF0EE814F90499F6DF91CF911F910F91FB
:10304000FF90EF90DF90CF90BF90AF909F908F90C8
:103050007F9008957F928F929F92AF92BF92CF926E
:10306000DF92EF92FF920F931F93CF93DF93D82EAF
:10307000762EC22E50E0440F551F440F551FF6E622
:10308000EF2EF2E0FF2EE40EF51EEAE68E2EE2E0D1
:103090009E2E840E951EF7018491172DC7E0D0E077
:1030A000A82EBB24C5010C2E02C0959587950A94C5
:1030B000E2F780FF09C000E0CC2009F401E08D2D8B
:1030C000612F42E022E005C08D2D612F42E022E019
:1030D0000C2D0E945A2421971E5FFFEFCF3FDF0780
:1030E00009F70894E11CF11C82E0D80EE814F904F9
:1030F00091F6DF91CF911F910F91FF90EF90DF90AC
:10310000CF90BF90AF909F908F907F900895CF9277
:10311000DF92EF92FF920F931F93C82ED62E8091CD
:103120002805843009F0F5C080913F058430C9F14D
:103130008EE164E04AE02D2D0E942A188DE264E0C1
:103140004AE02D2D0E942A1886E464E04AE02D2DE5
:103150000E942A1885E564E04AE02D2D0E942A1875
:103160006091BE057091BF058091C0059091C10529
:103170000E94BD2A162F6091B1057091B205809111
:10318000B3059091B4050E94BD2A00E0DD2009F44A
:1031900001E0812F44E024E00E945A2484E08093DF
:1031A0003F05CC2009F5E090D405F090D5050091BD
:1031B000D6051091D7056091BA057091BB05809135
:1031C000BC059091BD050E94BD2A70E06F3171056C
:1031D00034F16E3271051CF5C801B7010E94BD2A99
:1031E00070E065317105DCF48091A70560919D0563
:1031F000409198050E94301693E0899FF0011124B8
:10320000EE56FD4FE49183E290E064E070E04E2FD3
:1032100050E02D2D30E00E94CF17CC2009F5E09032
:10322000D405F090D5050091D6051091D705609191
:10323000BA057091BB058091BC059091BD050E94B7
:10324000BD2A70E06E32710534F16D3371051CF5E5
:10325000C801B7010E94BD2A70E065317105DCF438
:103260008091A70560919D05409198050E943016B8
:1032700093E0899FF0011124ED56FD4FE49182E324
:1032800090E064E070E04E2F50E02D2D30E00E9481
:10329000CF17CC2021F5E090D405F090D505009112
:1032A000D6051091D7056091BA057091BB05809144
:1032B000BC059091BD050E94BD2A70E06234710585
:1032C0000CF4B3C2613571050CF0AFC2C801B7018F
:1032D0000E94BD2A70E0653171050CF0A6C2809194
:1032E000A70560919D05409198050E94301693E0D6
:1032F000899FF0011124EC56FD4FE49186E490E0A3
:1033000064E070E04E2F50E02D2D30E00E94CF178A
:103310008CC28091280590913F05853009F006C147
:10332000953009F45DC09430F1F483E290E064E0FC
:1033300070E040E250E02D2D30E00E94CF1782E394
:1033400090E064E070E040E250E02D2D30E00E941B
:10335000CF1786E490E064E070E040E250E02D2D6D
:1033600030E00E94CF1780913F058823C1F48EE1A1
:1033700064E04AE02D2D0E942A188DE264E04AE0C4
:103380002D2D0E942A1886E464E04AE02D2D0E942B
:103390002A1885E564E04AE02D2D0E942A186091E4
:1033A000BE057091BF058091C0059091C1050E9436
:1033B000BD2A162F6091B1057091B2058091B305B9
:1033C0009091B4050E94BD2A00E0DD2009F401E0DF
:1033D000812F44E024E00E945A2485E080933F0539
:1033E000CC2009F5E090D405F090D5050091D605E4
:1033F0001091D7056091BA057091BB058091BC050D
:103400009091BD050E94BD2A70E06031710504F104
:103410006F317105ECF4C801B7010E94BD2A70E05C
:1034200065317105ACF4E091A70583E0E89FF001F8
:103430001124E955FD4FE49184E190E064E070E0EF
:103440004E2F50E02D2D30E00E94CF17CC2009F5F3
:10345000E090D405F090D5050091D6051091D705E0
:103460006091BA057091BB058091BC059091BD0536
:103470000E94BD2A70E06F31710504F16E32710552
:10348000ECF4C801B7010E94BD2A70E065317105F6
:10349000ACF4E091A70583E0E89FF0011124E85522
:1034A000FD4FE49183E290E064E070E04E2F50E045
:1034B0002D2D30E00E94CF17CC2021F5E090D405CF
:1034C000F090D5050091D6051091D7056091BA0509
:1034D0007091BB058091BC059091BD050E94BD2AED
:1034E00070E06E3271050CF446C16D3371050CF05D
:1034F00042C1C801B7010E94BD2A70E06531710563
:103500000CF039C1E091A70583E0E89FF001112498
:10351000E755FD4FE49182E390E064E070E04E2FC8
:1035200050E02D2D30E00E94CF1723C1892F845009
:10353000823008F08AC0953051F584E190E064E073
:1035400070E040E250E02D2D30E00E94CF1783E282
:1035500090E064E070E040E250E02D2D30E00E9409
:10356000CF1782E390E064E070E040E250E02D2D60
:1035700030E00E94CF1786E464E04AE02D2D0E94DF
:103580002A1885E564E04AE02D2D0E942A188091D2
:103590003F058430F1F483E290E064E070E040E2C3
:1035A00050E02D2D30E00E94CF1782E390E064E0E0
:1035B00070E040E250E02D2D30E00E94CF1786E40D
:1035C00090E064E070E040E250E02D2D30E00E9499
:1035D000CF1780913F058823C1F48EE164E04AE073
:1035E0002D2D0E942A188DE264E04AE02D2D0E94C4
:1035F0002A1886E464E04AE02D2D0E942A1885E509
:1036000064E04AE02D2D0E942A186091BE05709159
:10361000BF058091C0059091C1050E94BD2A162F5B
:103620006091B1057091B2058091B3059091B40598
:103630000E94BD2A00E0DD2009F401E0812F44E072
:1036400024E00E945A2410923F05CC2009F5E09016
:10365000D405F090D5050091D6051091D70560915D
:10366000BA057091BB058091BC059091BD050E9483
:10367000BD2A70E06A3171059CF16932710584F5EB
:10368000C801B7010E94BD2A70E06531710544F59B
:10369000809197058823B9F480912805882321F02B
:1036A00080912805833079F48091D80590E0479681
:1036B0006CE070E00E94283201966AE070E00E949F
:1036C0002832462F06C08091D8056AE00E94083251
:1036D000482F8EE164E02D2D0E942A18CC2009F598
:1036E000E090D405F090D5050091D6051091D7054E
:1036F0006091BA057091BB058091BC059091BD05A4
:103700000E94BD2A70E069327105ACF16833710521
:1037100094F5C801B7010E94BD2A70E065317105BA
:1037200054F5809197058823C9F480912805882352
:1037300021F080912805833089F48091D80590E0AC
:1037400047966CE070E00E94283201966AE070E0D3
:103750000E942832482F8DE264E008C08091D8058D
:103760006AE00E9408328DE264E0492F2D2D0E940C
:103770002A18CC2009F5E090D405F090D5050091E9
:10378000D6051091D7056091BA057091BB0580915F
:10379000BC059091BD050E94BD2A70E062347105A0
:1037A000C4F061357105ACF4C801B7010E94BD2AAF
:1037B00070E0653171056CF48091D9056AE00E9472
:1037C0000832482F86E464E02D2D0E942A18CC2070
:1037D00009F5E090D405F090D5050091D60510913B
:1037E000D7056091BA057091BB058091BC05909199
:1037F000BD050E94BD2A70E061357105B4F06036E8
:1038000071059CF4C801B7010E94BD2A70E06531C2
:1038100071055CF48091D9056AE00E94083285E563
:1038200064E0492F2D2D0E942A181F910F91FF90BF
:10383000EF90DF90CF9008950F931F93082F10E023
:103840008FE3612F0E94B427002311F080EF01C0A5
:103850008FE00E945B271F5F173091F78FE367E0CF
:103860000E94B427002311F080E201C08FEC0E9477
:103870005B271F910F910895BF92CF92DF92EF9235
:10388000FF920F931F93B82E6091BA057091BB05FC
:103890008091BC059091BD050E94BD2A7B018C01E1
:1038A0006091D4057091D5058091D6059091D7058A
:1038B0000E94BD2A9B01AC018E2D622F44E024E0C2
:1038C0000B2D0E945A24CC24BB2011F4CC24C39489
:1038D0006091BE057091BF058091C0059091C105B2
:1038E0000E94BD2A7B018C016091B1057091B205E7
:1038F0008091B3059091B4050E94BD2A9B01AC0153
:103900008E2D622F44E024E00C2D0E945A24E0907A
:10391000D405F090D5050091D6051091D70560919A
:10392000BA057091BB058091BC059091BD050E94C0
:10393000BD2A70E06B33710564F0613471054CF49D
:10394000C801B7010E94BD2A70E0613471050CF412
:1039500079C06091AA05262F30E08091AB059927A8
:1039600087FD90952817390771F08AE043E02CE035
:103970000B2D0E945A248AE06091AB0543E02CE0B5
:103980000C2D0E945A246091D305262F30E080919F
:10399000D205992787FD90952817390771F083E79D
:1039A00043E02CE00B2D0E945A2483E76091D2055E
:1039B00043E02CE00C2D0E945A24E090D405F090B6
:1039C000D5050091D6051091D705D090D20560910C
:1039D000BA057091BB058091BC059091BD050E9410
:1039E000BD2A70E06F367105A4F0673771058CF45D
:1039F000C801B7010E94BD2A70E02D2D30E0CB0137
:103A00000496821793072CF0245F3F4F2617370741
:103A1000ECF41092700080913505882311F010921B
:103A2000350581E08093700081E090E06B2D70E0BF
:103A30000E9487181F910F91FF90EF90DF90CF9019
:103A4000BF9008958B2D0E941C1C83CF83E76D2DA2
:103A500043E02CE00C2D0E945A24DBCFFF920F9301
:103A60001F93F82E80E060E040E820E40F2D0E94D4
:103A70005A2410E0FF2009F411E080E060E040E803
:103A800022E0012F0E945A2480E06EE340E822E009
:103A90000E945A248AE06091AB0543E02CE00E942A
:103AA0005A2483E76091D20543E02CE00E945A2417
:103AB0000E949B15809197058823B9F48091280571
:103AC000882321F080912805833079F48091D805EE
:103AD00090E047966CE070E00E94283201966AE020
:103AE00070E00E942832462F06C08091D8056AE017
:103AF0000E940832482F8EE164E02F2D0E942A1880
:103B0000809197058823C9F480912805882321F0A6
:103B100080912805833089F48091D80590E04796FC
:103B20006CE070E00E94283201966AE070E00E942A
:103B30002832482F8DE264E008C08091D8056AE001
:103B40000E9408328DE264E0492F2F2D0E942A182E
:103B50008091D9056AE00E940832482F86E464E02B
:103B60002F2D0E942A188091D9056AE00E94083200
:103B700085E564E0492F2F2D0E942A188F2D0E9481
:103B80001C1C1F910F91FF900895EF92FF920F93CD
:103B90001F9389E18093AB058093D20580E090E08C
:103BA000ACE7B2E48093BE059093BF05A093C00537
:103BB000B093C10580E090E0A8EFB1E48093B10537
:103BC0009093B205A093B305B093B4050E94741608
:103BD0007B018C010E94AF3220E030E040EA50E4EB
:103BE0000E94932C6093B5057093B6058093B7053A
:103BF0009093B805C801B7010E940D3320E030E072
:103C000040EA50E40E94932C6093AD057093AE059A
:103C10008093AF059093B0051F910F91FF90EF90A7
:103C200008952F923F924F925F926F927F928F9260
:103C30009F92AF92BF92CF92DF92EF92FF920F933B
:103C40001F93DF93CF93CDB7DEB72E970FB6F894BF
:103C5000DEBF0FBECDBF6091BE057091BF058091E4
:103C6000C0059091C1056093BA057093BB05809320
:103C7000BC059093BD05E090B105F090B2050091B0
:103C8000B3051091B405E092D405F092D5050093E8
:103C9000D6051093D7052091B5053091B605409112
:103CA000B7055091B8050E94662C5B016C016093CA
:103CB000BE057093BF058093C0059093C1056090C9
:103CC000AD057090AE058090AF059090B005C8012D
:103CD000B701A40193010E94662C6093B105709313
:103CE000B2058093B3059093B40520E030E048E638
:103CF00052E40E94392E1816BCF480E090E0A8E649
:103D0000B2E48093B1059093B205A093B305B0934C
:103D1000B405D401C301B0588093AD059093AE05AE
:103D2000A093AF05B093B0056091B1057091B20555
:103D30008091B3059091B40520E030E040E050E47C
:103D40000E94992E8823ECF480E090E0A0E0B0E49B
:103D50008093B1059093B205A093B305B093B405D9
:103D60008091AD059091AE05A091AF05B091B005E1
:103D7000B0588093AD059093AE05A093AF05B09376
:103D8000B005C601B50120E030E048EF52E40E94E2
:103D9000392E18163CF0C601B5010E94272F1616C1
:103DA0000CF464C080E090E0ACE7B2E48093BE0520
:103DB0009093BF05A093C005B093C10580E090E04B
:103DC000A8EFB1E48093B1059093B205A093B30539
:103DD000B093B4050E9474167B018C010E94AF322F
:103DE00020E030E040EA50E40E94932C6093B50557
:103DF0007093B6058093B7059093B805C801B701D5
:103E00000E940D3320E030E040EA50E40E94932C01
:103E10006093AD057093AE058093AF059093B005A8
:103E20006091460520914505261B8AE043E000E0AD
:103E30000E945A2460914A0520914905261B83E778
:103E400043E00E945A241092490510924A051092AC
:103E500045051092460581E08093350510922605B0
:103E600080912605809325050E949B158091AB05C6
:103E70008E838093AA059091D2059D839093D3055C
:103E80002090B5053090B6054090B7055090B80524
:103E9000C201B10120E030E040E050E00E94392E44
:103EA00018160CF038C16091BE057091BF05809165
:103EB000C0059091C1050E94272F6F360CF467C092
:103EC000E090BA05F090BB050091BC051091BD05CE
:103ED000C801B7010E94272F60370CF058C0C801F5
:103EE000B70120E030E040E850E40E94662C9B01DE
:103EF000AC0160E070E086EE92E40E94352C5B013C
:103F00006C016090AD057090AE058090AF0590900B
:103F1000B005C801B701A60195010E94662C6F8308
:103F2000788789879A87E090D405F090D50500912D
:103F3000D6051091D7050E94BD2A70E06F36710535
:103F400034F1673771051CF5C601B501A201910175
:103F50000E948D2DA40193010E94932C9B01AC0122
:103F6000C801B7010E94662C7B018C010E94BD2A0A
:103F700070E0AD812A2F30E0CB01049682179307C1
:103F800034F0245F3F4F261737070CF02CC2E09027
:103F9000B505F090B6050091B7051091B805C801B8
:103FA000B70120E030E040E050E00E94392E1816C2
:103FB0000CF0FBC16090BE057090BF058090C005FD
:103FC0009090C105C401B30120E030E040E850E426
:103FD0000E94662C20E030E046EE52E40E94992ECA
:103FE00088230CF0E2C180914A05882309F05DC066
:103FF00000D02091B1053091B2054091B3055091A8
:10400000B405A090AD05B090AE05C090AF05D090BE
:10401000B00587E495E0EDB7FEB792838183C401D4
:10402000B301E8E48E2EE5E09E2E0E94BC1680933C
:10403000400590914805809147050F900F90891792
:1040400038F480934A059C5F90934905945005C0CD
:1040500090934A058C5F80934905809126058823BB
:1040600079F4892F845080934205992787FD909594
:104070000E9400238EEC92E061E00E948C221AC024
:1040800000914A05109149050F3058F0113328F47A
:1040900082E00E94431580FF04C00D50009342054A
:1040A00009C01F5F1093420505C0809140058150F3
:1040B000809340053091D20560914205832F861B85
:1040C000482F552747FD509557FF03C05095419500
:1040D0005F4F8091400525E08202C00111240497C2
:1040E000481759070CF461C1842F36173CF4463049
:1040F00014F03B5F01C0340F3093D2059091D2058C
:1041000069170CF052C1863014F0955001C0981B0D
:104110009093D2054AC18091BE059091BF05A091B0
:10412000C005B091C10589839A83AB83BC83BC0170
:10413000CD010E94272F6E300CF07DC0E090BA05B3
:10414000F090BB050091BC051091BD05C801B701F9
:104150000E94272F6D300CF46EC060E070E080E5A7
:1041600091E4A80197010E94352C5B016C016090DD
:10417000AD057090AE058090AF059090B005C80178
:10418000B701A60195010E94662C6B877C878D87FD
:104190009E87E090D405F090D5050091D60510914A
:1041A000D7050E94BD2A70E0663071050CF443C04B
:1041B0006E3071050CF03FC0C601B501A20191013E
:1041C0000E948D2DA40193010E94932C9B01AC01B0
:1041D000C801B7010E94662C7B018C010E94BD2A98
:1041E00070E09E81292F30E0CB010496821793075F
:1041F00014F1245F3F4F26173707ECF024C18B855D
:104200009C85AD85BE858093BE059093BF05A09328
:10421000C005B093C105E092B105F092B2050093DC
:10422000B3051093B40510924505109246051092FF
:10423000410510924405E090B505F090B605009157
:10424000B7051091B805C801B70120E030E040E0A3
:1042500050E00E94992E88230CF0A7C06090BE0504
:104260007090BF058090C0059090C105C401B30156
:1042700020E030E040E651E40E94392E18160CF0A0
:1042800094C080914605882309F054C000D0209145
:10429000B1053091B2054091B3055091B405A0909D
:1042A000AD05B090AE05C090AF05D090B00583E4E9
:1042B00095E0ADB7BEB712969C938E931197C4014B
:1042C000B301B4E48B2EB5E09B2E0E94BC16809304
:1042D000400590914405809143050F900F908917F8
:1042E00038F4809346059C5F90934505945005C033
:1042F000909346058C5F8093450580912505882322
:1043000021F49450909341051AC0009146051091F4
:1043100045050F3058F0113328F482E00E94431510
:1043200080FF04C00D500093410509C01F5F10932A
:10433000410505C080914005815080934005409122
:10434000AB0560914105242F332727FD3095862F3B
:10435000992787FD9095281B390B37FF03C03095AF
:1043600021953F4F522F8091400525E08202C001E8
:1043700011240497252F332727FD30952817390757
:10438000A4F046173CF4563014F04B5F01C0450FC3
:104390004093AB058091AB0568173CF4563014F0A0
:1043A000855001C0851B8093AB058091AB058330A0
:1043B0001CF483E08093AB058091D20583301CF41C
:1043C00083E08093D2058091AB0582331CF081E3BA
:1043D0008093AB058091D20582330CF449C081E310
:1043E0008093D20545C08F819885A985BA85809331
:1043F000BE059093BF05A093C005B093C105E092A0
:10440000B105F092B2050093B3051093B405D20143
:10441000C101B0588093B5059093B605A093B70538
:10442000B093B8051092490510924A0510924205C2
:1044300010924805109245051092460510924105CC
:1044400010924405A4CDD201C101B0588093B505A6
:104450009093B605A093B705B093B80569817A81AA
:104460008B819C810E94BD2A6D3009F0C8CEDBCEC5
:104470002E960FB6F894DEBF0FBECDBFCF91DF9161
:104480001F910F91FF90EF90DF90CF90BF90AF9072
:104490009F908F907F906F905F904F903F902F9064
:1044A00008959093C5008093C40088E18093C10073
:1044B0008EE08093C200519A5098089506C090E013
:1044C00000009F5F9E31E1F781508823C1F7089576
:1044D00048EC50E009C020E137E2FA013197F1F7EA
:1044E00021503040D1F781508823A9F70895982FA3
:1044F0008091C00085FFFCCF9093C60080E090E0E3
:1045000008958091C00087FFFCCF8091C600089578
:104510008091C00080780895AC0120E007C08091B0
:10452000C00085FFFCCF3093C6002F5FFA01E20F79
:10453000F11D3491332399F7662371F08091C00007
:1045400085FFFCCF8AE08093C6008091C00085FF84
:10455000FCCF8DE08093C6000895FC0107C08091D8
:10456000C00085FFFCCF31969093C60090819923BF
:10457000B1F70895282F982F92959F709A3030F4B4
:104580008091C00085FFFCCF905D05C08091C00088
:1045900085FFFCCF995A9093C600822F90E08F70D0
:1045A00090700A973CF48091C00085FFFCCF2F707B
:1045B000205D06C08091C00085FFFCCF2F70295A76
:1045C0002093C60008951F93182F892F0E94BA22A6
:1045D000812F0E94BA221F910895EF92FF920F93AC
:1045E0001F937B018C01C801AA27BB270E94E322ED
:1045F000C7010E94E3221F910F91FF90EF90089551
:104600000F931F93CF93DF938C01E0E1F7E240E03B
:10461000C0E0D0E0C801BF010E941432262F6623FB
:1046200029F4442319F4E130F10549F48091C000E4
:1046300085FFFCCF205D2093C600205341E0CF01D1
:104640006AE070E00E9414322196C530D10571F005
:10465000822F90E09C012E9FC0012F9F900D3E9FC6
:10466000900D1124081B190BFB01D4CFDF91CF91C2
:104670001F910F9108951F93CF93DF93482F87FFCA
:1046800008C08091C00085FFFCCF8DE28093C600FA
:104690004195E4E6F0E010E0C0E0D0E0842F9927F7
:1046A00087FD9095BF010E941432262F16162CF01C
:1046B000112319F4E130F10549F48091C00085FF20
:1046C000FCCF205D2093C600205311E0CF016AE0AB
:1046D00070E00E9414322196C330D10531F02E9F34
:1046E000802D1124481BFB01D9CFDF91CF911F9161
:1046F00008954F925F926F927F928F929F92AF92A6
:10470000BF92CF92DF92EF92FF920F931F93CF93BE
:10471000DF934B015C01E12C9AECF92E9AE9092F09
:104720009BE3192F4424C0E0D0E0C501B401A801E7
:1047300097010E943B32D22E222341F4442031F4CF
:1047400081E0E816F1040105110561F48091C000D3
:1047500085FFFCCF80E3D80ED092C60080EDD80E46
:1047600044244394C801B7012AE030E040E050E01F
:104770000E943B32C22E732E642E552E2196CA30D3
:10478000D105A9F06D2D70E080E090E0A8019701BF
:104790000E94E931861A970AA80AB90A2C2D372DEA
:1047A000462D552DC901DA017C018D01BECFDF9167
:1047B000CF911F910F91FF90EF90DF90CF90BF901E
:1047C000AF909F908F907F906F905F904F900895E3
:1047D00008950F931F93CF93DF93482F30E020E08D
:1047E00006C081539D4FFC018491280F3F5F822FAB
:1047F00090E03417B0F3FC01E153FD4F0491EC015C
:10480000C053DD4F10E006C0FE0184910E945B277B
:104810001F5F21961017C0F3DF91CF911F910F9169
:104820000895DF92EF92FF920F931F93CF93DF9340
:10483000D62E95E0899FC0011124EC01CE5BDD4F9F
:104840008E0127E4E22E22E0F22EE80EF91EDD2092
:1048500021F0FE018491809502C0F80184910E94AC
:104860005B2721960F5F1F4FCE15DF0581F7DD20F7
:1048700011F08FEF01C080E00E945B2780E00E9472
:10488000A727DF91CF911F910F91FF90EF90DF90BD
:1048900008951F93CF93DF93EC01162F04C0612F6F
:1048A0000E941124219688818823C9F7DF91CF9136
:1048B0001F9108952F923F924F925F926F927F9235
:1048C0008F929F92AF92BF92CF92DF92EF92FF9220
:1048D0000F931F93CF93DF93282E162F342EF22E93
:1048E000402EC62FD0E0C770D070209709F45BC06F
:1048F000562E569456945694EE2467E0C62EC12246
:104900008C2C992487FC90945E01A20EB11C51E07E
:10491000652E712C35C0DE2CD20C8D2D652D0E949C
:10492000B4270E940E270E940E27082F40E050E077
:1049300015C081E0481641F4C30102C0880F991FD9
:104940002A95E2F7082B08C0C30102C0880F991FFF
:104950002A95E2F7809508234F5F5F4F9A01280D53
:10496000391D2A153B0524F48C2D840F883009F756
:104970008D2D652D0E94B427802F0E945B27E39424
:10498000E31448F22F2D30E088E090E08C1B9D0B63
:104990008217930714F0FF2404C0812F877088507A
:1049A000F80E187F185FE12EE694E694E694C12F86
:1049B000D0E0CF0DD11D43E0D595C7954A95E1F7DD
:1049C00012C0822D6E2D0E94B42710E009C081E034
:1049D000481611F48FEF01C080E00E945B271F5F33
:1049E0001315A8F3E3948E2D90E08C179D074CF3DC
:1049F0002F2D2770C9F100E0C22FD0E031E0A32EA7
:104A0000B12C30C0F02EF20C8F2D6E2D0E94B427E9
:104A10000E940E270E940E27182F20E030E017C0BA
:104A200081E0481649F4C501022E02C0880F991F83
:104A30000A94E2F7182B09C0C501022E02C0880FA4
:104A4000991F0A94E2F7809518232F5F3F4F2C1788
:104A50003D0734F38F2D6E2D0E94B427812F0E94C5
:104A60005B270F5F031570F280E00E94A727DF919C
:104A7000CF911F910F91FF90EF90DF90CF90BF905B
:104A8000AF909F908F907F906F905F904F903F90EE
:104A90002F900895DF92EF92FF920F931F93F82EBD
:104AA000162FD42EE22E41E001E00E945A248F2DD1
:104AB00081508D0D612F41E02E2D0E945A248F2DA3
:104AC000612F4D2D21E00E945A2411501E0D8F2D73
:104AD000612F4D2D21E00E945A241F910F91FF90CC
:104AE000EF90DF900895EF92FF920F931F93F82EAF
:104AF000162F062F069506950695602F0E94B4275F
:104B00000E940E270E940E27E82E8F2D602F0E94F4
:104B1000B427177081E090E002C0880F991F1A95A2
:104B2000E2F780958E210E945B2780E00E94A727F4
:104B30001F910F91FF90EF900895EF92FF920F93C6
:104B40001F93F82E162F062F069506950695602FB3
:104B50000E94B4270E940E270E940E27E82E8F2D58
:104B6000602F0E94B427177081E090E002C0880F88
:104B7000991F1A95E2F78E290E945B2780E00E9418
:104B8000A7271F910F91FF90EF9008953F924F92AA
:104B90005F926F927F928F929F92AF92BF92CF92CD
:104BA000DF92EF92FF920F931F93CF93DF93D82E54
:104BB000C62E322E462E481AE42EFF24C701880F37
:104BC000991FCC27DD27C81BD90B23965D2C662E99
:104BD000762EAA24BB248824992481E0381641F536
:104BE0000E2D0C0D8D2D602F0E949D259C2D9E1944
:104BF000192F8D2D692F0E949D25852D602F0E94D4
:104C00009D25852D612F0E949D250419802F662DDD
:104C10000E949D25802F672D0E949D251419812FAC
:104C2000662D0E949D25812F672D0E949D2527C0FE
:104C30000E2D0C0D8D2D602F0E9473258C2D8E193D
:104C4000182F8D2D612F0E947325852D602F0E94B6
:104C50007325852D612F0E9473250419802F662DE1
:104C60000E947325802F672D0E9473251419812FB0
:104C7000662D0E947325812F672D0E947325D7FF13
:104C800004C02696C80DD91D0DC02A96C5018E19DF
:104C90009F09880F991F880F991FC80FD91F089463
:104CA000E108F1080894A11CB11C84E090E0880E92
:104CB000991ED3945A9463947A94EA14FB040CF0EA
:104CC0008CCFDF91CF911F910F91FF90EF90DF90EC
:104CD000CF90BF90AF909F908F907F906F905F909C
:104CE0004F903F9008952F982D982C9840985A985F
:104CF000279A259A249A389A529A8BB18F708BB939
:104D000085B1807F85B98AB1806F8AB984B18F609F
:104D100084B9089540985A98882319F0813021F475
:104D200002C0409A08955A9A0895F8940E948A26DB
:104D30008BB1806F8BB985B18F6085B92F988AB19F
:104D40008F708AB984B1807F84B92D9A2C9A000023
:104D500000000AC02C9800000000000000002C9AFF
:104D6000000000000000000089B193B187FDF2CF80
:104D70002C982D988AB1806F8AB984B18F6084B9DC
:104D8000789408951F93162FF8940E9495262F98D3
:104D90002D982C9A8AB1806F8AB984B18F6084B9BA
:104DA0008BB18F708BB99BB1812F807F892B8BB991
:104DB00085B1807F85B985B11F70812B85B90000D1
:104DC00000000000000000000000000000002C981F
:104DD00078941F910895F8940E9495262F988AB18F
:104DE0008F708AB984B1807F84B92D9A2C9A000083
:104DF000000000000000000000000000000029B1D9
:104E000083B12C982D989AB1906F9AB994B19F6004
:104E100094B978948F70207F822B0895F8948091B4
:104E2000DA0582958695869583700E9495262F9A3D
:104E30008AB18F708AB984B1807F84B92D9A2C9AF7
:104E40000000000000000000000000000000000062
:104E500099B183B12C982D9878948F70907F892B7D
:104E6000089508958093DA0580E060E40E94C226E8
:104E70001092DC0581E060E40E94C2261092DE05FB
:104E80008091DA05682F6F736064829586958695A8
:104E900083700E94C22608951F93182F8093DB050C
:104EA000186B80E0612F0E94C22681E0612F0E9472
:104EB000C2261F9108950F931F93182F0091DA05B2
:104EC0000295069506950370F894802F0E9495260A
:104ED0002F9A2D982C9A8AB1806F8AB984B18F60ED
:104EE00084B98BB18F708BB99BB1812F807F892B57
:104EF0008BB985B1807F85B985B11F70812B85B94C
:104F000000000000000000000000000000000000A1
:104F10002C987894E02FF0E0EE0FFF1FE452FA4F48
:104F200080818F5F80838091DA058F5F8093DA05BF
:104F300087FF0AC08091DB058F5F8093DB050E94AD
:104F40004C2780E00E9432271F910F9108951F93F4
:104F5000182F106C80E0612F0E94C22681E0612F23
:104F60000E94C2261F9108951F93182F862F0E941A
:104F70004C27812F0E9432271F9108950F931F9372
:104F800000E080E0602F0E94B42710E080E00E94E3
:104F90005B271F5F1038D1F70F5F083091F71F9123
:104FA0000F91089580E00E94A72780E060E00E94B2
:104FB000B4271092DC051092DD051092DE051092E8
:104FC000DF0508950E94732680E06FE30E94C226E9
:104FD00081E06FE30E94C2260E94BE270E94D22772
:104FE0000895982F86E0689F802D1124692F0E94D4
:104FF000B42708950895459A449A10929205109204
:105000009105109294051092930580E28093B80068
:10501000ECEBF0E080818460808310924B0580810E
:10502000816080838081806480837894089580E2A9
:105030008093B800089590E0611191E08E7F982BE5
:105040009093BA00089590939205809391050895E6
:1050500090939405809393050895ECEBF0E08081A4
:105060008F70806A80830895ECEBF0E080818F7010
:10507000806D808308958091BC0087FFFCCF0895E8
:105080008093BB00ECEBF0E080818F7080688083C0
:105090000895882329F08091BC008F70806C04C033
:1050A0008091BC008F7080688093BC0008958091CF
:1050B000BB0008958091B9000895982F80914B0509
:1050C0008823E1F782E080934B059E7F90934C0507
:1050D000ADE4B5E0FA0102C081918D938E2F841B5F
:1050E0008617D0F310926D0560936E058091BC0019
:1050F0008F70806A8093BC000895982F80914B0533
:105100008823E1F783E080934B05916090934C05F1
:1051100010928F05609390058091BC008F70806A1B
:105120008093BC0080914B058823E1F7AFE6B5E0A2
:10513000FA0102C08D9181938E2F841B8617D0F3C4
:105140000895982FFA018091BC008E7F8093BC0057
:105150008091BC008F70806A8093BC008091BC00FD
:1051600087FFFCCF9E7F9093BB008091BC008F7027
:1051700080688093BC008091BC0087FFFCCF809149
:10518000B900883189F091E012C080818093BB0022
:105190008091BC008F7080688093BC008091BC00BF
:1051A00087FFFCCF31966150662379F790E08091BC
:1051B000BC008F70806D8093BC008091BC0084FF28
:1051C000FCCF8091BC0081608093BC00892F089542
:1051D0001F93CF93DF93982F162FEA018091BC0085
:1051E0008E7F8093BC008091BC008F70806A80931A
:1051F000BC008091BC0087FFFCCF91609093BB0006
:105200008091BC008F7080688093BC008091BC004E
:1052100087FFFCCF8091B900803469F091E018C01D
:105220008FEF0E9449288091BC0087FFFCCF8091BE
:10523000BB0089931150123098F780E00E944928F2
:105240008091BC0087FFFCCF8091BB00888390E0F9
:105250008091BC008F70806D8093BC008091BC00F9
:1052600081608093BC00892FDF91CF911F910895B9
:1052700080914B0508951F920F920FB60F92112443
:105280002F933F934F935F936F937F938F939F934E
:10529000AF93BF93EF93FF938091B900887F8836D7
:1052A00009F4CBC0893688F5803309F495C0813381
:1052B000B0F4803109F45AC0813138F4882309F4FC
:1052C0003EC1883009F048C151C0803209F484C021
:1052D000883209F453C0883109F03EC14FC0883488
:1052E00009F47AC0893438F4883309F478C08034FA
:1052F00009F032C192C0883509F45DC0803609F4E6
:105300009CC0803509F028C174C0803A09F4BEC041
:10531000813AB0F4803809F49BC0813838F4803782
:1053200009F48BC0883709F017C187C0803909F4A8
:105330008FC0883909F4A1C0883809F00DC19DC01B
:10534000883B09F4D1C0893B38F4883A09F4B6C0E7
:10535000803B09F001C1B2C0883C09F4E0C0883F3D
:1053600009F4E7C0803C09F0F7C0D9C08FE096E0AF
:1053700060E00E948C2280914C0514C080EF95E083
:1053800060E00E948C2290916D0580916E059817C7
:1053900008F0DAC0E92FF0E0E35BFA4F80819F5F0D
:1053A00090936D058093BB008091BC008F708068E6
:1053B0008093BC00D1C08BED95E060E00E948C2210
:1053C00080918F059091BB00E82FF0E0E159FA4FF2
:1053D00090838F5F80938F0585EB95E0B2C081EA63
:1053E00095E060E00E948C228091BC008F70806804
:1053F000AFC08DE895E060E00E948C228091BB00F8
:1054000090918F05E92FF0E0E159FA4F80839F5F7B
:1054100090938F0590E00E94E3228AE795E060E098
:105420000E948C2220918F0530E08091900590E0C1
:1054300001972817390734F51EC087E695E060E02C
:105440000E948C2285E080934B0510928F0562C0EC
:1054500083E595E060E00E948C2280918F05909119
:10546000BB00E82FF0E0E159FA4F90838F5F809303
:105470008F05803238F48FEF06C08EE395E060E050
:105480000E948C2280E00E94492866C08BE295E051
:1054900060E00E948C228091BC008F70806C8093B1
:1054A000BC00E0919105F0919205309709F452C04B
:1054B00080918F056FE675E009954CC088E195E015
:1054C00060E00E948C2284E080934B05E09193057C
:1054D000F0919405309731F080E26DE475E0099524
:1054E00080936E0510926D0584E095E060E00E9467
:1054F0008C2290916D05E92FF0E0E35BFA4F8081FB
:105500008093BB009F5F90936D0580916E05981707
:1055100008F04ACF8091BC008F70806C49CF82EE3A
:1055200094E060E00E948C228091BC008F70806CBF
:105530000FC083ED94E060E00E948C220DC082ECED
:1055400094E060E00E948C228091BC008F70806D9E
:105550008093BC0010924B05FF91EF91BF91AF91EA
:105560009F918F917F916F915F914F913F912F917B
:105570000F900FBE0F901F901895EF92FF920F9310
:105580001F937B018C0120E030E040E05FE40E944B
:10559000692E88238CF0C801B70120E030E040E09C
:1055A0005FE40E94352C0E94272F9B01AC01205004
:1055B00030404040504806C0C801B7010E94272F24
:1055C0009B01AC01B901CA011F910F91FF90EF90AF
:1055D0000895A0E0B0E0EFEEFAE20C947832DC013E
:1055E0002B01FA019C91923008F439C1EB018881BA
:1055F000823008F433C1943069F4843009F02FC14B
:1056000011969C9111978981981709F428C1ACE1F2
:10561000B4E025C1843009F421C18230A9F492306C
:1056200009F01DC19A01AD0188E0EA010990AE01BF
:10563000E90109929E018150C1F7E2018981119629
:105640009C918923818308C1923009F407C1129685
:105650002D903C901397EB018A819B811496AD901D
:10566000BD90CD90DC901797EC80FD800E811F815E
:105670009101281B390BB90137FF04C06627772732
:10568000621B730B603271050CF061C012161306B9
:105690006CF537014801062E04C0969487947794E0
:1056A00067940A94D2F721E030E040E050E004C073
:1056B000220F331F441F551F6A95D2F721503040E7
:1056C000404050402E213F214023512321153105D8
:1056D0004105510521F021E030E040E050E0790142
:1056E0008A01E628F728082919293CC0232BD1F183
:1056F000260E371E35014601062E04C09694879467
:10570000779467940A94D2F721E030E040E050E0CB
:1057100004C0220F331F441F551F6A95D2F7215032
:105720003040404050402A213B214C215D21211531
:1057300031054105510521F021E030E040E050E025
:1057400059016A01A628B728C828D9280BC0821594
:1057500093052CF01C01AA24BB24650103C0EE2490
:10576000FF24870111969C91D20111968C91981774
:1057700009F445C0992339F0A80197012A193B097A
:105780004C095D0906C0A60195012E193F09400B81
:10579000510B57FD08C01182338222822483358346
:1057A000468357831DC081E081833382228288270C
:1057B0009927DC01821B930BA40BB50B8483958383
:1057C000A683B7830DC0220F331F441F551F2483A8
:1057D00035834683578382819381019793838283A4
:1057E0002481358146815781DA01C9010197A109D8
:1057F000B1098F5F9F4FAF4FBF4328F30BC0918319
:1058000033822282EA0CFB1C0C1D1D1DE482F582F2
:105810000683178383E08083248135814681578105
:1058200057FF1AC0C901AA2797FDA095BA2F81700A
:105830009070A070B0705695479537952795822B3C
:10584000932BA42BB52B84839583A683B783828166
:105850009381019693838283DF0101C0D201CD0140
:10586000CDB7DEB7E2E10C949432A0E2B0E0EBE316
:10587000FCE20C94843269837A838B839C832D832E
:105880003E834F835887E9E0EE2EF12CEC0EFD1E8F
:10589000CE010196B7010E9418318E010F5E1F4F95
:1058A000CE010596B8010E9418318A8991E08927B6
:1058B0008A8BC701B801AE01475E5F4F0E94E92A9B
:1058C0000E944330A096E6E00C94A032A0E2B0E043
:1058D000ECE6FCE20C94843269837A838B839C83AC
:1058E0002D833E834F835887F9E0EF2EF12CEC0E89
:1058F000FD1ECE010196B7010E9418318E010F5E88
:105900001F4FCE010596B8010E941831C701B8019A
:10591000AE01475E5F4F0E94E92A0E944330A09685
:10592000E6E00C94A032A0E2B0E0E9E9FCE20C94DD
:10593000783269837A838B839C832D833E834F8364
:105940005887CE010196BE01675F7F4F0E941831D4
:10595000CE010596BE016F5E7F4F0E94183199857A
:10596000923088F089898230C8F0943019F48230FE
:1059700051F404C0843029F4923081F48CE194E035
:10598000C6C0923049F420E09A858A89981321E0B4
:105990002A87CE010996BBC0823049F420E09A855F
:1059A0008A89981321E02A8BCE014196B0C02D84BC
:1059B0003E844F8458886D887E888F88988CEE242A
:1059C000FF248701AA24BB24650140E050E060E089
:1059D00070E0E0E0F0E0C10181709070892BE9F0A7
:1059E000E60CF71C081D191D9A01AB012A0D3B1D81
:1059F0004C1D5D1D80E090E0A0E0B0E0E614F704EF
:105A00000805190520F481E090E0A0E0B0E0BA01BB
:105A1000A901480F591F6A1F7B1FAA0CBB1CCC1C75
:105A2000DD1C97FE08C081E090E0A0E0B0E0A82A6D
:105A3000B92ACA2ADB2A3196E032F10549F0660C10
:105A4000771C881C991C5694479437942794C3CF8D
:105A5000FA85EA892B893C898B859C85280F391F1B
:105A60002E5F3F4F17C0CA0181709070892B61F083
:105A700016950795F794E79480E090E0A0E0B0E8F1
:105A8000E82AF92A0A2B1B2B769567955795479597
:105A90002F5F3F4F77FDE7CF0CC0440F551F661FA8
:105AA000771F17FD4160EE0CFF1C001F111F2150D6
:105AB0003040403090E0590790E0690790E4790762
:105AC00060F32B8F3C8FDB01CA018F779070A07041
:105AD000B07080349105A105B10561F447FD0AC09D
